{
	"data": {
		"bytecode": {
			"linkReferences": {
				"contracts/Contract3October/Coba.sol": {
					"Calculator": [
						{
							"length": 20,
							"start": 544
						}
					]
				}
			},
			"object": "6080604052734f364cdcc641c60fe78e3ad6d34aae0280f95b3d600560006101000a81548173ffffffffffffffffffffffffffffffffffffffff021916908373ffffffffffffffffffffffffffffffffffffffff16021790555034801561006557600080fd5b50610dc8806100756000396000f3fe608060405234801561001057600080fd5b506004361061007d5760003560e01c8063d91921ed1161005b578063d91921ed146100ee578063e153270e1461010a578063e3d670d71461012c578063fb53f4041461015c5761007d565b806342cbb15c146100825780638da5cb5b146100a0578063a37b06d4146100be575b600080fd5b61008a610178565b6040516100979190610722565b60405180910390f35b6100a8610180565b6040516100b5919061077e565b60405180910390f35b6100d860048036038101906100d391906107cf565b6101a6565b6040516100e59190610722565b60405180910390f35b6101086004803603810190610103919061080f565b61022c565b005b610112610285565b604051610123959493929190610967565b60405180910390f35b610146600480360381019061014191906109ed565b61036b565b6040516101539190610722565b60405180910390f35b61017660048036038101906101719190610aa4565b610383565b005b600043905090565b600560009054906101000a900473ffffffffffffffffffffffffffffffffffffffff1681565b60008273__$53dbc2f547177eece828e166eabefff551$__63a37b06d49091846040518363ffffffff1660e01b81526004016101e3929190610b3b565b602060405180830381865af4158015610200573d6000803e3d6000fd5b505050506040513d601f19601f820116820180604052508101906102249190610b79565b905092915050565b80600460003373ffffffffffffffffffffffffffffffffffffffff1673ffffffffffffffffffffffffffffffffffffffff168152602001908152602001600020600082825461027b9190610bd5565b9250508190555050565b60008060000160009054906101000a900460ff16908060010154908060020160009054906101000a900473ffffffffffffffffffffffffffffffffffffffff16908060020160149054906101000a900460ff16908060030180546102e890610c5a565b80601f016020809104026020016040519081016040528092919081815260200182805461031490610c5a565b80156103615780601f1061033657610100808354040283529160200191610361565b820191906000526020600020905b81548152906001019060200180831161034457829003601f168201915b5050505050905085565b60046020528060005260406000206000915090505481565b600560009054906101000a900473ffffffffffffffffffffffffffffffffffffffff1673ffffffffffffffffffffffffffffffffffffffff163373ffffffffffffffffffffffffffffffffffffffff16146103dd57600080fd5b60648510610420576040517f08c379a000000000000000000000000000000000000000000000000000000000815260040161041790610cd7565b60405180910390fd5b61042d858585858561046b565b7f19ef9a4877199f89440a26acb26895ec02ed86f2df1aeaa90dc18041b892f71f8460405161045c919061077e565b60405180910390a15050505050565b60001515600060020160149054906101000a900460ff1615151461049257610491610cf7565b5b6040518060a001604052808260018111156104b0576104af61083c565b5b81526020018681526020018573ffffffffffffffffffffffffffffffffffffffff16815260200160001515815260200184848080601f016020809104026020016040519081016040528093929190818152602001838380828437600081840152601f19601f820116905080830192505050505050508152506000808201518160000160006101000a81548160ff021916908360018111156105545761055361083c565b5b02179055506020820151816001015560408201518160020160006101000a81548173ffffffffffffffffffffffffffffffffffffffff021916908373ffffffffffffffffffffffffffffffffffffffff16021790555060608201518160020160146101000a81548160ff02191690831515021790555060808201518160030190805190602001906105e6929190610666565b509050506000604b905080861061061a576001600060020160146101000a81548160ff02191690831515021790555061065e565b6000860361065d576040517f08c379a000000000000000000000000000000000000000000000000000000000815260040161065490610d72565b60405180910390fd5b5b505050505050565b82805461067290610c5a565b90600052602060002090601f01602090048101928261069457600085556106db565b82601f106106ad57805160ff19168380011785556106db565b828001600101855582156106db579182015b828111156106da5782518255916020019190600101906106bf565b5b5090506106e891906106ec565b5090565b5b808211156107055760008160009055506001016106ed565b5090565b6000819050919050565b61071c81610709565b82525050565b60006020820190506107376000830184610713565b92915050565b600073ffffffffffffffffffffffffffffffffffffffff82169050919050565b60006107688261073d565b9050919050565b6107788161075d565b82525050565b6000602082019050610793600083018461076f565b92915050565b600080fd5b600080fd5b6107ac81610709565b81146107b757600080fd5b50565b6000813590506107c9816107a3565b92915050565b600080604083850312156107e6576107e5610799565b5b60006107f4858286016107ba565b9250506020610805858286016107ba565b9150509250929050565b60006020828403121561082557610824610799565b5b6000610833848285016107ba565b91505092915050565b7f4e487b7100000000000000000000000000000000000000000000000000000000600052602160045260246000fd5b6002811061087c5761087b61083c565b5b50565b600081905061088d8261086b565b919050565b600061089d8261087f565b9050919050565b6108ad81610892565b82525050565b60008115159050919050565b6108c8816108b3565b82525050565b600081519050919050565b600082825260208201905092915050565b60005b838110156109085780820151818401526020810190506108ed565b83811115610917576000848401525b50505050565b6000601f19601f8301169050919050565b6000610939826108ce565b61094381856108d9565b93506109538185602086016108ea565b61095c8161091d565b840191505092915050565b600060a08201905061097c60008301886108a4565b6109896020830187610713565b610996604083018661076f565b6109a360608301856108bf565b81810360808301526109b5818461092e565b90509695505050505050565b6109ca8161075d565b81146109d557600080fd5b50565b6000813590506109e7816109c1565b92915050565b600060208284031215610a0357610a02610799565b5b6000610a11848285016109d8565b91505092915050565b600080fd5b600080fd5b600080fd5b60008083601f840112610a3f57610a3e610a1a565b5b8235905067ffffffffffffffff811115610a5c57610a5b610a1f565b5b602083019150836001820283011115610a7857610a77610a24565b5b9250929050565b60028110610a8c57600080fd5b50565b600081359050610a9e81610a7f565b92915050565b600080600080600060808688031215610ac057610abf610799565b5b6000610ace888289016107ba565b9550506020610adf888289016109d8565b945050604086013567ffffffffffffffff811115610b0057610aff61079e565b5b610b0c88828901610a29565b93509350506060610b1f88828901610a8f565b9150509295509295909350565b610b3581610709565b82525050565b6000604082019050610b506000830185610b2c565b610b5d6020830184610b2c565b9392505050565b600081519050610b73816107a3565b92915050565b600060208284031215610b8f57610b8e610799565b5b6000610b9d84828501610b64565b91505092915050565b7f4e487b7100000000000000000000000000000000000000000000000000000000600052601160045260246000fd5b6000610be082610709565b9150610beb83610709565b9250827fffffffffffffffffffffffffffffffffffffffffffffffffffffffffffffffff03821115610c2057610c1f610ba6565b5b828201905092915050565b7f4e487b7100000000000000000000000000000000000000000000000000000000600052602260045260246000fd5b60006002820490506001821680610c7257607f821691505b602082108103610c8557610c84610c2b565b5b50919050565b7f6d6f7265207468616e2031303000000000000000000000000000000000000000600082015250565b6000610cc1600d836108d9565b9150610ccc82610c8b565b602082019050919050565b60006020820190508181036000830152610cf081610cb4565b9050919050565b7f4e487b7100000000000000000000000000000000000000000000000000000000600052600160045260246000fd5b7f6e6f2073636f7265000000000000000000000000000000000000000000000000600082015250565b6000610d5c6008836108d9565b9150610d6782610d26565b602082019050919050565b60006020820190508181036000830152610d8b81610d4f565b905091905056fea26469706673582212205deb2a44fe211529e46ab3e1936d78e5b7277329c6bc8b94c1324866f42564cc64736f6c634300080d0033",
			"opcodes": "PUSH1 0x80 PUSH1 0x40 MSTORE PUSH20 0x4F364CDCC641C60FE78E3AD6D34AAE0280F95B3D PUSH1 0x5 PUSH1 0x0 PUSH2 0x100 EXP DUP2 SLOAD DUP2 PUSH20 0xFFFFFFFFFFFFFFFFFFFFFFFFFFFFFFFFFFFFFFFF MUL NOT AND SWAP1 DUP4 PUSH20 0xFFFFFFFFFFFFFFFFFFFFFFFFFFFFFFFFFFFFFFFF AND MUL OR SWAP1 SSTORE POP CALLVALUE DUP1 ISZERO PUSH2 0x65 JUMPI PUSH1 0x0 DUP1 REVERT JUMPDEST POP PUSH2 0xDC8 DUP1 PUSH2 0x75 PUSH1 0x0 CODECOPY PUSH1 0x0 RETURN INVALID PUSH1 0x80 PUSH1 0x40 MSTORE CALLVALUE DUP1 ISZERO PUSH2 0x10 JUMPI PUSH1 0x0 DUP1 REVERT JUMPDEST POP PUSH1 0x4 CALLDATASIZE LT PUSH2 0x7D JUMPI PUSH1 0x0 CALLDATALOAD PUSH1 0xE0 SHR DUP1 PUSH4 0xD91921ED GT PUSH2 0x5B JUMPI DUP1 PUSH4 0xD91921ED EQ PUSH2 0xEE JUMPI DUP1 PUSH4 0xE153270E EQ PUSH2 0x10A JUMPI DUP1 PUSH4 0xE3D670D7 EQ PUSH2 0x12C JUMPI DUP1 PUSH4 0xFB53F404 EQ PUSH2 0x15C JUMPI PUSH2 0x7D JUMP JUMPDEST DUP1 PUSH4 0x42CBB15C EQ PUSH2 0x82 JUMPI DUP1 PUSH4 0x8DA5CB5B EQ PUSH2 0xA0 JUMPI DUP1 PUSH4 0xA37B06D4 EQ PUSH2 0xBE JUMPI JUMPDEST PUSH1 0x0 DUP1 REVERT JUMPDEST PUSH2 0x8A PUSH2 0x178 JUMP JUMPDEST PUSH1 0x40 MLOAD PUSH2 0x97 SWAP2 SWAP1 PUSH2 0x722 JUMP JUMPDEST PUSH1 0x40 MLOAD DUP1 SWAP2 SUB SWAP1 RETURN JUMPDEST PUSH2 0xA8 PUSH2 0x180 JUMP JUMPDEST PUSH1 0x40 MLOAD PUSH2 0xB5 SWAP2 SWAP1 PUSH2 0x77E JUMP JUMPDEST PUSH1 0x40 MLOAD DUP1 SWAP2 SUB SWAP1 RETURN JUMPDEST PUSH2 0xD8 PUSH1 0x4 DUP1 CALLDATASIZE SUB DUP2 ADD SWAP1 PUSH2 0xD3 SWAP2 SWAP1 PUSH2 0x7CF JUMP JUMPDEST PUSH2 0x1A6 JUMP JUMPDEST PUSH1 0x40 MLOAD PUSH2 0xE5 SWAP2 SWAP1 PUSH2 0x722 JUMP JUMPDEST PUSH1 0x40 MLOAD DUP1 SWAP2 SUB SWAP1 RETURN JUMPDEST PUSH2 0x108 PUSH1 0x4 DUP1 CALLDATASIZE SUB DUP2 ADD SWAP1 PUSH2 0x103 SWAP2 SWAP1 PUSH2 0x80F JUMP JUMPDEST PUSH2 0x22C JUMP JUMPDEST STOP JUMPDEST PUSH2 0x112 PUSH2 0x285 JUMP JUMPDEST PUSH1 0x40 MLOAD PUSH2 0x123 SWAP6 SWAP5 SWAP4 SWAP3 SWAP2 SWAP1 PUSH2 0x967 JUMP JUMPDEST PUSH1 0x40 MLOAD DUP1 SWAP2 SUB SWAP1 RETURN JUMPDEST PUSH2 0x146 PUSH1 0x4 DUP1 CALLDATASIZE SUB DUP2 ADD SWAP1 PUSH2 0x141 SWAP2 SWAP1 PUSH2 0x9ED JUMP JUMPDEST PUSH2 0x36B JUMP JUMPDEST PUSH1 0x40 MLOAD PUSH2 0x153 SWAP2 SWAP1 PUSH2 0x722 JUMP JUMPDEST PUSH1 0x40 MLOAD DUP1 SWAP2 SUB SWAP1 RETURN JUMPDEST PUSH2 0x176 PUSH1 0x4 DUP1 CALLDATASIZE SUB DUP2 ADD SWAP1 PUSH2 0x171 SWAP2 SWAP1 PUSH2 0xAA4 JUMP JUMPDEST PUSH2 0x383 JUMP JUMPDEST STOP JUMPDEST PUSH1 0x0 NUMBER SWAP1 POP SWAP1 JUMP JUMPDEST PUSH1 0x5 PUSH1 0x0 SWAP1 SLOAD SWAP1 PUSH2 0x100 EXP SWAP1 DIV PUSH20 0xFFFFFFFFFFFFFFFFFFFFFFFFFFFFFFFFFFFFFFFF AND DUP2 JUMP JUMPDEST PUSH1 0x0 DUP3 PUSH20 0x0 PUSH4 0xA37B06D4 SWAP1 SWAP2 DUP5 PUSH1 0x40 MLOAD DUP4 PUSH4 0xFFFFFFFF AND PUSH1 0xE0 SHL DUP2 MSTORE PUSH1 0x4 ADD PUSH2 0x1E3 SWAP3 SWAP2 SWAP1 PUSH2 0xB3B JUMP JUMPDEST PUSH1 0x20 PUSH1 0x40 MLOAD DUP1 DUP4 SUB DUP2 DUP7 GAS DELEGATECALL ISZERO DUP1 ISZERO PUSH2 0x200 JUMPI RETURNDATASIZE PUSH1 0x0 DUP1 RETURNDATACOPY RETURNDATASIZE PUSH1 0x0 REVERT JUMPDEST POP POP POP POP PUSH1 0x40 MLOAD RETURNDATASIZE PUSH1 0x1F NOT PUSH1 0x1F DUP3 ADD AND DUP3 ADD DUP1 PUSH1 0x40 MSTORE POP DUP2 ADD SWAP1 PUSH2 0x224 SWAP2 SWAP1 PUSH2 0xB79 JUMP JUMPDEST SWAP1 POP SWAP3 SWAP2 POP POP JUMP JUMPDEST DUP1 PUSH1 0x4 PUSH1 0x0 CALLER PUSH20 0xFFFFFFFFFFFFFFFFFFFFFFFFFFFFFFFFFFFFFFFF AND PUSH20 0xFFFFFFFFFFFFFFFFFFFFFFFFFFFFFFFFFFFFFFFF AND DUP2 MSTORE PUSH1 0x20 ADD SWAP1 DUP2 MSTORE PUSH1 0x20 ADD PUSH1 0x0 KECCAK256 PUSH1 0x0 DUP3 DUP3 SLOAD PUSH2 0x27B SWAP2 SWAP1 PUSH2 0xBD5 JUMP JUMPDEST SWAP3 POP POP DUP2 SWAP1 SSTORE POP POP JUMP JUMPDEST PUSH1 0x0 DUP1 PUSH1 0x0 ADD PUSH1 0x0 SWAP1 SLOAD SWAP1 PUSH2 0x100 EXP SWAP1 DIV PUSH1 0xFF AND SWAP1 DUP1 PUSH1 0x1 ADD SLOAD SWAP1 DUP1 PUSH1 0x2 ADD PUSH1 0x0 SWAP1 SLOAD SWAP1 PUSH2 0x100 EXP SWAP1 DIV PUSH20 0xFFFFFFFFFFFFFFFFFFFFFFFFFFFFFFFFFFFFFFFF AND SWAP1 DUP1 PUSH1 0x2 ADD PUSH1 0x14 SWAP1 SLOAD SWAP1 PUSH2 0x100 EXP SWAP1 DIV PUSH1 0xFF AND SWAP1 DUP1 PUSH1 0x3 ADD DUP1 SLOAD PUSH2 0x2E8 SWAP1 PUSH2 0xC5A JUMP JUMPDEST DUP1 PUSH1 0x1F ADD PUSH1 0x20 DUP1 SWAP2 DIV MUL PUSH1 0x20 ADD PUSH1 0x40 MLOAD SWAP1 DUP2 ADD PUSH1 0x40 MSTORE DUP1 SWAP3 SWAP2 SWAP1 DUP2 DUP2 MSTORE PUSH1 0x20 ADD DUP3 DUP1 SLOAD PUSH2 0x314 SWAP1 PUSH2 0xC5A JUMP JUMPDEST DUP1 ISZERO PUSH2 0x361 JUMPI DUP1 PUSH1 0x1F LT PUSH2 0x336 JUMPI PUSH2 0x100 DUP1 DUP4 SLOAD DIV MUL DUP4 MSTORE SWAP2 PUSH1 0x20 ADD SWAP2 PUSH2 0x361 JUMP JUMPDEST DUP3 ADD SWAP2 SWAP1 PUSH1 0x0 MSTORE PUSH1 0x20 PUSH1 0x0 KECCAK256 SWAP1 JUMPDEST DUP2 SLOAD DUP2 MSTORE SWAP1 PUSH1 0x1 ADD SWAP1 PUSH1 0x20 ADD DUP1 DUP4 GT PUSH2 0x344 JUMPI DUP3 SWAP1 SUB PUSH1 0x1F AND DUP3 ADD SWAP2 JUMPDEST POP POP POP POP POP SWAP1 POP DUP6 JUMP JUMPDEST PUSH1 0x4 PUSH1 0x20 MSTORE DUP1 PUSH1 0x0 MSTORE PUSH1 0x40 PUSH1 0x0 KECCAK256 PUSH1 0x0 SWAP2 POP SWAP1 POP SLOAD DUP2 JUMP JUMPDEST PUSH1 0x5 PUSH1 0x0 SWAP1 SLOAD SWAP1 PUSH2 0x100 EXP SWAP1 DIV PUSH20 0xFFFFFFFFFFFFFFFFFFFFFFFFFFFFFFFFFFFFFFFF AND PUSH20 0xFFFFFFFFFFFFFFFFFFFFFFFFFFFFFFFFFFFFFFFF AND CALLER PUSH20 0xFFFFFFFFFFFFFFFFFFFFFFFFFFFFFFFFFFFFFFFF AND EQ PUSH2 0x3DD JUMPI PUSH1 0x0 DUP1 REVERT JUMPDEST PUSH1 0x64 DUP6 LT PUSH2 0x420 JUMPI PUSH1 0x40 MLOAD PUSH32 0x8C379A000000000000000000000000000000000000000000000000000000000 DUP2 MSTORE PUSH1 0x4 ADD PUSH2 0x417 SWAP1 PUSH2 0xCD7 JUMP JUMPDEST PUSH1 0x40 MLOAD DUP1 SWAP2 SUB SWAP1 REVERT JUMPDEST PUSH2 0x42D DUP6 DUP6 DUP6 DUP6 DUP6 PUSH2 0x46B JUMP JUMPDEST PUSH32 0x19EF9A4877199F89440A26ACB26895EC02ED86F2DF1AEAA90DC18041B892F71F DUP5 PUSH1 0x40 MLOAD PUSH2 0x45C SWAP2 SWAP1 PUSH2 0x77E JUMP JUMPDEST PUSH1 0x40 MLOAD DUP1 SWAP2 SUB SWAP1 LOG1 POP POP POP POP POP JUMP JUMPDEST PUSH1 0x0 ISZERO ISZERO PUSH1 0x0 PUSH1 0x2 ADD PUSH1 0x14 SWAP1 SLOAD SWAP1 PUSH2 0x100 EXP SWAP1 DIV PUSH1 0xFF AND ISZERO ISZERO EQ PUSH2 0x492 JUMPI PUSH2 0x491 PUSH2 0xCF7 JUMP JUMPDEST JUMPDEST PUSH1 0x40 MLOAD DUP1 PUSH1 0xA0 ADD PUSH1 0x40 MSTORE DUP1 DUP3 PUSH1 0x1 DUP2 GT ISZERO PUSH2 0x4B0 JUMPI PUSH2 0x4AF PUSH2 0x83C JUMP JUMPDEST JUMPDEST DUP2 MSTORE PUSH1 0x20 ADD DUP7 DUP2 MSTORE PUSH1 0x20 ADD DUP6 PUSH20 0xFFFFFFFFFFFFFFFFFFFFFFFFFFFFFFFFFFFFFFFF AND DUP2 MSTORE PUSH1 0x20 ADD PUSH1 0x0 ISZERO ISZERO DUP2 MSTORE PUSH1 0x20 ADD DUP5 DUP5 DUP1 DUP1 PUSH1 0x1F ADD PUSH1 0x20 DUP1 SWAP2 DIV MUL PUSH1 0x20 ADD PUSH1 0x40 MLOAD SWAP1 DUP2 ADD PUSH1 0x40 MSTORE DUP1 SWAP4 SWAP3 SWAP2 SWAP1 DUP2 DUP2 MSTORE PUSH1 0x20 ADD DUP4 DUP4 DUP1 DUP3 DUP5 CALLDATACOPY PUSH1 0x0 DUP2 DUP5 ADD MSTORE PUSH1 0x1F NOT PUSH1 0x1F DUP3 ADD AND SWAP1 POP DUP1 DUP4 ADD SWAP3 POP POP POP POP POP POP POP DUP2 MSTORE POP PUSH1 0x0 DUP1 DUP3 ADD MLOAD DUP2 PUSH1 0x0 ADD PUSH1 0x0 PUSH2 0x100 EXP DUP2 SLOAD DUP2 PUSH1 0xFF MUL NOT AND SWAP1 DUP4 PUSH1 0x1 DUP2 GT ISZERO PUSH2 0x554 JUMPI PUSH2 0x553 PUSH2 0x83C JUMP JUMPDEST JUMPDEST MUL OR SWAP1 SSTORE POP PUSH1 0x20 DUP3 ADD MLOAD DUP2 PUSH1 0x1 ADD SSTORE PUSH1 0x40 DUP3 ADD MLOAD DUP2 PUSH1 0x2 ADD PUSH1 0x0 PUSH2 0x100 EXP DUP2 SLOAD DUP2 PUSH20 0xFFFFFFFFFFFFFFFFFFFFFFFFFFFFFFFFFFFFFFFF MUL NOT AND SWAP1 DUP4 PUSH20 0xFFFFFFFFFFFFFFFFFFFFFFFFFFFFFFFFFFFFFFFF AND MUL OR SWAP1 SSTORE POP PUSH1 0x60 DUP3 ADD MLOAD DUP2 PUSH1 0x2 ADD PUSH1 0x14 PUSH2 0x100 EXP DUP2 SLOAD DUP2 PUSH1 0xFF MUL NOT AND SWAP1 DUP4 ISZERO ISZERO MUL OR SWAP1 SSTORE POP PUSH1 0x80 DUP3 ADD MLOAD DUP2 PUSH1 0x3 ADD SWAP1 DUP1 MLOAD SWAP1 PUSH1 0x20 ADD SWAP1 PUSH2 0x5E6 SWAP3 SWAP2 SWAP1 PUSH2 0x666 JUMP JUMPDEST POP SWAP1 POP POP PUSH1 0x0 PUSH1 0x4B SWAP1 POP DUP1 DUP7 LT PUSH2 0x61A JUMPI PUSH1 0x1 PUSH1 0x0 PUSH1 0x2 ADD PUSH1 0x14 PUSH2 0x100 EXP DUP2 SLOAD DUP2 PUSH1 0xFF MUL NOT AND SWAP1 DUP4 ISZERO ISZERO MUL OR SWAP1 SSTORE POP PUSH2 0x65E JUMP JUMPDEST PUSH1 0x0 DUP7 SUB PUSH2 0x65D JUMPI PUSH1 0x40 MLOAD PUSH32 0x8C379A000000000000000000000000000000000000000000000000000000000 DUP2 MSTORE PUSH1 0x4 ADD PUSH2 0x654 SWAP1 PUSH2 0xD72 JUMP JUMPDEST PUSH1 0x40 MLOAD DUP1 SWAP2 SUB SWAP1 REVERT JUMPDEST JUMPDEST POP POP POP POP POP POP JUMP JUMPDEST DUP3 DUP1 SLOAD PUSH2 0x672 SWAP1 PUSH2 0xC5A JUMP JUMPDEST SWAP1 PUSH1 0x0 MSTORE PUSH1 0x20 PUSH1 0x0 KECCAK256 SWAP1 PUSH1 0x1F ADD PUSH1 0x20 SWAP1 DIV DUP2 ADD SWAP3 DUP3 PUSH2 0x694 JUMPI PUSH1 0x0 DUP6 SSTORE PUSH2 0x6DB JUMP JUMPDEST DUP3 PUSH1 0x1F LT PUSH2 0x6AD JUMPI DUP1 MLOAD PUSH1 0xFF NOT AND DUP4 DUP1 ADD OR DUP6 SSTORE PUSH2 0x6DB JUMP JUMPDEST DUP3 DUP1 ADD PUSH1 0x1 ADD DUP6 SSTORE DUP3 ISZERO PUSH2 0x6DB JUMPI SWAP2 DUP3 ADD JUMPDEST DUP3 DUP2 GT ISZERO PUSH2 0x6DA JUMPI DUP3 MLOAD DUP3 SSTORE SWAP2 PUSH1 0x20 ADD SWAP2 SWAP1 PUSH1 0x1 ADD SWAP1 PUSH2 0x6BF JUMP JUMPDEST JUMPDEST POP SWAP1 POP PUSH2 0x6E8 SWAP2 SWAP1 PUSH2 0x6EC JUMP JUMPDEST POP SWAP1 JUMP JUMPDEST JUMPDEST DUP1 DUP3 GT ISZERO PUSH2 0x705 JUMPI PUSH1 0x0 DUP2 PUSH1 0x0 SWAP1 SSTORE POP PUSH1 0x1 ADD PUSH2 0x6ED JUMP JUMPDEST POP SWAP1 JUMP JUMPDEST PUSH1 0x0 DUP2 SWAP1 POP SWAP2 SWAP1 POP JUMP JUMPDEST PUSH2 0x71C DUP2 PUSH2 0x709 JUMP JUMPDEST DUP3 MSTORE POP POP JUMP JUMPDEST PUSH1 0x0 PUSH1 0x20 DUP3 ADD SWAP1 POP PUSH2 0x737 PUSH1 0x0 DUP4 ADD DUP5 PUSH2 0x713 JUMP JUMPDEST SWAP3 SWAP2 POP POP JUMP JUMPDEST PUSH1 0x0 PUSH20 0xFFFFFFFFFFFFFFFFFFFFFFFFFFFFFFFFFFFFFFFF DUP3 AND SWAP1 POP SWAP2 SWAP1 POP JUMP JUMPDEST PUSH1 0x0 PUSH2 0x768 DUP3 PUSH2 0x73D JUMP JUMPDEST SWAP1 POP SWAP2 SWAP1 POP JUMP JUMPDEST PUSH2 0x778 DUP2 PUSH2 0x75D JUMP JUMPDEST DUP3 MSTORE POP POP JUMP JUMPDEST PUSH1 0x0 PUSH1 0x20 DUP3 ADD SWAP1 POP PUSH2 0x793 PUSH1 0x0 DUP4 ADD DUP5 PUSH2 0x76F JUMP JUMPDEST SWAP3 SWAP2 POP POP JUMP JUMPDEST PUSH1 0x0 DUP1 REVERT JUMPDEST PUSH1 0x0 DUP1 REVERT JUMPDEST PUSH2 0x7AC DUP2 PUSH2 0x709 JUMP JUMPDEST DUP2 EQ PUSH2 0x7B7 JUMPI PUSH1 0x0 DUP1 REVERT JUMPDEST POP JUMP JUMPDEST PUSH1 0x0 DUP2 CALLDATALOAD SWAP1 POP PUSH2 0x7C9 DUP2 PUSH2 0x7A3 JUMP JUMPDEST SWAP3 SWAP2 POP POP JUMP JUMPDEST PUSH1 0x0 DUP1 PUSH1 0x40 DUP4 DUP6 SUB SLT ISZERO PUSH2 0x7E6 JUMPI PUSH2 0x7E5 PUSH2 0x799 JUMP JUMPDEST JUMPDEST PUSH1 0x0 PUSH2 0x7F4 DUP6 DUP3 DUP7 ADD PUSH2 0x7BA JUMP JUMPDEST SWAP3 POP POP PUSH1 0x20 PUSH2 0x805 DUP6 DUP3 DUP7 ADD PUSH2 0x7BA JUMP JUMPDEST SWAP2 POP POP SWAP3 POP SWAP3 SWAP1 POP JUMP JUMPDEST PUSH1 0x0 PUSH1 0x20 DUP3 DUP5 SUB SLT ISZERO PUSH2 0x825 JUMPI PUSH2 0x824 PUSH2 0x799 JUMP JUMPDEST JUMPDEST PUSH1 0x0 PUSH2 0x833 DUP5 DUP3 DUP6 ADD PUSH2 0x7BA JUMP JUMPDEST SWAP2 POP POP SWAP3 SWAP2 POP POP JUMP JUMPDEST PUSH32 0x4E487B7100000000000000000000000000000000000000000000000000000000 PUSH1 0x0 MSTORE PUSH1 0x21 PUSH1 0x4 MSTORE PUSH1 0x24 PUSH1 0x0 REVERT JUMPDEST PUSH1 0x2 DUP2 LT PUSH2 0x87C JUMPI PUSH2 0x87B PUSH2 0x83C JUMP JUMPDEST JUMPDEST POP JUMP JUMPDEST PUSH1 0x0 DUP2 SWAP1 POP PUSH2 0x88D DUP3 PUSH2 0x86B JUMP JUMPDEST SWAP2 SWAP1 POP JUMP JUMPDEST PUSH1 0x0 PUSH2 0x89D DUP3 PUSH2 0x87F JUMP JUMPDEST SWAP1 POP SWAP2 SWAP1 POP JUMP JUMPDEST PUSH2 0x8AD DUP2 PUSH2 0x892 JUMP JUMPDEST DUP3 MSTORE POP POP JUMP JUMPDEST PUSH1 0x0 DUP2 ISZERO ISZERO SWAP1 POP SWAP2 SWAP1 POP JUMP JUMPDEST PUSH2 0x8C8 DUP2 PUSH2 0x8B3 JUMP JUMPDEST DUP3 MSTORE POP POP JUMP JUMPDEST PUSH1 0x0 DUP2 MLOAD SWAP1 POP SWAP2 SWAP1 POP JUMP JUMPDEST PUSH1 0x0 DUP3 DUP3 MSTORE PUSH1 0x20 DUP3 ADD SWAP1 POP SWAP3 SWAP2 POP POP JUMP JUMPDEST PUSH1 0x0 JUMPDEST DUP4 DUP2 LT ISZERO PUSH2 0x908 JUMPI DUP1 DUP3 ADD MLOAD DUP2 DUP5 ADD MSTORE PUSH1 0x20 DUP2 ADD SWAP1 POP PUSH2 0x8ED JUMP JUMPDEST DUP4 DUP2 GT ISZERO PUSH2 0x917 JUMPI PUSH1 0x0 DUP5 DUP5 ADD MSTORE JUMPDEST POP POP POP POP JUMP JUMPDEST PUSH1 0x0 PUSH1 0x1F NOT PUSH1 0x1F DUP4 ADD AND SWAP1 POP SWAP2 SWAP1 POP JUMP JUMPDEST PUSH1 0x0 PUSH2 0x939 DUP3 PUSH2 0x8CE JUMP JUMPDEST PUSH2 0x943 DUP2 DUP6 PUSH2 0x8D9 JUMP JUMPDEST SWAP4 POP PUSH2 0x953 DUP2 DUP6 PUSH1 0x20 DUP7 ADD PUSH2 0x8EA JUMP JUMPDEST PUSH2 0x95C DUP2 PUSH2 0x91D JUMP JUMPDEST DUP5 ADD SWAP2 POP POP SWAP3 SWAP2 POP POP JUMP JUMPDEST PUSH1 0x0 PUSH1 0xA0 DUP3 ADD SWAP1 POP PUSH2 0x97C PUSH1 0x0 DUP4 ADD DUP9 PUSH2 0x8A4 JUMP JUMPDEST PUSH2 0x989 PUSH1 0x20 DUP4 ADD DUP8 PUSH2 0x713 JUMP JUMPDEST PUSH2 0x996 PUSH1 0x40 DUP4 ADD DUP7 PUSH2 0x76F JUMP JUMPDEST PUSH2 0x9A3 PUSH1 0x60 DUP4 ADD DUP6 PUSH2 0x8BF JUMP JUMPDEST DUP2 DUP2 SUB PUSH1 0x80 DUP4 ADD MSTORE PUSH2 0x9B5 DUP2 DUP5 PUSH2 0x92E JUMP JUMPDEST SWAP1 POP SWAP7 SWAP6 POP POP POP POP POP POP JUMP JUMPDEST PUSH2 0x9CA DUP2 PUSH2 0x75D JUMP JUMPDEST DUP2 EQ PUSH2 0x9D5 JUMPI PUSH1 0x0 DUP1 REVERT JUMPDEST POP JUMP JUMPDEST PUSH1 0x0 DUP2 CALLDATALOAD SWAP1 POP PUSH2 0x9E7 DUP2 PUSH2 0x9C1 JUMP JUMPDEST SWAP3 SWAP2 POP POP JUMP JUMPDEST PUSH1 0x0 PUSH1 0x20 DUP3 DUP5 SUB SLT ISZERO PUSH2 0xA03 JUMPI PUSH2 0xA02 PUSH2 0x799 JUMP JUMPDEST JUMPDEST PUSH1 0x0 PUSH2 0xA11 DUP5 DUP3 DUP6 ADD PUSH2 0x9D8 JUMP JUMPDEST SWAP2 POP POP SWAP3 SWAP2 POP POP JUMP JUMPDEST PUSH1 0x0 DUP1 REVERT JUMPDEST PUSH1 0x0 DUP1 REVERT JUMPDEST PUSH1 0x0 DUP1 REVERT JUMPDEST PUSH1 0x0 DUP1 DUP4 PUSH1 0x1F DUP5 ADD SLT PUSH2 0xA3F JUMPI PUSH2 0xA3E PUSH2 0xA1A JUMP JUMPDEST JUMPDEST DUP3 CALLDATALOAD SWAP1 POP PUSH8 0xFFFFFFFFFFFFFFFF DUP2 GT ISZERO PUSH2 0xA5C JUMPI PUSH2 0xA5B PUSH2 0xA1F JUMP JUMPDEST JUMPDEST PUSH1 0x20 DUP4 ADD SWAP2 POP DUP4 PUSH1 0x1 DUP3 MUL DUP4 ADD GT ISZERO PUSH2 0xA78 JUMPI PUSH2 0xA77 PUSH2 0xA24 JUMP JUMPDEST JUMPDEST SWAP3 POP SWAP3 SWAP1 POP JUMP JUMPDEST PUSH1 0x2 DUP2 LT PUSH2 0xA8C JUMPI PUSH1 0x0 DUP1 REVERT JUMPDEST POP JUMP JUMPDEST PUSH1 0x0 DUP2 CALLDATALOAD SWAP1 POP PUSH2 0xA9E DUP2 PUSH2 0xA7F JUMP JUMPDEST SWAP3 SWAP2 POP POP JUMP JUMPDEST PUSH1 0x0 DUP1 PUSH1 0x0 DUP1 PUSH1 0x0 PUSH1 0x80 DUP7 DUP9 SUB SLT ISZERO PUSH2 0xAC0 JUMPI PUSH2 0xABF PUSH2 0x799 JUMP JUMPDEST JUMPDEST PUSH1 0x0 PUSH2 0xACE DUP9 DUP3 DUP10 ADD PUSH2 0x7BA JUMP JUMPDEST SWAP6 POP POP PUSH1 0x20 PUSH2 0xADF DUP9 DUP3 DUP10 ADD PUSH2 0x9D8 JUMP JUMPDEST SWAP5 POP POP PUSH1 0x40 DUP7 ADD CALLDATALOAD PUSH8 0xFFFFFFFFFFFFFFFF DUP2 GT ISZERO PUSH2 0xB00 JUMPI PUSH2 0xAFF PUSH2 0x79E JUMP JUMPDEST JUMPDEST PUSH2 0xB0C DUP9 DUP3 DUP10 ADD PUSH2 0xA29 JUMP JUMPDEST SWAP4 POP SWAP4 POP POP PUSH1 0x60 PUSH2 0xB1F DUP9 DUP3 DUP10 ADD PUSH2 0xA8F JUMP JUMPDEST SWAP2 POP POP SWAP3 SWAP6 POP SWAP3 SWAP6 SWAP1 SWAP4 POP JUMP JUMPDEST PUSH2 0xB35 DUP2 PUSH2 0x709 JUMP JUMPDEST DUP3 MSTORE POP POP JUMP JUMPDEST PUSH1 0x0 PUSH1 0x40 DUP3 ADD SWAP1 POP PUSH2 0xB50 PUSH1 0x0 DUP4 ADD DUP6 PUSH2 0xB2C JUMP JUMPDEST PUSH2 0xB5D PUSH1 0x20 DUP4 ADD DUP5 PUSH2 0xB2C JUMP JUMPDEST SWAP4 SWAP3 POP POP POP JUMP JUMPDEST PUSH1 0x0 DUP2 MLOAD SWAP1 POP PUSH2 0xB73 DUP2 PUSH2 0x7A3 JUMP JUMPDEST SWAP3 SWAP2 POP POP JUMP JUMPDEST PUSH1 0x0 PUSH1 0x20 DUP3 DUP5 SUB SLT ISZERO PUSH2 0xB8F JUMPI PUSH2 0xB8E PUSH2 0x799 JUMP JUMPDEST JUMPDEST PUSH1 0x0 PUSH2 0xB9D DUP5 DUP3 DUP6 ADD PUSH2 0xB64 JUMP JUMPDEST SWAP2 POP POP SWAP3 SWAP2 POP POP JUMP JUMPDEST PUSH32 0x4E487B7100000000000000000000000000000000000000000000000000000000 PUSH1 0x0 MSTORE PUSH1 0x11 PUSH1 0x4 MSTORE PUSH1 0x24 PUSH1 0x0 REVERT JUMPDEST PUSH1 0x0 PUSH2 0xBE0 DUP3 PUSH2 0x709 JUMP JUMPDEST SWAP2 POP PUSH2 0xBEB DUP4 PUSH2 0x709 JUMP JUMPDEST SWAP3 POP DUP3 PUSH32 0xFFFFFFFFFFFFFFFFFFFFFFFFFFFFFFFFFFFFFFFFFFFFFFFFFFFFFFFFFFFFFFFF SUB DUP3 GT ISZERO PUSH2 0xC20 JUMPI PUSH2 0xC1F PUSH2 0xBA6 JUMP JUMPDEST JUMPDEST DUP3 DUP3 ADD SWAP1 POP SWAP3 SWAP2 POP POP JUMP JUMPDEST PUSH32 0x4E487B7100000000000000000000000000000000000000000000000000000000 PUSH1 0x0 MSTORE PUSH1 0x22 PUSH1 0x4 MSTORE PUSH1 0x24 PUSH1 0x0 REVERT JUMPDEST PUSH1 0x0 PUSH1 0x2 DUP3 DIV SWAP1 POP PUSH1 0x1 DUP3 AND DUP1 PUSH2 0xC72 JUMPI PUSH1 0x7F DUP3 AND SWAP2 POP JUMPDEST PUSH1 0x20 DUP3 LT DUP2 SUB PUSH2 0xC85 JUMPI PUSH2 0xC84 PUSH2 0xC2B JUMP JUMPDEST JUMPDEST POP SWAP2 SWAP1 POP JUMP JUMPDEST PUSH32 0x6D6F7265207468616E2031303000000000000000000000000000000000000000 PUSH1 0x0 DUP3 ADD MSTORE POP JUMP JUMPDEST PUSH1 0x0 PUSH2 0xCC1 PUSH1 0xD DUP4 PUSH2 0x8D9 JUMP JUMPDEST SWAP2 POP PUSH2 0xCCC DUP3 PUSH2 0xC8B JUMP JUMPDEST PUSH1 0x20 DUP3 ADD SWAP1 POP SWAP2 SWAP1 POP JUMP JUMPDEST PUSH1 0x0 PUSH1 0x20 DUP3 ADD SWAP1 POP DUP2 DUP2 SUB PUSH1 0x0 DUP4 ADD MSTORE PUSH2 0xCF0 DUP2 PUSH2 0xCB4 JUMP JUMPDEST SWAP1 POP SWAP2 SWAP1 POP JUMP JUMPDEST PUSH32 0x4E487B7100000000000000000000000000000000000000000000000000000000 PUSH1 0x0 MSTORE PUSH1 0x1 PUSH1 0x4 MSTORE PUSH1 0x24 PUSH1 0x0 REVERT JUMPDEST PUSH32 0x6E6F2073636F7265000000000000000000000000000000000000000000000000 PUSH1 0x0 DUP3 ADD MSTORE POP JUMP JUMPDEST PUSH1 0x0 PUSH2 0xD5C PUSH1 0x8 DUP4 PUSH2 0x8D9 JUMP JUMPDEST SWAP2 POP PUSH2 0xD67 DUP3 PUSH2 0xD26 JUMP JUMPDEST PUSH1 0x20 DUP3 ADD SWAP1 POP SWAP2 SWAP1 POP JUMP JUMPDEST PUSH1 0x0 PUSH1 0x20 DUP3 ADD SWAP1 POP DUP2 DUP2 SUB PUSH1 0x0 DUP4 ADD MSTORE PUSH2 0xD8B DUP2 PUSH2 0xD4F JUMP JUMPDEST SWAP1 POP SWAP2 SWAP1 POP JUMP INVALID LOG2 PUSH5 0x6970667358 0x22 SLT KECCAK256 0x5D 0xEB 0x2A DIFFICULTY INVALID 0x21 ISZERO 0x29 0xE4 PUSH11 0xB3E1936D78E5B7277329C6 0xBC DUP12 SWAP5 0xC1 ORIGIN BASEFEE PUSH7 0xF42564CC64736F PUSH13 0x634300080D0033000000000000 "
		},
		"gasEstimates": {
			"creation": {
				"codeDepositCost": "705600",
				"executionCost": "25008",
				"totalCost": "730608"
			},
			"external": {
				"addBalance(uint256)": "infinite",
				"balance(address)": "2858",
				"calcPercentage(uint256,uint256)": "infinite",
				"getBlockNumber()": "337",
				"owner()": "2537",
				"setUser(uint256,address,string,uint8)": "infinite",
				"userDetail()": "infinite"
			},
			"internal": {
				"_setUser(uint256,address,string calldata,enum Coba.Gender)": "infinite"
			}
		},
		"methodIdentifiers": {
			"addBalance(uint256)": "d91921ed",
			"balance(address)": "e3d670d7",
			"calcPercentage(uint256,uint256)": "a37b06d4",
			"getBlockNumber()": "42cbb15c",
			"owner()": "8da5cb5b",
			"setUser(uint256,address,string,uint8)": "fb53f404",
			"userDetail()": "e153270e"
		}
	},
	"abi": [
		{
			"anonymous": false,
			"inputs": [
				{
					"indexed": false,
					"internalType": "address",
					"name": "user",
					"type": "address"
				}
			],
			"name": "UserAdded",
			"type": "event"
		},
		{
			"inputs": [
				{
					"internalType": "uint256",
					"name": "_balance",
					"type": "uint256"
				}
			],
			"name": "addBalance",
			"outputs": [],
			"stateMutability": "nonpayable",
			"type": "function"
		},
		{
			"inputs": [
				{
					"internalType": "address",
					"name": "",
					"type": "address"
				}
			],
			"name": "balance",
			"outputs": [
				{
					"internalType": "uint256",
					"name": "",
					"type": "uint256"
				}
			],
			"stateMutability": "view",
			"type": "function"
		},
		{
			"inputs": [
				{
					"internalType": "uint256",
					"name": "numerator",
					"type": "uint256"
				},
				{
					"internalType": "uint256",
					"name": "denumerator",
					"type": "uint256"
				}
			],
			"name": "calcPercentage",
			"outputs": [
				{
					"internalType": "uint256",
					"name": "",
					"type": "uint256"
				}
			],
			"stateMutability": "pure",
			"type": "function"
		},
		{
			"inputs": [],
			"name": "getBlockNumber",
			"outputs": [
				{
					"internalType": "uint256",
					"name": "",
					"type": "uint256"
				}
			],
			"stateMutability": "view",
			"type": "function"
		},
		{
			"inputs": [],
			"name": "owner",
			"outputs": [
				{
					"internalType": "address",
					"name": "",
					"type": "address"
				}
			],
			"stateMutability": "view",
			"type": "function"
		},
		{
			"inputs": [
				{
					"internalType": "uint256",
					"name": "_score",
					"type": "uint256"
				},
				{
					"internalType": "address",
					"name": "_user",
					"type": "address"
				},
				{
					"internalType": "string",
					"name": "_userName",
					"type": "string"
				},
				{
					"internalType": "enum Coba.Gender",
					"name": "_gender",
					"type": "uint8"
				}
			],
			"name": "setUser",
			"outputs": [],
			"stateMutability": "nonpayable",
			"type": "function"
		},
		{
			"inputs": [],
			"name": "userDetail",
			"outputs": [
				{
					"internalType": "enum Coba.Gender",
					"name": "userGender",
					"type": "uint8"
				},
				{
					"internalType": "uint256",
					"name": "score",
					"type": "uint256"
				},
				{
					"internalType": "address",
					"name": "user",
					"type": "address"
				},
				{
					"internalType": "bool",
					"name": "isPassed",
					"type": "bool"
				},
				{
					"internalType": "string",
					"name": "userName",
					"type": "string"
				}
			],
			"stateMutability": "view",
			"type": "function"
		}
	]
}