{
	"contracts/Contract3October/Coba.sol": {
		"Calculator": {
			"abi": [
				{
					"inputs": [
						{
							"internalType": "uint256",
							"name": "numerator",
							"type": "uint256"
						},
						{
							"internalType": "uint256",
							"name": "denumerator",
							"type": "uint256"
						}
					],
					"name": "calcPercentage",
					"outputs": [
						{
							"internalType": "uint256",
							"name": "",
							"type": "uint256"
						}
					],
					"stateMutability": "pure",
					"type": "function"
				}
			],
			"devdoc": {
				"kind": "dev",
				"methods": {},
				"version": 1
			},
			"evm": {
				"assembly": "    /* \"contracts/Contract3October/Coba.sol\":62:263  library Calculator {... */\n  dataSize(sub_0)\n  dataOffset(sub_0)\n  0x0b\n  dup3\n  dup3\n  dup3\n  codecopy\n  dup1\n  mload\n  0x00\n  byte\n  0x73\n  eq\n  tag_1\n  jumpi\n  mstore(0x00, 0x4e487b7100000000000000000000000000000000000000000000000000000000)\n  mstore(0x04, 0x00)\n  revert(0x00, 0x24)\ntag_1:\n  mstore(0x00, address)\n  0x73\n  dup2\n  mstore8\n  dup3\n  dup2\n  return\nstop\n\nsub_0: assembly {\n        /* \"contracts/Contract3October/Coba.sol\":62:263  library Calculator {... */\n      eq(address, deployTimeAddress())\n      mstore(0x40, 0x80)\n      jumpi(tag_1, lt(calldatasize, 0x04))\n      shr(0xe0, calldataload(0x00))\n      dup1\n      0xa37b06d4\n      eq\n      tag_2\n      jumpi\n    tag_1:\n      0x00\n      dup1\n      revert\n        /* \"contracts/Contract3October/Coba.sol\":88:260  function calcPercentage(... */\n    tag_2:\n      tag_3\n      0x04\n      dup1\n      calldatasize\n      sub\n      dup2\n      add\n      swap1\n      tag_4\n      swap2\n      swap1\n      tag_5\n      jump\t// in\n    tag_4:\n      tag_6\n      jump\t// in\n    tag_3:\n      mload(0x40)\n      tag_7\n      swap2\n      swap1\n      tag_8\n      jump\t// in\n    tag_7:\n      mload(0x40)\n      dup1\n      swap2\n      sub\n      swap1\n      return\n    tag_6:\n        /* \"contracts/Contract3October/Coba.sol\":197:204  uint256 */\n      0x00\n        /* \"contracts/Contract3October/Coba.sol\":241:252  denumerator */\n      dup2\n        /* \"contracts/Contract3October/Coba.sol\":235:238  100 */\n      0x64\n        /* \"contracts/Contract3October/Coba.sol\":223:232  numerator */\n      dup5\n        /* \"contracts/Contract3October/Coba.sol\":223:238  numerator * 100 */\n      tag_10\n      swap2\n      swap1\n      tag_11\n      jump\t// in\n    tag_10:\n        /* \"contracts/Contract3October/Coba.sol\":223:252  numerator * 100 / denumerator */\n      tag_12\n      swap2\n      swap1\n      tag_13\n      jump\t// in\n    tag_12:\n        /* \"contracts/Contract3October/Coba.sol\":216:252  return numerator * 100 / denumerator */\n      swap1\n      pop\n        /* \"contracts/Contract3October/Coba.sol\":88:260  function calcPercentage(... */\n      swap3\n      swap2\n      pop\n      pop\n      jump\t// out\n        /* \"#utility.yul\":88:205   */\n    tag_15:\n        /* \"#utility.yul\":197:198   */\n      0x00\n        /* \"#utility.yul\":194:195   */\n      dup1\n        /* \"#utility.yul\":187:199   */\n      revert\n        /* \"#utility.yul\":334:411   */\n    tag_17:\n        /* \"#utility.yul\":371:378   */\n      0x00\n        /* \"#utility.yul\":400:405   */\n      dup2\n        /* \"#utility.yul\":389:405   */\n      swap1\n      pop\n        /* \"#utility.yul\":334:411   */\n      swap2\n      swap1\n      pop\n      jump\t// out\n        /* \"#utility.yul\":417:539   */\n    tag_18:\n        /* \"#utility.yul\":490:514   */\n      tag_29\n        /* \"#utility.yul\":508:513   */\n      dup2\n        /* \"#utility.yul\":490:514   */\n      tag_17\n      jump\t// in\n    tag_29:\n        /* \"#utility.yul\":483:488   */\n      dup2\n        /* \"#utility.yul\":480:515   */\n      eq\n        /* \"#utility.yul\":470:533   */\n      tag_30\n      jumpi\n        /* \"#utility.yul\":529:530   */\n      0x00\n        /* \"#utility.yul\":526:527   */\n      dup1\n        /* \"#utility.yul\":519:531   */\n      revert\n        /* \"#utility.yul\":470:533   */\n    tag_30:\n        /* \"#utility.yul\":417:539   */\n      pop\n      jump\t// out\n        /* \"#utility.yul\":545:684   */\n    tag_19:\n        /* \"#utility.yul\":591:596   */\n      0x00\n        /* \"#utility.yul\":629:635   */\n      dup2\n        /* \"#utility.yul\":616:636   */\n      calldataload\n        /* \"#utility.yul\":607:636   */\n      swap1\n      pop\n        /* \"#utility.yul\":645:678   */\n      tag_32\n        /* \"#utility.yul\":672:677   */\n      dup2\n        /* \"#utility.yul\":645:678   */\n      tag_18\n      jump\t// in\n    tag_32:\n        /* \"#utility.yul\":545:684   */\n      swap3\n      swap2\n      pop\n      pop\n      jump\t// out\n        /* \"#utility.yul\":690:1164   */\n    tag_5:\n        /* \"#utility.yul\":758:764   */\n      0x00\n        /* \"#utility.yul\":766:772   */\n      dup1\n        /* \"#utility.yul\":815:817   */\n      0x40\n        /* \"#utility.yul\":803:812   */\n      dup4\n        /* \"#utility.yul\":794:801   */\n      dup6\n        /* \"#utility.yul\":790:813   */\n      sub\n        /* \"#utility.yul\":786:818   */\n      slt\n        /* \"#utility.yul\":783:902   */\n      iszero\n      tag_34\n      jumpi\n        /* \"#utility.yul\":821:900   */\n      tag_35\n      tag_15\n      jump\t// in\n    tag_35:\n        /* \"#utility.yul\":783:902   */\n    tag_34:\n        /* \"#utility.yul\":941:942   */\n      0x00\n        /* \"#utility.yul\":966:1019   */\n      tag_36\n        /* \"#utility.yul\":1011:1018   */\n      dup6\n        /* \"#utility.yul\":1002:1008   */\n      dup3\n        /* \"#utility.yul\":991:1000   */\n      dup7\n        /* \"#utility.yul\":987:1009   */\n      add\n        /* \"#utility.yul\":966:1019   */\n      tag_19\n      jump\t// in\n    tag_36:\n        /* \"#utility.yul\":956:1019   */\n      swap3\n      pop\n        /* \"#utility.yul\":912:1029   */\n      pop\n        /* \"#utility.yul\":1068:1070   */\n      0x20\n        /* \"#utility.yul\":1094:1147   */\n      tag_37\n        /* \"#utility.yul\":1139:1146   */\n      dup6\n        /* \"#utility.yul\":1130:1136   */\n      dup3\n        /* \"#utility.yul\":1119:1128   */\n      dup7\n        /* \"#utility.yul\":1115:1137   */\n      add\n        /* \"#utility.yul\":1094:1147   */\n      tag_19\n      jump\t// in\n    tag_37:\n        /* \"#utility.yul\":1084:1147   */\n      swap2\n      pop\n        /* \"#utility.yul\":1039:1157   */\n      pop\n        /* \"#utility.yul\":690:1164   */\n      swap3\n      pop\n      swap3\n      swap1\n      pop\n      jump\t// out\n        /* \"#utility.yul\":1170:1296   */\n    tag_20:\n        /* \"#utility.yul\":1265:1289   */\n      tag_39\n        /* \"#utility.yul\":1283:1288   */\n      dup2\n        /* \"#utility.yul\":1265:1289   */\n      tag_17\n      jump\t// in\n    tag_39:\n        /* \"#utility.yul\":1260:1263   */\n      dup3\n        /* \"#utility.yul\":1253:1290   */\n      mstore\n        /* \"#utility.yul\":1170:1296   */\n      pop\n      pop\n      jump\t// out\n        /* \"#utility.yul\":1302:1540   */\n    tag_8:\n        /* \"#utility.yul\":1403:1407   */\n      0x00\n        /* \"#utility.yul\":1441:1443   */\n      0x20\n        /* \"#utility.yul\":1430:1439   */\n      dup3\n        /* \"#utility.yul\":1426:1444   */\n      add\n        /* \"#utility.yul\":1418:1444   */\n      swap1\n      pop\n        /* \"#utility.yul\":1454:1533   */\n      tag_41\n        /* \"#utility.yul\":1530:1531   */\n      0x00\n        /* \"#utility.yul\":1519:1528   */\n      dup4\n        /* \"#utility.yul\":1515:1532   */\n      add\n        /* \"#utility.yul\":1506:1512   */\n      dup5\n        /* \"#utility.yul\":1454:1533   */\n      tag_20\n      jump\t// in\n    tag_41:\n        /* \"#utility.yul\":1302:1540   */\n      swap3\n      swap2\n      pop\n      pop\n      jump\t// out\n        /* \"#utility.yul\":1546:1726   */\n    tag_21:\n        /* \"#utility.yul\":1594:1671   */\n      0x4e487b7100000000000000000000000000000000000000000000000000000000\n        /* \"#utility.yul\":1591:1592   */\n      0x00\n        /* \"#utility.yul\":1584:1672   */\n      mstore\n        /* \"#utility.yul\":1691:1695   */\n      0x11\n        /* \"#utility.yul\":1688:1689   */\n      0x04\n        /* \"#utility.yul\":1681:1696   */\n      mstore\n        /* \"#utility.yul\":1715:1719   */\n      0x24\n        /* \"#utility.yul\":1712:1713   */\n      0x00\n        /* \"#utility.yul\":1705:1720   */\n      revert\n        /* \"#utility.yul\":1732:2080   */\n    tag_11:\n        /* \"#utility.yul\":1772:1779   */\n      0x00\n        /* \"#utility.yul\":1795:1815   */\n      tag_44\n        /* \"#utility.yul\":1813:1814   */\n      dup3\n        /* \"#utility.yul\":1795:1815   */\n      tag_17\n      jump\t// in\n    tag_44:\n        /* \"#utility.yul\":1790:1815   */\n      swap2\n      pop\n        /* \"#utility.yul\":1829:1849   */\n      tag_45\n        /* \"#utility.yul\":1847:1848   */\n      dup4\n        /* \"#utility.yul\":1829:1849   */\n      tag_17\n      jump\t// in\n    tag_45:\n        /* \"#utility.yul\":1824:1849   */\n      swap3\n      pop\n        /* \"#utility.yul\":2017:2018   */\n      dup2\n        /* \"#utility.yul\":1949:2015   */\n      0xffffffffffffffffffffffffffffffffffffffffffffffffffffffffffffffff\n        /* \"#utility.yul\":1945:2019   */\n      div\n        /* \"#utility.yul\":1942:1943   */\n      dup4\n        /* \"#utility.yul\":1939:2020   */\n      gt\n        /* \"#utility.yul\":1934:1935   */\n      dup3\n        /* \"#utility.yul\":1927:1936   */\n      iszero\n        /* \"#utility.yul\":1920:1937   */\n      iszero\n        /* \"#utility.yul\":1916:2021   */\n      and\n        /* \"#utility.yul\":1913:2044   */\n      iszero\n      tag_46\n      jumpi\n        /* \"#utility.yul\":2024:2042   */\n      tag_47\n      tag_21\n      jump\t// in\n    tag_47:\n        /* \"#utility.yul\":1913:2044   */\n    tag_46:\n        /* \"#utility.yul\":2072:2073   */\n      dup3\n        /* \"#utility.yul\":2069:2070   */\n      dup3\n        /* \"#utility.yul\":2065:2074   */\n      mul\n        /* \"#utility.yul\":2054:2074   */\n      swap1\n      pop\n        /* \"#utility.yul\":1732:2080   */\n      swap3\n      swap2\n      pop\n      pop\n      jump\t// out\n        /* \"#utility.yul\":2086:2266   */\n    tag_22:\n        /* \"#utility.yul\":2134:2211   */\n      0x4e487b7100000000000000000000000000000000000000000000000000000000\n        /* \"#utility.yul\":2131:2132   */\n      0x00\n        /* \"#utility.yul\":2124:2212   */\n      mstore\n        /* \"#utility.yul\":2231:2235   */\n      0x12\n        /* \"#utility.yul\":2228:2229   */\n      0x04\n        /* \"#utility.yul\":2221:2236   */\n      mstore\n        /* \"#utility.yul\":2255:2259   */\n      0x24\n        /* \"#utility.yul\":2252:2253   */\n      0x00\n        /* \"#utility.yul\":2245:2260   */\n      revert\n        /* \"#utility.yul\":2272:2457   */\n    tag_13:\n        /* \"#utility.yul\":2312:2313   */\n      0x00\n        /* \"#utility.yul\":2329:2349   */\n      tag_50\n        /* \"#utility.yul\":2347:2348   */\n      dup3\n        /* \"#utility.yul\":2329:2349   */\n      tag_17\n      jump\t// in\n    tag_50:\n        /* \"#utility.yul\":2324:2349   */\n      swap2\n      pop\n        /* \"#utility.yul\":2363:2383   */\n      tag_51\n        /* \"#utility.yul\":2381:2382   */\n      dup4\n        /* \"#utility.yul\":2363:2383   */\n      tag_17\n      jump\t// in\n    tag_51:\n        /* \"#utility.yul\":2358:2383   */\n      swap3\n      pop\n        /* \"#utility.yul\":2402:2403   */\n      dup3\n        /* \"#utility.yul\":2392:2427   */\n      tag_52\n      jumpi\n        /* \"#utility.yul\":2407:2425   */\n      tag_53\n      tag_22\n      jump\t// in\n    tag_53:\n        /* \"#utility.yul\":2392:2427   */\n    tag_52:\n        /* \"#utility.yul\":2449:2450   */\n      dup3\n        /* \"#utility.yul\":2446:2447   */\n      dup3\n        /* \"#utility.yul\":2442:2451   */\n      div\n        /* \"#utility.yul\":2437:2451   */\n      swap1\n      pop\n        /* \"#utility.yul\":2272:2457   */\n      swap3\n      swap2\n      pop\n      pop\n      jump\t// out\n\n    auxdata: 0xa264697066735822122087cd57c1ce7652d8d3bbf20efa4fc21ba327d5ff6f0a1f4a33d8d3b16c8e464d64736f6c634300080d0033\n}\n",
				"bytecode": {
					"linkReferences": {},
					"object": "610250610053600b82828239805160001a607314610046577f4e487b7100000000000000000000000000000000000000000000000000000000600052600060045260246000fd5b30600052607381538281f3fe73000000000000000000000000000000000000000030146080604052600436106100355760003560e01c8063a37b06d41461003a575b600080fd5b610054600480360381019061004f91906100c7565b61006a565b6040516100619190610116565b60405180910390f35b60008160648461007a9190610160565b61008491906101e9565b905092915050565b600080fd5b6000819050919050565b6100a481610091565b81146100af57600080fd5b50565b6000813590506100c18161009b565b92915050565b600080604083850312156100de576100dd61008c565b5b60006100ec858286016100b2565b92505060206100fd858286016100b2565b9150509250929050565b61011081610091565b82525050565b600060208201905061012b6000830184610107565b92915050565b7f4e487b7100000000000000000000000000000000000000000000000000000000600052601160045260246000fd5b600061016b82610091565b915061017683610091565b9250817fffffffffffffffffffffffffffffffffffffffffffffffffffffffffffffffff04831182151516156101af576101ae610131565b5b828202905092915050565b7f4e487b7100000000000000000000000000000000000000000000000000000000600052601260045260246000fd5b60006101f482610091565b91506101ff83610091565b92508261020f5761020e6101ba565b5b82820490509291505056fea264697066735822122087cd57c1ce7652d8d3bbf20efa4fc21ba327d5ff6f0a1f4a33d8d3b16c8e464d64736f6c634300080d0033",
					"opcodes": "PUSH2 0x250 PUSH2 0x53 PUSH1 0xB DUP3 DUP3 DUP3 CODECOPY DUP1 MLOAD PUSH1 0x0 BYTE PUSH1 0x73 EQ PUSH2 0x46 JUMPI PUSH32 0x4E487B7100000000000000000000000000000000000000000000000000000000 PUSH1 0x0 MSTORE PUSH1 0x0 PUSH1 0x4 MSTORE PUSH1 0x24 PUSH1 0x0 REVERT JUMPDEST ADDRESS PUSH1 0x0 MSTORE PUSH1 0x73 DUP2 MSTORE8 DUP3 DUP2 RETURN INVALID PUSH20 0x0 ADDRESS EQ PUSH1 0x80 PUSH1 0x40 MSTORE PUSH1 0x4 CALLDATASIZE LT PUSH2 0x35 JUMPI PUSH1 0x0 CALLDATALOAD PUSH1 0xE0 SHR DUP1 PUSH4 0xA37B06D4 EQ PUSH2 0x3A JUMPI JUMPDEST PUSH1 0x0 DUP1 REVERT JUMPDEST PUSH2 0x54 PUSH1 0x4 DUP1 CALLDATASIZE SUB DUP2 ADD SWAP1 PUSH2 0x4F SWAP2 SWAP1 PUSH2 0xC7 JUMP JUMPDEST PUSH2 0x6A JUMP JUMPDEST PUSH1 0x40 MLOAD PUSH2 0x61 SWAP2 SWAP1 PUSH2 0x116 JUMP JUMPDEST PUSH1 0x40 MLOAD DUP1 SWAP2 SUB SWAP1 RETURN JUMPDEST PUSH1 0x0 DUP2 PUSH1 0x64 DUP5 PUSH2 0x7A SWAP2 SWAP1 PUSH2 0x160 JUMP JUMPDEST PUSH2 0x84 SWAP2 SWAP1 PUSH2 0x1E9 JUMP JUMPDEST SWAP1 POP SWAP3 SWAP2 POP POP JUMP JUMPDEST PUSH1 0x0 DUP1 REVERT JUMPDEST PUSH1 0x0 DUP2 SWAP1 POP SWAP2 SWAP1 POP JUMP JUMPDEST PUSH2 0xA4 DUP2 PUSH2 0x91 JUMP JUMPDEST DUP2 EQ PUSH2 0xAF JUMPI PUSH1 0x0 DUP1 REVERT JUMPDEST POP JUMP JUMPDEST PUSH1 0x0 DUP2 CALLDATALOAD SWAP1 POP PUSH2 0xC1 DUP2 PUSH2 0x9B JUMP JUMPDEST SWAP3 SWAP2 POP POP JUMP JUMPDEST PUSH1 0x0 DUP1 PUSH1 0x40 DUP4 DUP6 SUB SLT ISZERO PUSH2 0xDE JUMPI PUSH2 0xDD PUSH2 0x8C JUMP JUMPDEST JUMPDEST PUSH1 0x0 PUSH2 0xEC DUP6 DUP3 DUP7 ADD PUSH2 0xB2 JUMP JUMPDEST SWAP3 POP POP PUSH1 0x20 PUSH2 0xFD DUP6 DUP3 DUP7 ADD PUSH2 0xB2 JUMP JUMPDEST SWAP2 POP POP SWAP3 POP SWAP3 SWAP1 POP JUMP JUMPDEST PUSH2 0x110 DUP2 PUSH2 0x91 JUMP JUMPDEST DUP3 MSTORE POP POP JUMP JUMPDEST PUSH1 0x0 PUSH1 0x20 DUP3 ADD SWAP1 POP PUSH2 0x12B PUSH1 0x0 DUP4 ADD DUP5 PUSH2 0x107 JUMP JUMPDEST SWAP3 SWAP2 POP POP JUMP JUMPDEST PUSH32 0x4E487B7100000000000000000000000000000000000000000000000000000000 PUSH1 0x0 MSTORE PUSH1 0x11 PUSH1 0x4 MSTORE PUSH1 0x24 PUSH1 0x0 REVERT JUMPDEST PUSH1 0x0 PUSH2 0x16B DUP3 PUSH2 0x91 JUMP JUMPDEST SWAP2 POP PUSH2 0x176 DUP4 PUSH2 0x91 JUMP JUMPDEST SWAP3 POP DUP2 PUSH32 0xFFFFFFFFFFFFFFFFFFFFFFFFFFFFFFFFFFFFFFFFFFFFFFFFFFFFFFFFFFFFFFFF DIV DUP4 GT DUP3 ISZERO ISZERO AND ISZERO PUSH2 0x1AF JUMPI PUSH2 0x1AE PUSH2 0x131 JUMP JUMPDEST JUMPDEST DUP3 DUP3 MUL SWAP1 POP SWAP3 SWAP2 POP POP JUMP JUMPDEST PUSH32 0x4E487B7100000000000000000000000000000000000000000000000000000000 PUSH1 0x0 MSTORE PUSH1 0x12 PUSH1 0x4 MSTORE PUSH1 0x24 PUSH1 0x0 REVERT JUMPDEST PUSH1 0x0 PUSH2 0x1F4 DUP3 PUSH2 0x91 JUMP JUMPDEST SWAP2 POP PUSH2 0x1FF DUP4 PUSH2 0x91 JUMP JUMPDEST SWAP3 POP DUP3 PUSH2 0x20F JUMPI PUSH2 0x20E PUSH2 0x1BA JUMP JUMPDEST JUMPDEST DUP3 DUP3 DIV SWAP1 POP SWAP3 SWAP2 POP POP JUMP INVALID LOG2 PUSH5 0x6970667358 0x22 SLT KECCAK256 DUP8 0xCD JUMPI 0xC1 0xCE PUSH23 0x52D8D3BBF20EFA4FC21BA327D5FF6F0A1F4A33D8D3B16C DUP15 CHAINID 0x4D PUSH5 0x736F6C6343 STOP ADDMOD 0xD STOP CALLER "
				},
				"gasEstimates": {
					"creation": {
						"codeDepositCost": "118400",
						"executionCost": "190",
						"totalCost": "118590"
					},
					"external": {
						"calcPercentage(uint256,uint256)": "infinite"
					}
				},
				"methodIdentifiers": {
					"calcPercentage(uint256,uint256)": "a37b06d4"
				}
			},
			"storageLayout": {
				"storage": [],
				"types": null
			},
			"userdoc": {
				"kind": "user",
				"methods": {},
				"version": 1
			}
		}
	}
}