{
	"contracts/Contract3October/Coba2.sol": {
		"Coba2": {
			"abi": [
				{
					"inputs": [
						{
							"internalType": "string",
							"name": "_name",
							"type": "string"
						}
					],
					"name": "addName",
					"outputs": [],
					"stateMutability": "nonpayable",
					"type": "function"
				},
				{
					"inputs": [
						{
							"internalType": "string",
							"name": "_name",
							"type": "string"
						}
					],
					"name": "isNameExist",
					"outputs": [
						{
							"internalType": "bool",
							"name": "",
							"type": "bool"
						}
					],
					"stateMutability": "view",
					"type": "function"
				},
				{
					"inputs": [
						{
							"internalType": "uint256",
							"name": "",
							"type": "uint256"
						}
					],
					"name": "name",
					"outputs": [
						{
							"internalType": "string",
							"name": "",
							"type": "string"
						}
					],
					"stateMutability": "view",
					"type": "function"
				},
				{
					"inputs": [
						{
							"internalType": "string",
							"name": "",
							"type": "string"
						}
					],
					"name": "nameIndex",
					"outputs": [
						{
							"internalType": "uint256",
							"name": "",
							"type": "uint256"
						}
					],
					"stateMutability": "view",
					"type": "function"
				},
				{
					"inputs": [],
					"name": "nameLength",
					"outputs": [
						{
							"internalType": "uint256",
							"name": "",
							"type": "uint256"
						}
					],
					"stateMutability": "view",
					"type": "function"
				},
				{
					"inputs": [],
					"name": "owner",
					"outputs": [
						{
							"internalType": "address",
							"name": "",
							"type": "address"
						}
					],
					"stateMutability": "view",
					"type": "function"
				},
				{
					"inputs": [
						{
							"internalType": "string",
							"name": "_name",
							"type": "string"
						}
					],
					"name": "removeName",
					"outputs": [],
					"stateMutability": "nonpayable",
					"type": "function"
				}
			],
			"devdoc": {
				"kind": "dev",
				"methods": {},
				"version": 1
			},
			"evm": {
				"assembly": "    /* \"contracts/Contract3October/Coba2.sol\":62:1382  contract Coba2 {... */\n  mstore(0x40, 0x80)\n    /* \"contracts/Contract3October/Coba2.sol\":107:149  0x5B38Da6a701c568545dCfcB03FcB875f56beddC4 */\n  0x5b38da6a701c568545dcfcb03fcb875f56beddc4\n    /* \"contracts/Contract3October/Coba2.sol\":84:149  address public owner = 0x5B38Da6a701c568545dCfcB03FcB875f56beddC4 */\n  0x00\n  dup1\n  0x0100\n  exp\n  dup2\n  sload\n  dup2\n  0xffffffffffffffffffffffffffffffffffffffff\n  mul\n  not\n  and\n  swap1\n  dup4\n  0xffffffffffffffffffffffffffffffffffffffff\n  and\n  mul\n  or\n  swap1\n  sstore\n  pop\n    /* \"contracts/Contract3October/Coba2.sol\":62:1382  contract Coba2 {... */\n  callvalue\n  dup1\n  iszero\n  tag_1\n  jumpi\n  0x00\n  dup1\n  revert\ntag_1:\n  pop\n  dataSize(sub_0)\n  dup1\n  dataOffset(sub_0)\n  0x00\n  codecopy\n  0x00\n  return\nstop\n\nsub_0: assembly {\n        /* \"contracts/Contract3October/Coba2.sol\":62:1382  contract Coba2 {... */\n      mstore(0x40, 0x80)\n      callvalue\n      dup1\n      iszero\n      tag_1\n      jumpi\n      0x00\n      dup1\n      revert\n    tag_1:\n      pop\n      jumpi(tag_2, lt(calldatasize, 0x04))\n      shr(0xe0, calldataload(0x00))\n      dup1\n      0x6a43aae7\n      gt\n      tag_10\n      jumpi\n      dup1\n      0x6a43aae7\n      eq\n      tag_6\n      jumpi\n      dup1\n      0x8da5cb5b\n      eq\n      tag_7\n      jumpi\n      dup1\n      0xc3fcf9d3\n      eq\n      tag_8\n      jumpi\n      dup1\n      0xe5a27979\n      eq\n      tag_9\n      jumpi\n      jump(tag_2)\n    tag_10:\n      dup1\n      0xad800c\n      eq\n      tag_3\n      jumpi\n      dup1\n      0x11456b47\n      eq\n      tag_4\n      jumpi\n      dup1\n      0x2f5d3a04\n      eq\n      tag_5\n      jumpi\n    tag_2:\n      0x00\n      dup1\n      revert\n        /* \"contracts/Contract3October/Coba2.sol\":158:178  string[] public name */\n    tag_3:\n      tag_11\n      0x04\n      dup1\n      calldatasize\n      sub\n      dup2\n      add\n      swap1\n      tag_12\n      swap2\n      swap1\n      tag_13\n      jump\t// in\n    tag_12:\n      tag_14\n      jump\t// in\n    tag_11:\n      mload(0x40)\n      tag_15\n      swap2\n      swap1\n      tag_16\n      jump\t// in\n    tag_15:\n      mload(0x40)\n      dup1\n      swap2\n      sub\n      swap1\n      return\n        /* \"contracts/Contract3October/Coba2.sol\":237:363  function addName(string calldata _name) external {... */\n    tag_4:\n      tag_17\n      0x04\n      dup1\n      calldatasize\n      sub\n      dup2\n      add\n      swap1\n      tag_18\n      swap2\n      swap1\n      tag_19\n      jump\t// in\n    tag_18:\n      tag_20\n      jump\t// in\n    tag_17:\n      stop\n        /* \"contracts/Contract3October/Coba2.sol\":371:459  function nameLength() public view returns(uint256) {... */\n    tag_5:\n      tag_21\n      tag_22\n      jump\t// in\n    tag_21:\n      mload(0x40)\n      tag_23\n      swap2\n      swap1\n      tag_24\n      jump\t// in\n    tag_23:\n      mload(0x40)\n      dup1\n      swap2\n      sub\n      swap1\n      return\n        /* \"contracts/Contract3October/Coba2.sol\":929:1379  function removeName(string calldata _name) external {... */\n    tag_6:\n      tag_25\n      0x04\n      dup1\n      calldatasize\n      sub\n      dup2\n      add\n      swap1\n      tag_26\n      swap2\n      swap1\n      tag_19\n      jump\t// in\n    tag_26:\n      tag_27\n      jump\t// in\n    tag_25:\n      stop\n        /* \"contracts/Contract3October/Coba2.sol\":84:149  address public owner = 0x5B38Da6a701c568545dCfcB03FcB875f56beddC4 */\n    tag_7:\n      tag_28\n      tag_29\n      jump\t// in\n    tag_28:\n      mload(0x40)\n      tag_30\n      swap2\n      swap1\n      tag_31\n      jump\t// in\n    tag_30:\n      mload(0x40)\n      dup1\n      swap2\n      sub\n      swap1\n      return\n        /* \"contracts/Contract3October/Coba2.sol\":571:921  function isNameExist(string calldata _name) public view returns(bool){... */\n    tag_8:\n      tag_32\n      0x04\n      dup1\n      calldatasize\n      sub\n      dup2\n      add\n      swap1\n      tag_33\n      swap2\n      swap1\n      tag_19\n      jump\t// in\n    tag_33:\n      tag_34\n      jump\t// in\n    tag_32:\n      mload(0x40)\n      tag_35\n      swap2\n      swap1\n      tag_36\n      jump\t// in\n    tag_35:\n      mload(0x40)\n      dup1\n      swap2\n      sub\n      swap1\n      return\n        /* \"contracts/Contract3October/Coba2.sol\":185:228  mapping(string => uint256) public nameIndex */\n    tag_9:\n      tag_37\n      0x04\n      dup1\n      calldatasize\n      sub\n      dup2\n      add\n      swap1\n      tag_38\n      swap2\n      swap1\n      tag_39\n      jump\t// in\n    tag_38:\n      tag_40\n      jump\t// in\n    tag_37:\n      mload(0x40)\n      tag_41\n      swap2\n      swap1\n      tag_24\n      jump\t// in\n    tag_41:\n      mload(0x40)\n      dup1\n      swap2\n      sub\n      swap1\n      return\n        /* \"contracts/Contract3October/Coba2.sol\":158:178  string[] public name */\n    tag_14:\n      0x01\n      dup2\n      dup2\n      sload\n      dup2\n      lt\n      tag_42\n      jumpi\n      0x00\n      dup1\n      revert\n    tag_42:\n      swap1\n      0x00\n      mstore\n      keccak256(0x00, 0x20)\n      add\n      0x00\n      swap2\n      pop\n      swap1\n      pop\n      dup1\n      sload\n      tag_44\n      swap1\n      tag_45\n      jump\t// in\n    tag_44:\n      dup1\n      0x1f\n      add\n      0x20\n      dup1\n      swap2\n      div\n      mul\n      0x20\n      add\n      mload(0x40)\n      swap1\n      dup2\n      add\n      0x40\n      mstore\n      dup1\n      swap3\n      swap2\n      swap1\n      dup2\n      dup2\n      mstore\n      0x20\n      add\n      dup3\n      dup1\n      sload\n      tag_46\n      swap1\n      tag_45\n      jump\t// in\n    tag_46:\n      dup1\n      iszero\n      tag_47\n      jumpi\n      dup1\n      0x1f\n      lt\n      tag_48\n      jumpi\n      0x0100\n      dup1\n      dup4\n      sload\n      div\n      mul\n      dup4\n      mstore\n      swap2\n      0x20\n      add\n      swap2\n      jump(tag_47)\n    tag_48:\n      dup3\n      add\n      swap2\n      swap1\n      0x00\n      mstore\n      keccak256(0x00, 0x20)\n      swap1\n    tag_49:\n      dup2\n      sload\n      dup2\n      mstore\n      swap1\n      0x01\n      add\n      swap1\n      0x20\n      add\n      dup1\n      dup4\n      gt\n      tag_49\n      jumpi\n      dup3\n      swap1\n      sub\n      0x1f\n      and\n      dup3\n      add\n      swap2\n    tag_47:\n      pop\n      pop\n      pop\n      pop\n      pop\n      dup2\n      jump\t// out\n        /* \"contracts/Contract3October/Coba2.sol\":237:363  function addName(string calldata _name) external {... */\n    tag_20:\n        /* \"contracts/Contract3October/Coba2.sol\":316:328  nameLength() */\n      tag_51\n        /* \"contracts/Contract3October/Coba2.sol\":316:326  nameLength */\n      tag_22\n        /* \"contracts/Contract3October/Coba2.sol\":316:328  nameLength() */\n      jump\t// in\n    tag_51:\n        /* \"contracts/Contract3October/Coba2.sol\":297:306  nameIndex */\n      0x02\n        /* \"contracts/Contract3October/Coba2.sol\":307:312  _name */\n      dup4\n      dup4\n        /* \"contracts/Contract3October/Coba2.sol\":297:313  nameIndex[_name] */\n      mload(0x40)\n      tag_52\n      swap3\n      swap2\n      swap1\n      tag_53\n      jump\t// in\n    tag_52:\n      swap1\n      dup2\n      mstore\n      0x20\n      add\n      mload(0x40)\n      dup1\n      swap2\n      sub\n      swap1\n      keccak256\n        /* \"contracts/Contract3October/Coba2.sol\":297:328  nameIndex[_name] = nameLength() */\n      dup2\n      swap1\n      sstore\n      pop\n        /* \"contracts/Contract3October/Coba2.sol\":339:343  name */\n      0x01\n        /* \"contracts/Contract3October/Coba2.sol\":349:354  _name */\n      dup3\n      dup3\n        /* \"contracts/Contract3October/Coba2.sol\":339:355  name.push(_name) */\n      swap1\n      swap2\n      dup1\n      0x01\n      dup2\n      sload\n      add\n      dup1\n      dup3\n      sstore\n      dup1\n      swap2\n      pop\n      pop\n      0x01\n      swap1\n      sub\n      swap1\n      0x00\n      mstore\n      keccak256(0x00, 0x20)\n      add\n      0x00\n      swap1\n      swap2\n      swap3\n      swap1\n      swap2\n      swap3\n      swap1\n      swap2\n      swap3\n      swap1\n      swap2\n      swap3\n      pop\n      swap2\n      swap1\n      tag_55\n      swap3\n      swap2\n      swap1\n      tag_56\n      jump\t// in\n    tag_55:\n      pop\n        /* \"contracts/Contract3October/Coba2.sol\":237:363  function addName(string calldata _name) external {... */\n      pop\n      pop\n      jump\t// out\n        /* \"contracts/Contract3October/Coba2.sol\":371:459  function nameLength() public view returns(uint256) {... */\n    tag_22:\n        /* \"contracts/Contract3October/Coba2.sol\":413:420  uint256 */\n      0x00\n        /* \"contracts/Contract3October/Coba2.sol\":440:444  name */\n      0x01\n        /* \"contracts/Contract3October/Coba2.sol\":440:451  name.length */\n      dup1\n      sload\n      swap1\n      pop\n        /* \"contracts/Contract3October/Coba2.sol\":433:451  return name.length */\n      swap1\n      pop\n        /* \"contracts/Contract3October/Coba2.sol\":371:459  function nameLength() public view returns(uint256) {... */\n      swap1\n      jump\t// out\n        /* \"contracts/Contract3October/Coba2.sol\":929:1379  function removeName(string calldata _name) external {... */\n    tag_27:\n        /* \"contracts/Contract3October/Coba2.sol\":992:1001  isOwner() */\n      tag_59\n        /* \"contracts/Contract3October/Coba2.sol\":992:999  isOwner */\n      tag_60\n        /* \"contracts/Contract3October/Coba2.sol\":992:1001  isOwner() */\n      jump\t// in\n    tag_59:\n        /* \"contracts/Contract3October/Coba2.sol\":1044:1045  0 */\n      0x00\n        /* \"contracts/Contract3October/Coba2.sol\":1030:1034  name */\n      0x01\n        /* \"contracts/Contract3October/Coba2.sol\":1030:1041  name.length */\n      dup1\n      sload\n      swap1\n      pop\n        /* \"contracts/Contract3October/Coba2.sol\":1030:1045  name.length > 0 */\n      gt\n        /* \"contracts/Contract3October/Coba2.sol\":1022:1057  require(name.length > 0, \"no list\") */\n      tag_61\n      jumpi\n      mload(0x40)\n      0x08c379a000000000000000000000000000000000000000000000000000000000\n      dup2\n      mstore\n      0x04\n      add\n      tag_62\n      swap1\n      tag_63\n      jump\t// in\n    tag_62:\n      mload(0x40)\n      dup1\n      swap2\n      sub\n      swap1\n      revert\n    tag_61:\n        /* \"contracts/Contract3October/Coba2.sol\":1076:1094  isNameExist(_name) */\n      tag_64\n        /* \"contracts/Contract3October/Coba2.sol\":1088:1093  _name */\n      dup3\n      dup3\n        /* \"contracts/Contract3October/Coba2.sol\":1076:1087  isNameExist */\n      tag_34\n        /* \"contracts/Contract3October/Coba2.sol\":1076:1094  isNameExist(_name) */\n      jump\t// in\n    tag_64:\n        /* \"contracts/Contract3October/Coba2.sol\":1068:1108  require(isNameExist(_name), \"not found\") */\n      tag_65\n      jumpi\n      mload(0x40)\n      0x08c379a000000000000000000000000000000000000000000000000000000000\n      dup2\n      mstore\n      0x04\n      add\n      tag_66\n      swap1\n      tag_67\n      jump\t// in\n    tag_66:\n      mload(0x40)\n      dup1\n      swap2\n      sub\n      swap1\n      revert\n    tag_65:\n        /* \"contracts/Contract3October/Coba2.sol\":1121:1142  uint256 indexToRemove */\n      0x00\n        /* \"contracts/Contract3October/Coba2.sol\":1145:1154  nameIndex */\n      0x02\n        /* \"contracts/Contract3October/Coba2.sol\":1155:1160  _name */\n      dup4\n      dup4\n        /* \"contracts/Contract3October/Coba2.sol\":1145:1161  nameIndex[_name] */\n      mload(0x40)\n      tag_68\n      swap3\n      swap2\n      swap1\n      tag_53\n      jump\t// in\n    tag_68:\n      swap1\n      dup2\n      mstore\n      0x20\n      add\n      mload(0x40)\n      dup1\n      swap2\n      sub\n      swap1\n      keccak256\n      sload\n        /* \"contracts/Contract3October/Coba2.sol\":1121:1161  uint256 indexToRemove = nameIndex[_name] */\n      swap1\n      pop\n        /* \"contracts/Contract3October/Coba2.sol\":1172:1196  string memory nameToMove */\n      0x00\n        /* \"contracts/Contract3October/Coba2.sol\":1199:1203  name */\n      0x01\n        /* \"contracts/Contract3October/Coba2.sol\":1219:1220  1 */\n      dup1\n        /* \"contracts/Contract3October/Coba2.sol\":1204:1216  nameLength() */\n      tag_69\n        /* \"contracts/Contract3October/Coba2.sol\":1204:1214  nameLength */\n      tag_22\n        /* \"contracts/Contract3October/Coba2.sol\":1204:1216  nameLength() */\n      jump\t// in\n    tag_69:\n        /* \"contracts/Contract3October/Coba2.sol\":1204:1220  nameLength() - 1 */\n      tag_70\n      swap2\n      swap1\n      tag_71\n      jump\t// in\n    tag_70:\n        /* \"contracts/Contract3October/Coba2.sol\":1199:1221  name[nameLength() - 1] */\n      dup2\n      sload\n      dup2\n      lt\n      tag_72\n      jumpi\n      tag_73\n      tag_74\n      jump\t// in\n    tag_73:\n    tag_72:\n      swap1\n      0x00\n      mstore\n      keccak256(0x00, 0x20)\n      add\n        /* \"contracts/Contract3October/Coba2.sol\":1172:1221  string memory nameToMove = name[nameLength() - 1] */\n      dup1\n      sload\n      tag_76\n      swap1\n      tag_45\n      jump\t// in\n    tag_76:\n      dup1\n      0x1f\n      add\n      0x20\n      dup1\n      swap2\n      div\n      mul\n      0x20\n      add\n      mload(0x40)\n      swap1\n      dup2\n      add\n      0x40\n      mstore\n      dup1\n      swap3\n      swap2\n      swap1\n      dup2\n      dup2\n      mstore\n      0x20\n      add\n      dup3\n      dup1\n      sload\n      tag_77\n      swap1\n      tag_45\n      jump\t// in\n    tag_77:\n      dup1\n      iszero\n      tag_78\n      jumpi\n      dup1\n      0x1f\n      lt\n      tag_79\n      jumpi\n      0x0100\n      dup1\n      dup4\n      sload\n      div\n      mul\n      dup4\n      mstore\n      swap2\n      0x20\n      add\n      swap2\n      jump(tag_78)\n    tag_79:\n      dup3\n      add\n      swap2\n      swap1\n      0x00\n      mstore\n      keccak256(0x00, 0x20)\n      swap1\n    tag_80:\n      dup2\n      sload\n      dup2\n      mstore\n      swap1\n      0x01\n      add\n      swap1\n      0x20\n      add\n      dup1\n      dup4\n      gt\n      tag_80\n      jumpi\n      dup3\n      swap1\n      sub\n      0x1f\n      and\n      dup3\n      add\n      swap2\n    tag_78:\n      pop\n      pop\n      pop\n      pop\n      pop\n      swap1\n      pop\n        /* \"contracts/Contract3October/Coba2.sol\":1256:1266  nameToMove */\n      dup1\n        /* \"contracts/Contract3October/Coba2.sol\":1234:1238  name */\n      0x01\n        /* \"contracts/Contract3October/Coba2.sol\":1239:1252  indexToRemove */\n      dup4\n        /* \"contracts/Contract3October/Coba2.sol\":1234:1253  name[indexToRemove] */\n      dup2\n      sload\n      dup2\n      lt\n      tag_81\n      jumpi\n      tag_82\n      tag_74\n      jump\t// in\n    tag_82:\n    tag_81:\n      swap1\n      0x00\n      mstore\n      keccak256(0x00, 0x20)\n      add\n        /* \"contracts/Contract3October/Coba2.sol\":1234:1266  name[indexToRemove] = nameToMove */\n      swap1\n      dup1\n      mload\n      swap1\n      0x20\n      add\n      swap1\n      tag_84\n      swap3\n      swap2\n      swap1\n      tag_85\n      jump\t// in\n    tag_84:\n      pop\n        /* \"contracts/Contract3October/Coba2.sol\":1301:1314  indexToRemove */\n      dup2\n        /* \"contracts/Contract3October/Coba2.sol\":1277:1286  nameIndex */\n      0x02\n        /* \"contracts/Contract3October/Coba2.sol\":1287:1297  nameToMove */\n      dup3\n        /* \"contracts/Contract3October/Coba2.sol\":1277:1298  nameIndex[nameToMove] */\n      mload(0x40)\n      tag_86\n      swap2\n      swap1\n      tag_87\n      jump\t// in\n    tag_86:\n      swap1\n      dup2\n      mstore\n      0x20\n      add\n      mload(0x40)\n      dup1\n      swap2\n      sub\n      swap1\n      keccak256\n        /* \"contracts/Contract3October/Coba2.sol\":1277:1314  nameIndex[nameToMove] = indexToRemove */\n      dup2\n      swap1\n      sstore\n      pop\n        /* \"contracts/Contract3October/Coba2.sol\":1334:1343  nameIndex */\n      0x02\n        /* \"contracts/Contract3October/Coba2.sol\":1344:1349  _name */\n      dup5\n      dup5\n        /* \"contracts/Contract3October/Coba2.sol\":1334:1350  nameIndex[_name] */\n      mload(0x40)\n      tag_88\n      swap3\n      swap2\n      swap1\n      tag_53\n      jump\t// in\n    tag_88:\n      swap1\n      dup2\n      mstore\n      0x20\n      add\n      mload(0x40)\n      dup1\n      swap2\n      sub\n      swap1\n      keccak256\n        /* \"contracts/Contract3October/Coba2.sol\":1327:1350  delete nameIndex[_name] */\n      0x00\n      swap1\n      sstore\n        /* \"contracts/Contract3October/Coba2.sol\":1361:1365  name */\n      0x01\n        /* \"contracts/Contract3October/Coba2.sol\":1361:1371  name.pop() */\n      dup1\n      sload\n      dup1\n      tag_89\n      jumpi\n      tag_90\n      tag_91\n      jump\t// in\n    tag_90:\n    tag_89:\n      0x01\n      swap1\n      sub\n      dup2\n      dup2\n      swap1\n      0x00\n      mstore\n      keccak256(0x00, 0x20)\n      add\n      0x00\n      tag_93\n      swap2\n      swap1\n      tag_94\n      jump\t// in\n    tag_93:\n      swap1\n      sstore\n        /* \"contracts/Contract3October/Coba2.sol\":981:1379  {... */\n      pop\n      pop\n        /* \"contracts/Contract3October/Coba2.sol\":929:1379  function removeName(string calldata _name) external {... */\n      pop\n      pop\n      jump\t// out\n        /* \"contracts/Contract3October/Coba2.sol\":84:149  address public owner = 0x5B38Da6a701c568545dCfcB03FcB875f56beddC4 */\n    tag_29:\n      0x00\n      dup1\n      sload\n      swap1\n      0x0100\n      exp\n      swap1\n      div\n      0xffffffffffffffffffffffffffffffffffffffff\n      and\n      dup2\n      jump\t// out\n        /* \"contracts/Contract3October/Coba2.sol\":571:921  function isNameExist(string calldata _name) public view returns(bool){... */\n    tag_34:\n        /* \"contracts/Contract3October/Coba2.sol\":635:639  bool */\n      0x00\n        /* \"contracts/Contract3October/Coba2.sol\":670:671  0 */\n      dup1\n        /* \"contracts/Contract3October/Coba2.sol\":655:659  name */\n      0x01\n        /* \"contracts/Contract3October/Coba2.sol\":655:666  name.length */\n      dup1\n      sload\n      swap1\n      pop\n        /* \"contracts/Contract3October/Coba2.sol\":655:671  name.length == 0 */\n      sub\n        /* \"contracts/Contract3October/Coba2.sol\":651:712  if (name.length == 0) {... */\n      tag_96\n      jumpi\n        /* \"contracts/Contract3October/Coba2.sol\":695:700  false */\n      0x00\n        /* \"contracts/Contract3October/Coba2.sol\":688:700  return false */\n      swap1\n      pop\n      jump(tag_95)\n        /* \"contracts/Contract3October/Coba2.sol\":651:712  if (name.length == 0) {... */\n    tag_96:\n        /* \"contracts/Contract3October/Coba2.sol\":732:750  uint256 _nameIndex */\n      0x00\n        /* \"contracts/Contract3October/Coba2.sol\":753:762  nameIndex */\n      0x02\n        /* \"contracts/Contract3October/Coba2.sol\":763:768  _name */\n      dup5\n      dup5\n        /* \"contracts/Contract3October/Coba2.sol\":753:769  nameIndex[_name] */\n      mload(0x40)\n      tag_97\n      swap3\n      swap2\n      swap1\n      tag_53\n      jump\t// in\n    tag_97:\n      swap1\n      dup2\n      mstore\n      0x20\n      add\n      mload(0x40)\n      dup1\n      swap2\n      sub\n      swap1\n      keccak256\n      sload\n        /* \"contracts/Contract3October/Coba2.sol\":732:769  uint256 _nameIndex = nameIndex[_name] */\n      swap1\n      pop\n        /* \"contracts/Contract3October/Coba2.sol\":795:819  string memory _fetchName */\n      0x00\n        /* \"contracts/Contract3October/Coba2.sol\":822:826  name */\n      0x01\n        /* \"contracts/Contract3October/Coba2.sol\":827:837  _nameIndex */\n      dup3\n        /* \"contracts/Contract3October/Coba2.sol\":822:838  name[_nameIndex] */\n      dup2\n      sload\n      dup2\n      lt\n      tag_98\n      jumpi\n      tag_99\n      tag_74\n      jump\t// in\n    tag_99:\n    tag_98:\n      swap1\n      0x00\n      mstore\n      keccak256(0x00, 0x20)\n      add\n        /* \"contracts/Contract3October/Coba2.sol\":795:838  string memory _fetchName = name[_nameIndex] */\n      dup1\n      sload\n      tag_101\n      swap1\n      tag_45\n      jump\t// in\n    tag_101:\n      dup1\n      0x1f\n      add\n      0x20\n      dup1\n      swap2\n      div\n      mul\n      0x20\n      add\n      mload(0x40)\n      swap1\n      dup2\n      add\n      0x40\n      mstore\n      dup1\n      swap3\n      swap2\n      swap1\n      dup2\n      dup2\n      mstore\n      0x20\n      add\n      dup3\n      dup1\n      sload\n      tag_102\n      swap1\n      tag_45\n      jump\t// in\n    tag_102:\n      dup1\n      iszero\n      tag_103\n      jumpi\n      dup1\n      0x1f\n      lt\n      tag_104\n      jumpi\n      0x0100\n      dup1\n      dup4\n      sload\n      div\n      mul\n      dup4\n      mstore\n      swap2\n      0x20\n      add\n      swap2\n      jump(tag_103)\n    tag_104:\n      dup3\n      add\n      swap2\n      swap1\n      0x00\n      mstore\n      keccak256(0x00, 0x20)\n      swap1\n    tag_105:\n      dup2\n      sload\n      dup2\n      mstore\n      swap1\n      0x01\n      add\n      swap1\n      0x20\n      add\n      dup1\n      dup4\n      gt\n      tag_105\n      jumpi\n      dup3\n      swap1\n      sub\n      0x1f\n      and\n      dup3\n      add\n      swap2\n    tag_103:\n      pop\n      pop\n      pop\n      pop\n      pop\n      swap1\n      pop\n        /* \"contracts/Contract3October/Coba2.sol\":906:911  _name */\n      dup5\n      dup5\n        /* \"contracts/Contract3October/Coba2.sol\":890:913  keccak256(bytes(_name)) */\n      mload(0x40)\n      tag_106\n      swap3\n      swap2\n      swap1\n      tag_107\n      jump\t// in\n    tag_106:\n      mload(0x40)\n      dup1\n      swap2\n      sub\n      swap1\n      keccak256\n        /* \"contracts/Contract3October/Coba2.sol\":874:884  _fetchName */\n      dup2\n        /* \"contracts/Contract3October/Coba2.sol\":858:886  keccak256(bytes(_fetchName)) */\n      dup1\n      mload\n      swap1\n      0x20\n      add\n      keccak256\n        /* \"contracts/Contract3October/Coba2.sol\":858:913  keccak256(bytes(_fetchName)) == keccak256(bytes(_name)) */\n      eq\n        /* \"contracts/Contract3October/Coba2.sol\":851:913  return keccak256(bytes(_fetchName)) == keccak256(bytes(_name)) */\n      swap3\n      pop\n      pop\n      pop\n        /* \"contracts/Contract3October/Coba2.sol\":571:921  function isNameExist(string calldata _name) public view returns(bool){... */\n    tag_95:\n      swap3\n      swap2\n      pop\n      pop\n      jump\t// out\n        /* \"contracts/Contract3October/Coba2.sol\":185:228  mapping(string => uint256) public nameIndex */\n    tag_40:\n      0x02\n      dup2\n      dup1\n      mload\n      0x20\n      dup2\n      add\n      dup3\n      add\n      dup1\n      mload\n      dup5\n      dup3\n      mstore\n      0x20\n      dup4\n      add\n      0x20\n      dup6\n      add\n      keccak256\n      dup2\n      dup4\n      mstore\n      dup1\n      swap6\n      pop\n      pop\n      pop\n      pop\n      pop\n      pop\n      0x00\n      swap2\n      pop\n      swap1\n      pop\n      sload\n      dup2\n      jump\t// out\n        /* \"contracts/Contract3October/Coba2.sol\":467:563  function isOwner() internal view {... */\n    tag_60:\n        /* \"contracts/Contract3October/Coba2.sol\":533:538  owner */\n      0x00\n      dup1\n      sload\n      swap1\n      0x0100\n      exp\n      swap1\n      div\n      0xffffffffffffffffffffffffffffffffffffffff\n      and\n        /* \"contracts/Contract3October/Coba2.sol\":519:538  msg.sender == owner */\n      0xffffffffffffffffffffffffffffffffffffffff\n      and\n        /* \"contracts/Contract3October/Coba2.sol\":519:529  msg.sender */\n      caller\n        /* \"contracts/Contract3October/Coba2.sol\":519:538  msg.sender == owner */\n      0xffffffffffffffffffffffffffffffffffffffff\n      and\n      eq\n        /* \"contracts/Contract3October/Coba2.sol\":511:555  require(msg.sender == owner, \"unauthorized\") */\n      tag_109\n      jumpi\n      mload(0x40)\n      0x08c379a000000000000000000000000000000000000000000000000000000000\n      dup2\n      mstore\n      0x04\n      add\n      tag_110\n      swap1\n      tag_111\n      jump\t// in\n    tag_110:\n      mload(0x40)\n      dup1\n      swap2\n      sub\n      swap1\n      revert\n    tag_109:\n        /* \"contracts/Contract3October/Coba2.sol\":467:563  function isOwner() internal view {... */\n      jump\t// out\n    tag_56:\n      dup3\n      dup1\n      sload\n      tag_112\n      swap1\n      tag_45\n      jump\t// in\n    tag_112:\n      swap1\n      0x00\n      mstore\n      keccak256(0x00, 0x20)\n      swap1\n      0x1f\n      add\n      0x20\n      swap1\n      div\n      dup2\n      add\n      swap3\n      dup3\n      tag_114\n      jumpi\n      0x00\n      dup6\n      sstore\n      jump(tag_113)\n    tag_114:\n      dup3\n      0x1f\n      lt\n      tag_115\n      jumpi\n      dup1\n      calldataload\n      not(0xff)\n      and\n      dup4\n      dup1\n      add\n      or\n      dup6\n      sstore\n      jump(tag_113)\n    tag_115:\n      dup3\n      dup1\n      add\n      0x01\n      add\n      dup6\n      sstore\n      dup3\n      iszero\n      tag_113\n      jumpi\n      swap2\n      dup3\n      add\n    tag_116:\n      dup3\n      dup2\n      gt\n      iszero\n      tag_117\n      jumpi\n      dup3\n      calldataload\n      dup3\n      sstore\n      swap2\n      0x20\n      add\n      swap2\n      swap1\n      0x01\n      add\n      swap1\n      jump(tag_116)\n    tag_117:\n    tag_113:\n      pop\n      swap1\n      pop\n      tag_118\n      swap2\n      swap1\n      tag_119\n      jump\t// in\n    tag_118:\n      pop\n      swap1\n      jump\t// out\n    tag_85:\n      dup3\n      dup1\n      sload\n      tag_120\n      swap1\n      tag_45\n      jump\t// in\n    tag_120:\n      swap1\n      0x00\n      mstore\n      keccak256(0x00, 0x20)\n      swap1\n      0x1f\n      add\n      0x20\n      swap1\n      div\n      dup2\n      add\n      swap3\n      dup3\n      tag_122\n      jumpi\n      0x00\n      dup6\n      sstore\n      jump(tag_121)\n    tag_122:\n      dup3\n      0x1f\n      lt\n      tag_123\n      jumpi\n      dup1\n      mload\n      not(0xff)\n      and\n      dup4\n      dup1\n      add\n      or\n      dup6\n      sstore\n      jump(tag_121)\n    tag_123:\n      dup3\n      dup1\n      add\n      0x01\n      add\n      dup6\n      sstore\n      dup3\n      iszero\n      tag_121\n      jumpi\n      swap2\n      dup3\n      add\n    tag_124:\n      dup3\n      dup2\n      gt\n      iszero\n      tag_125\n      jumpi\n      dup3\n      mload\n      dup3\n      sstore\n      swap2\n      0x20\n      add\n      swap2\n      swap1\n      0x01\n      add\n      swap1\n      jump(tag_124)\n    tag_125:\n    tag_121:\n      pop\n      swap1\n      pop\n      tag_126\n      swap2\n      swap1\n      tag_119\n      jump\t// in\n    tag_126:\n      pop\n      swap1\n      jump\t// out\n    tag_94:\n      pop\n      dup1\n      sload\n      tag_127\n      swap1\n      tag_45\n      jump\t// in\n    tag_127:\n      0x00\n      dup3\n      sstore\n      dup1\n      0x1f\n      lt\n      tag_129\n      jumpi\n      pop\n      jump(tag_128)\n    tag_129:\n      0x1f\n      add\n      0x20\n      swap1\n      div\n      swap1\n      0x00\n      mstore\n      keccak256(0x00, 0x20)\n      swap1\n      dup2\n      add\n      swap1\n      tag_130\n      swap2\n      swap1\n      tag_119\n      jump\t// in\n    tag_130:\n    tag_128:\n      pop\n      jump\t// out\n    tag_119:\n    tag_131:\n      dup1\n      dup3\n      gt\n      iszero\n      tag_132\n      jumpi\n      0x00\n      dup2\n      0x00\n      swap1\n      sstore\n      pop\n      0x01\n      add\n      jump(tag_131)\n    tag_132:\n      pop\n      swap1\n      jump\t// out\n        /* \"#utility.yul\":7:82   */\n    tag_133:\n        /* \"#utility.yul\":40:46   */\n      0x00\n        /* \"#utility.yul\":73:75   */\n      0x40\n        /* \"#utility.yul\":67:76   */\n      mload\n        /* \"#utility.yul\":57:76   */\n      swap1\n      pop\n        /* \"#utility.yul\":7:82   */\n      swap1\n      jump\t// out\n        /* \"#utility.yul\":88:205   */\n    tag_134:\n        /* \"#utility.yul\":197:198   */\n      0x00\n        /* \"#utility.yul\":194:195   */\n      dup1\n        /* \"#utility.yul\":187:199   */\n      revert\n        /* \"#utility.yul\":211:328   */\n    tag_135:\n        /* \"#utility.yul\":320:321   */\n      0x00\n        /* \"#utility.yul\":317:318   */\n      dup1\n        /* \"#utility.yul\":310:322   */\n      revert\n        /* \"#utility.yul\":334:411   */\n    tag_136:\n        /* \"#utility.yul\":371:378   */\n      0x00\n        /* \"#utility.yul\":400:405   */\n      dup2\n        /* \"#utility.yul\":389:405   */\n      swap1\n      pop\n        /* \"#utility.yul\":334:411   */\n      swap2\n      swap1\n      pop\n      jump\t// out\n        /* \"#utility.yul\":417:539   */\n    tag_137:\n        /* \"#utility.yul\":490:514   */\n      tag_181\n        /* \"#utility.yul\":508:513   */\n      dup2\n        /* \"#utility.yul\":490:514   */\n      tag_136\n      jump\t// in\n    tag_181:\n        /* \"#utility.yul\":483:488   */\n      dup2\n        /* \"#utility.yul\":480:515   */\n      eq\n        /* \"#utility.yul\":470:533   */\n      tag_182\n      jumpi\n        /* \"#utility.yul\":529:530   */\n      0x00\n        /* \"#utility.yul\":526:527   */\n      dup1\n        /* \"#utility.yul\":519:531   */\n      revert\n        /* \"#utility.yul\":470:533   */\n    tag_182:\n        /* \"#utility.yul\":417:539   */\n      pop\n      jump\t// out\n        /* \"#utility.yul\":545:684   */\n    tag_138:\n        /* \"#utility.yul\":591:596   */\n      0x00\n        /* \"#utility.yul\":629:635   */\n      dup2\n        /* \"#utility.yul\":616:636   */\n      calldataload\n        /* \"#utility.yul\":607:636   */\n      swap1\n      pop\n        /* \"#utility.yul\":645:678   */\n      tag_184\n        /* \"#utility.yul\":672:677   */\n      dup2\n        /* \"#utility.yul\":645:678   */\n      tag_137\n      jump\t// in\n    tag_184:\n        /* \"#utility.yul\":545:684   */\n      swap3\n      swap2\n      pop\n      pop\n      jump\t// out\n        /* \"#utility.yul\":690:1019   */\n    tag_13:\n        /* \"#utility.yul\":749:755   */\n      0x00\n        /* \"#utility.yul\":798:800   */\n      0x20\n        /* \"#utility.yul\":786:795   */\n      dup3\n        /* \"#utility.yul\":777:784   */\n      dup5\n        /* \"#utility.yul\":773:796   */\n      sub\n        /* \"#utility.yul\":769:801   */\n      slt\n        /* \"#utility.yul\":766:885   */\n      iszero\n      tag_186\n      jumpi\n        /* \"#utility.yul\":804:883   */\n      tag_187\n      tag_134\n      jump\t// in\n    tag_187:\n        /* \"#utility.yul\":766:885   */\n    tag_186:\n        /* \"#utility.yul\":924:925   */\n      0x00\n        /* \"#utility.yul\":949:1002   */\n      tag_188\n        /* \"#utility.yul\":994:1001   */\n      dup5\n        /* \"#utility.yul\":985:991   */\n      dup3\n        /* \"#utility.yul\":974:983   */\n      dup6\n        /* \"#utility.yul\":970:992   */\n      add\n        /* \"#utility.yul\":949:1002   */\n      tag_138\n      jump\t// in\n    tag_188:\n        /* \"#utility.yul\":939:1002   */\n      swap2\n      pop\n        /* \"#utility.yul\":895:1012   */\n      pop\n        /* \"#utility.yul\":690:1019   */\n      swap3\n      swap2\n      pop\n      pop\n      jump\t// out\n        /* \"#utility.yul\":1025:1124   */\n    tag_139:\n        /* \"#utility.yul\":1077:1083   */\n      0x00\n        /* \"#utility.yul\":1111:1116   */\n      dup2\n        /* \"#utility.yul\":1105:1117   */\n      mload\n        /* \"#utility.yul\":1095:1117   */\n      swap1\n      pop\n        /* \"#utility.yul\":1025:1124   */\n      swap2\n      swap1\n      pop\n      jump\t// out\n        /* \"#utility.yul\":1130:1299   */\n    tag_140:\n        /* \"#utility.yul\":1214:1225   */\n      0x00\n        /* \"#utility.yul\":1248:1254   */\n      dup3\n        /* \"#utility.yul\":1243:1246   */\n      dup3\n        /* \"#utility.yul\":1236:1255   */\n      mstore\n        /* \"#utility.yul\":1288:1292   */\n      0x20\n        /* \"#utility.yul\":1283:1286   */\n      dup3\n        /* \"#utility.yul\":1279:1293   */\n      add\n        /* \"#utility.yul\":1264:1293   */\n      swap1\n      pop\n        /* \"#utility.yul\":1130:1299   */\n      swap3\n      swap2\n      pop\n      pop\n      jump\t// out\n        /* \"#utility.yul\":1305:1612   */\n    tag_141:\n        /* \"#utility.yul\":1373:1374   */\n      0x00\n        /* \"#utility.yul\":1383:1496   */\n    tag_192:\n        /* \"#utility.yul\":1397:1403   */\n      dup4\n        /* \"#utility.yul\":1394:1395   */\n      dup2\n        /* \"#utility.yul\":1391:1404   */\n      lt\n        /* \"#utility.yul\":1383:1496   */\n      iszero\n      tag_194\n      jumpi\n        /* \"#utility.yul\":1482:1483   */\n      dup1\n        /* \"#utility.yul\":1477:1480   */\n      dup3\n        /* \"#utility.yul\":1473:1484   */\n      add\n        /* \"#utility.yul\":1467:1485   */\n      mload\n        /* \"#utility.yul\":1463:1464   */\n      dup2\n        /* \"#utility.yul\":1458:1461   */\n      dup5\n        /* \"#utility.yul\":1454:1465   */\n      add\n        /* \"#utility.yul\":1447:1486   */\n      mstore\n        /* \"#utility.yul\":1419:1421   */\n      0x20\n        /* \"#utility.yul\":1416:1417   */\n      dup2\n        /* \"#utility.yul\":1412:1422   */\n      add\n        /* \"#utility.yul\":1407:1422   */\n      swap1\n      pop\n        /* \"#utility.yul\":1383:1496   */\n      jump(tag_192)\n    tag_194:\n        /* \"#utility.yul\":1514:1520   */\n      dup4\n        /* \"#utility.yul\":1511:1512   */\n      dup2\n        /* \"#utility.yul\":1508:1521   */\n      gt\n        /* \"#utility.yul\":1505:1606   */\n      iszero\n      tag_195\n      jumpi\n        /* \"#utility.yul\":1594:1595   */\n      0x00\n        /* \"#utility.yul\":1585:1591   */\n      dup5\n        /* \"#utility.yul\":1580:1583   */\n      dup5\n        /* \"#utility.yul\":1576:1592   */\n      add\n        /* \"#utility.yul\":1569:1596   */\n      mstore\n        /* \"#utility.yul\":1505:1606   */\n    tag_195:\n        /* \"#utility.yul\":1354:1612   */\n      pop\n        /* \"#utility.yul\":1305:1612   */\n      pop\n      pop\n      pop\n      jump\t// out\n        /* \"#utility.yul\":1618:1720   */\n    tag_142:\n        /* \"#utility.yul\":1659:1665   */\n      0x00\n        /* \"#utility.yul\":1710:1712   */\n      0x1f\n        /* \"#utility.yul\":1706:1713   */\n      not\n        /* \"#utility.yul\":1701:1703   */\n      0x1f\n        /* \"#utility.yul\":1694:1699   */\n      dup4\n        /* \"#utility.yul\":1690:1704   */\n      add\n        /* \"#utility.yul\":1686:1714   */\n      and\n        /* \"#utility.yul\":1676:1714   */\n      swap1\n      pop\n        /* \"#utility.yul\":1618:1720   */\n      swap2\n      swap1\n      pop\n      jump\t// out\n        /* \"#utility.yul\":1726:2090   */\n    tag_143:\n        /* \"#utility.yul\":1814:1817   */\n      0x00\n        /* \"#utility.yul\":1842:1881   */\n      tag_198\n        /* \"#utility.yul\":1875:1880   */\n      dup3\n        /* \"#utility.yul\":1842:1881   */\n      tag_139\n      jump\t// in\n    tag_198:\n        /* \"#utility.yul\":1897:1968   */\n      tag_199\n        /* \"#utility.yul\":1961:1967   */\n      dup2\n        /* \"#utility.yul\":1956:1959   */\n      dup6\n        /* \"#utility.yul\":1897:1968   */\n      tag_140\n      jump\t// in\n    tag_199:\n        /* \"#utility.yul\":1890:1968   */\n      swap4\n      pop\n        /* \"#utility.yul\":1977:2029   */\n      tag_200\n        /* \"#utility.yul\":2022:2028   */\n      dup2\n        /* \"#utility.yul\":2017:2020   */\n      dup6\n        /* \"#utility.yul\":2010:2014   */\n      0x20\n        /* \"#utility.yul\":2003:2008   */\n      dup7\n        /* \"#utility.yul\":1999:2015   */\n      add\n        /* \"#utility.yul\":1977:2029   */\n      tag_141\n      jump\t// in\n    tag_200:\n        /* \"#utility.yul\":2054:2083   */\n      tag_201\n        /* \"#utility.yul\":2076:2082   */\n      dup2\n        /* \"#utility.yul\":2054:2083   */\n      tag_142\n      jump\t// in\n    tag_201:\n        /* \"#utility.yul\":2049:2052   */\n      dup5\n        /* \"#utility.yul\":2045:2084   */\n      add\n        /* \"#utility.yul\":2038:2084   */\n      swap2\n      pop\n        /* \"#utility.yul\":1818:2090   */\n      pop\n        /* \"#utility.yul\":1726:2090   */\n      swap3\n      swap2\n      pop\n      pop\n      jump\t// out\n        /* \"#utility.yul\":2096:2409   */\n    tag_16:\n        /* \"#utility.yul\":2209:2213   */\n      0x00\n        /* \"#utility.yul\":2247:2249   */\n      0x20\n        /* \"#utility.yul\":2236:2245   */\n      dup3\n        /* \"#utility.yul\":2232:2250   */\n      add\n        /* \"#utility.yul\":2224:2250   */\n      swap1\n      pop\n        /* \"#utility.yul\":2296:2305   */\n      dup2\n        /* \"#utility.yul\":2290:2294   */\n      dup2\n        /* \"#utility.yul\":2286:2306   */\n      sub\n        /* \"#utility.yul\":2282:2283   */\n      0x00\n        /* \"#utility.yul\":2271:2280   */\n      dup4\n        /* \"#utility.yul\":2267:2284   */\n      add\n        /* \"#utility.yul\":2260:2307   */\n      mstore\n        /* \"#utility.yul\":2324:2402   */\n      tag_203\n        /* \"#utility.yul\":2397:2401   */\n      dup2\n        /* \"#utility.yul\":2388:2394   */\n      dup5\n        /* \"#utility.yul\":2324:2402   */\n      tag_143\n      jump\t// in\n    tag_203:\n        /* \"#utility.yul\":2316:2402   */\n      swap1\n      pop\n        /* \"#utility.yul\":2096:2409   */\n      swap3\n      swap2\n      pop\n      pop\n      jump\t// out\n        /* \"#utility.yul\":2415:2532   */\n    tag_144:\n        /* \"#utility.yul\":2524:2525   */\n      0x00\n        /* \"#utility.yul\":2521:2522   */\n      dup1\n        /* \"#utility.yul\":2514:2526   */\n      revert\n        /* \"#utility.yul\":2538:2655   */\n    tag_145:\n        /* \"#utility.yul\":2647:2648   */\n      0x00\n        /* \"#utility.yul\":2644:2645   */\n      dup1\n        /* \"#utility.yul\":2637:2649   */\n      revert\n        /* \"#utility.yul\":2661:2778   */\n    tag_146:\n        /* \"#utility.yul\":2770:2771   */\n      0x00\n        /* \"#utility.yul\":2767:2768   */\n      dup1\n        /* \"#utility.yul\":2760:2772   */\n      revert\n        /* \"#utility.yul\":2798:3351   */\n    tag_147:\n        /* \"#utility.yul\":2856:2864   */\n      0x00\n        /* \"#utility.yul\":2866:2872   */\n      dup1\n        /* \"#utility.yul\":2916:2919   */\n      dup4\n        /* \"#utility.yul\":2909:2913   */\n      0x1f\n        /* \"#utility.yul\":2901:2907   */\n      dup5\n        /* \"#utility.yul\":2897:2914   */\n      add\n        /* \"#utility.yul\":2893:2920   */\n      slt\n        /* \"#utility.yul\":2883:3005   */\n      tag_208\n      jumpi\n        /* \"#utility.yul\":2924:3003   */\n      tag_209\n      tag_144\n      jump\t// in\n    tag_209:\n        /* \"#utility.yul\":2883:3005   */\n    tag_208:\n        /* \"#utility.yul\":3037:3043   */\n      dup3\n        /* \"#utility.yul\":3024:3044   */\n      calldataload\n        /* \"#utility.yul\":3014:3044   */\n      swap1\n      pop\n        /* \"#utility.yul\":3067:3085   */\n      0xffffffffffffffff\n        /* \"#utility.yul\":3059:3065   */\n      dup2\n        /* \"#utility.yul\":3056:3086   */\n      gt\n        /* \"#utility.yul\":3053:3170   */\n      iszero\n      tag_210\n      jumpi\n        /* \"#utility.yul\":3089:3168   */\n      tag_211\n      tag_145\n      jump\t// in\n    tag_211:\n        /* \"#utility.yul\":3053:3170   */\n    tag_210:\n        /* \"#utility.yul\":3203:3207   */\n      0x20\n        /* \"#utility.yul\":3195:3201   */\n      dup4\n        /* \"#utility.yul\":3191:3208   */\n      add\n        /* \"#utility.yul\":3179:3208   */\n      swap2\n      pop\n        /* \"#utility.yul\":3257:3260   */\n      dup4\n        /* \"#utility.yul\":3249:3253   */\n      0x01\n        /* \"#utility.yul\":3241:3247   */\n      dup3\n        /* \"#utility.yul\":3237:3254   */\n      mul\n        /* \"#utility.yul\":3227:3235   */\n      dup4\n        /* \"#utility.yul\":3223:3255   */\n      add\n        /* \"#utility.yul\":3220:3261   */\n      gt\n        /* \"#utility.yul\":3217:3345   */\n      iszero\n      tag_212\n      jumpi\n        /* \"#utility.yul\":3264:3343   */\n      tag_213\n      tag_146\n      jump\t// in\n    tag_213:\n        /* \"#utility.yul\":3217:3345   */\n    tag_212:\n        /* \"#utility.yul\":2798:3351   */\n      swap3\n      pop\n      swap3\n      swap1\n      pop\n      jump\t// out\n        /* \"#utility.yul\":3357:3886   */\n    tag_19:\n        /* \"#utility.yul\":3428:3434   */\n      0x00\n        /* \"#utility.yul\":3436:3442   */\n      dup1\n        /* \"#utility.yul\":3485:3487   */\n      0x20\n        /* \"#utility.yul\":3473:3482   */\n      dup4\n        /* \"#utility.yul\":3464:3471   */\n      dup6\n        /* \"#utility.yul\":3460:3483   */\n      sub\n        /* \"#utility.yul\":3456:3488   */\n      slt\n        /* \"#utility.yul\":3453:3572   */\n      iszero\n      tag_215\n      jumpi\n        /* \"#utility.yul\":3491:3570   */\n      tag_216\n      tag_134\n      jump\t// in\n    tag_216:\n        /* \"#utility.yul\":3453:3572   */\n    tag_215:\n        /* \"#utility.yul\":3639:3640   */\n      0x00\n        /* \"#utility.yul\":3628:3637   */\n      dup4\n        /* \"#utility.yul\":3624:3641   */\n      add\n        /* \"#utility.yul\":3611:3642   */\n      calldataload\n        /* \"#utility.yul\":3669:3687   */\n      0xffffffffffffffff\n        /* \"#utility.yul\":3661:3667   */\n      dup2\n        /* \"#utility.yul\":3658:3688   */\n      gt\n        /* \"#utility.yul\":3655:3772   */\n      iszero\n      tag_217\n      jumpi\n        /* \"#utility.yul\":3691:3770   */\n      tag_218\n      tag_135\n      jump\t// in\n    tag_218:\n        /* \"#utility.yul\":3655:3772   */\n    tag_217:\n        /* \"#utility.yul\":3804:3869   */\n      tag_219\n        /* \"#utility.yul\":3861:3868   */\n      dup6\n        /* \"#utility.yul\":3852:3858   */\n      dup3\n        /* \"#utility.yul\":3841:3850   */\n      dup7\n        /* \"#utility.yul\":3837:3859   */\n      add\n        /* \"#utility.yul\":3804:3869   */\n      tag_147\n      jump\t// in\n    tag_219:\n        /* \"#utility.yul\":3786:3869   */\n      swap3\n      pop\n      swap3\n      pop\n        /* \"#utility.yul\":3582:3879   */\n      pop\n        /* \"#utility.yul\":3357:3886   */\n      swap3\n      pop\n      swap3\n      swap1\n      pop\n      jump\t// out\n        /* \"#utility.yul\":3892:4010   */\n    tag_148:\n        /* \"#utility.yul\":3979:4003   */\n      tag_221\n        /* \"#utility.yul\":3997:4002   */\n      dup2\n        /* \"#utility.yul\":3979:4003   */\n      tag_136\n      jump\t// in\n    tag_221:\n        /* \"#utility.yul\":3974:3977   */\n      dup3\n        /* \"#utility.yul\":3967:4004   */\n      mstore\n        /* \"#utility.yul\":3892:4010   */\n      pop\n      pop\n      jump\t// out\n        /* \"#utility.yul\":4016:4238   */\n    tag_24:\n        /* \"#utility.yul\":4109:4113   */\n      0x00\n        /* \"#utility.yul\":4147:4149   */\n      0x20\n        /* \"#utility.yul\":4136:4145   */\n      dup3\n        /* \"#utility.yul\":4132:4150   */\n      add\n        /* \"#utility.yul\":4124:4150   */\n      swap1\n      pop\n        /* \"#utility.yul\":4160:4231   */\n      tag_223\n        /* \"#utility.yul\":4228:4229   */\n      0x00\n        /* \"#utility.yul\":4217:4226   */\n      dup4\n        /* \"#utility.yul\":4213:4230   */\n      add\n        /* \"#utility.yul\":4204:4210   */\n      dup5\n        /* \"#utility.yul\":4160:4231   */\n      tag_148\n      jump\t// in\n    tag_223:\n        /* \"#utility.yul\":4016:4238   */\n      swap3\n      swap2\n      pop\n      pop\n      jump\t// out\n        /* \"#utility.yul\":4244:4370   */\n    tag_149:\n        /* \"#utility.yul\":4281:4288   */\n      0x00\n        /* \"#utility.yul\":4321:4363   */\n      0xffffffffffffffffffffffffffffffffffffffff\n        /* \"#utility.yul\":4314:4319   */\n      dup3\n        /* \"#utility.yul\":4310:4364   */\n      and\n        /* \"#utility.yul\":4299:4364   */\n      swap1\n      pop\n        /* \"#utility.yul\":4244:4370   */\n      swap2\n      swap1\n      pop\n      jump\t// out\n        /* \"#utility.yul\":4376:4472   */\n    tag_150:\n        /* \"#utility.yul\":4413:4420   */\n      0x00\n        /* \"#utility.yul\":4442:4466   */\n      tag_226\n        /* \"#utility.yul\":4460:4465   */\n      dup3\n        /* \"#utility.yul\":4442:4466   */\n      tag_149\n      jump\t// in\n    tag_226:\n        /* \"#utility.yul\":4431:4466   */\n      swap1\n      pop\n        /* \"#utility.yul\":4376:4472   */\n      swap2\n      swap1\n      pop\n      jump\t// out\n        /* \"#utility.yul\":4478:4596   */\n    tag_151:\n        /* \"#utility.yul\":4565:4589   */\n      tag_228\n        /* \"#utility.yul\":4583:4588   */\n      dup2\n        /* \"#utility.yul\":4565:4589   */\n      tag_150\n      jump\t// in\n    tag_228:\n        /* \"#utility.yul\":4560:4563   */\n      dup3\n        /* \"#utility.yul\":4553:4590   */\n      mstore\n        /* \"#utility.yul\":4478:4596   */\n      pop\n      pop\n      jump\t// out\n        /* \"#utility.yul\":4602:4824   */\n    tag_31:\n        /* \"#utility.yul\":4695:4699   */\n      0x00\n        /* \"#utility.yul\":4733:4735   */\n      0x20\n        /* \"#utility.yul\":4722:4731   */\n      dup3\n        /* \"#utility.yul\":4718:4736   */\n      add\n        /* \"#utility.yul\":4710:4736   */\n      swap1\n      pop\n        /* \"#utility.yul\":4746:4817   */\n      tag_230\n        /* \"#utility.yul\":4814:4815   */\n      0x00\n        /* \"#utility.yul\":4803:4812   */\n      dup4\n        /* \"#utility.yul\":4799:4816   */\n      add\n        /* \"#utility.yul\":4790:4796   */\n      dup5\n        /* \"#utility.yul\":4746:4817   */\n      tag_151\n      jump\t// in\n    tag_230:\n        /* \"#utility.yul\":4602:4824   */\n      swap3\n      swap2\n      pop\n      pop\n      jump\t// out\n        /* \"#utility.yul\":4830:4920   */\n    tag_152:\n        /* \"#utility.yul\":4864:4871   */\n      0x00\n        /* \"#utility.yul\":4907:4912   */\n      dup2\n        /* \"#utility.yul\":4900:4913   */\n      iszero\n        /* \"#utility.yul\":4893:4914   */\n      iszero\n        /* \"#utility.yul\":4882:4914   */\n      swap1\n      pop\n        /* \"#utility.yul\":4830:4920   */\n      swap2\n      swap1\n      pop\n      jump\t// out\n        /* \"#utility.yul\":4926:5035   */\n    tag_153:\n        /* \"#utility.yul\":5007:5028   */\n      tag_233\n        /* \"#utility.yul\":5022:5027   */\n      dup2\n        /* \"#utility.yul\":5007:5028   */\n      tag_152\n      jump\t// in\n    tag_233:\n        /* \"#utility.yul\":5002:5005   */\n      dup3\n        /* \"#utility.yul\":4995:5029   */\n      mstore\n        /* \"#utility.yul\":4926:5035   */\n      pop\n      pop\n      jump\t// out\n        /* \"#utility.yul\":5041:5251   */\n    tag_36:\n        /* \"#utility.yul\":5128:5132   */\n      0x00\n        /* \"#utility.yul\":5166:5168   */\n      0x20\n        /* \"#utility.yul\":5155:5164   */\n      dup3\n        /* \"#utility.yul\":5151:5169   */\n      add\n        /* \"#utility.yul\":5143:5169   */\n      swap1\n      pop\n        /* \"#utility.yul\":5179:5244   */\n      tag_235\n        /* \"#utility.yul\":5241:5242   */\n      0x00\n        /* \"#utility.yul\":5230:5239   */\n      dup4\n        /* \"#utility.yul\":5226:5243   */\n      add\n        /* \"#utility.yul\":5217:5223   */\n      dup5\n        /* \"#utility.yul\":5179:5244   */\n      tag_153\n      jump\t// in\n    tag_235:\n        /* \"#utility.yul\":5041:5251   */\n      swap3\n      swap2\n      pop\n      pop\n      jump\t// out\n        /* \"#utility.yul\":5257:5374   */\n    tag_154:\n        /* \"#utility.yul\":5366:5367   */\n      0x00\n        /* \"#utility.yul\":5363:5364   */\n      dup1\n        /* \"#utility.yul\":5356:5368   */\n      revert\n        /* \"#utility.yul\":5380:5560   */\n    tag_155:\n        /* \"#utility.yul\":5428:5505   */\n      0x4e487b7100000000000000000000000000000000000000000000000000000000\n        /* \"#utility.yul\":5425:5426   */\n      0x00\n        /* \"#utility.yul\":5418:5506   */\n      mstore\n        /* \"#utility.yul\":5525:5529   */\n      0x41\n        /* \"#utility.yul\":5522:5523   */\n      0x04\n        /* \"#utility.yul\":5515:5530   */\n      mstore\n        /* \"#utility.yul\":5549:5553   */\n      0x24\n        /* \"#utility.yul\":5546:5547   */\n      0x00\n        /* \"#utility.yul\":5539:5554   */\n      revert\n        /* \"#utility.yul\":5566:5847   */\n    tag_156:\n        /* \"#utility.yul\":5649:5676   */\n      tag_239\n        /* \"#utility.yul\":5671:5675   */\n      dup3\n        /* \"#utility.yul\":5649:5676   */\n      tag_142\n      jump\t// in\n    tag_239:\n        /* \"#utility.yul\":5641:5647   */\n      dup2\n        /* \"#utility.yul\":5637:5677   */\n      add\n        /* \"#utility.yul\":5779:5785   */\n      dup2\n        /* \"#utility.yul\":5767:5777   */\n      dup2\n        /* \"#utility.yul\":5764:5786   */\n      lt\n        /* \"#utility.yul\":5743:5761   */\n      0xffffffffffffffff\n        /* \"#utility.yul\":5731:5741   */\n      dup3\n        /* \"#utility.yul\":5728:5762   */\n      gt\n        /* \"#utility.yul\":5725:5787   */\n      or\n        /* \"#utility.yul\":5722:5810   */\n      iszero\n      tag_240\n      jumpi\n        /* \"#utility.yul\":5790:5808   */\n      tag_241\n      tag_155\n      jump\t// in\n    tag_241:\n        /* \"#utility.yul\":5722:5810   */\n    tag_240:\n        /* \"#utility.yul\":5830:5840   */\n      dup1\n        /* \"#utility.yul\":5826:5828   */\n      0x40\n        /* \"#utility.yul\":5819:5841   */\n      mstore\n        /* \"#utility.yul\":5609:5847   */\n      pop\n        /* \"#utility.yul\":5566:5847   */\n      pop\n      pop\n      jump\t// out\n        /* \"#utility.yul\":5853:5982   */\n    tag_157:\n        /* \"#utility.yul\":5887:5893   */\n      0x00\n        /* \"#utility.yul\":5914:5934   */\n      tag_243\n      tag_133\n      jump\t// in\n    tag_243:\n        /* \"#utility.yul\":5904:5934   */\n      swap1\n      pop\n        /* \"#utility.yul\":5943:5976   */\n      tag_244\n        /* \"#utility.yul\":5971:5975   */\n      dup3\n        /* \"#utility.yul\":5963:5969   */\n      dup3\n        /* \"#utility.yul\":5943:5976   */\n      tag_156\n      jump\t// in\n    tag_244:\n        /* \"#utility.yul\":5853:5982   */\n      swap2\n      swap1\n      pop\n      jump\t// out\n        /* \"#utility.yul\":5988:6296   */\n    tag_158:\n        /* \"#utility.yul\":6050:6054   */\n      0x00\n        /* \"#utility.yul\":6140:6158   */\n      0xffffffffffffffff\n        /* \"#utility.yul\":6132:6138   */\n      dup3\n        /* \"#utility.yul\":6129:6159   */\n      gt\n        /* \"#utility.yul\":6126:6182   */\n      iszero\n      tag_246\n      jumpi\n        /* \"#utility.yul\":6162:6180   */\n      tag_247\n      tag_155\n      jump\t// in\n    tag_247:\n        /* \"#utility.yul\":6126:6182   */\n    tag_246:\n        /* \"#utility.yul\":6200:6229   */\n      tag_248\n        /* \"#utility.yul\":6222:6228   */\n      dup3\n        /* \"#utility.yul\":6200:6229   */\n      tag_142\n      jump\t// in\n    tag_248:\n        /* \"#utility.yul\":6192:6229   */\n      swap1\n      pop\n        /* \"#utility.yul\":6284:6288   */\n      0x20\n        /* \"#utility.yul\":6278:6282   */\n      dup2\n        /* \"#utility.yul\":6274:6289   */\n      add\n        /* \"#utility.yul\":6266:6289   */\n      swap1\n      pop\n        /* \"#utility.yul\":5988:6296   */\n      swap2\n      swap1\n      pop\n      jump\t// out\n        /* \"#utility.yul\":6302:6456   */\n    tag_159:\n        /* \"#utility.yul\":6386:6392   */\n      dup3\n        /* \"#utility.yul\":6381:6384   */\n      dup2\n        /* \"#utility.yul\":6376:6379   */\n      dup4\n        /* \"#utility.yul\":6363:6393   */\n      calldatacopy\n        /* \"#utility.yul\":6448:6449   */\n      0x00\n        /* \"#utility.yul\":6439:6445   */\n      dup4\n        /* \"#utility.yul\":6434:6437   */\n      dup4\n        /* \"#utility.yul\":6430:6446   */\n      add\n        /* \"#utility.yul\":6423:6450   */\n      mstore\n        /* \"#utility.yul\":6302:6456   */\n      pop\n      pop\n      pop\n      jump\t// out\n        /* \"#utility.yul\":6462:6874   */\n    tag_160:\n        /* \"#utility.yul\":6540:6545   */\n      0x00\n        /* \"#utility.yul\":6565:6631   */\n      tag_251\n        /* \"#utility.yul\":6581:6630   */\n      tag_252\n        /* \"#utility.yul\":6623:6629   */\n      dup5\n        /* \"#utility.yul\":6581:6630   */\n      tag_158\n      jump\t// in\n    tag_252:\n        /* \"#utility.yul\":6565:6631   */\n      tag_157\n      jump\t// in\n    tag_251:\n        /* \"#utility.yul\":6556:6631   */\n      swap1\n      pop\n        /* \"#utility.yul\":6654:6660   */\n      dup3\n        /* \"#utility.yul\":6647:6652   */\n      dup2\n        /* \"#utility.yul\":6640:6661   */\n      mstore\n        /* \"#utility.yul\":6692:6696   */\n      0x20\n        /* \"#utility.yul\":6685:6690   */\n      dup2\n        /* \"#utility.yul\":6681:6697   */\n      add\n        /* \"#utility.yul\":6730:6733   */\n      dup5\n        /* \"#utility.yul\":6721:6727   */\n      dup5\n        /* \"#utility.yul\":6716:6719   */\n      dup5\n        /* \"#utility.yul\":6712:6728   */\n      add\n        /* \"#utility.yul\":6709:6734   */\n      gt\n        /* \"#utility.yul\":6706:6818   */\n      iszero\n      tag_253\n      jumpi\n        /* \"#utility.yul\":6737:6816   */\n      tag_254\n      tag_154\n      jump\t// in\n    tag_254:\n        /* \"#utility.yul\":6706:6818   */\n    tag_253:\n        /* \"#utility.yul\":6827:6868   */\n      tag_255\n        /* \"#utility.yul\":6861:6867   */\n      dup5\n        /* \"#utility.yul\":6856:6859   */\n      dup3\n        /* \"#utility.yul\":6851:6854   */\n      dup6\n        /* \"#utility.yul\":6827:6868   */\n      tag_159\n      jump\t// in\n    tag_255:\n        /* \"#utility.yul\":6546:6874   */\n      pop\n        /* \"#utility.yul\":6462:6874   */\n      swap4\n      swap3\n      pop\n      pop\n      pop\n      jump\t// out\n        /* \"#utility.yul\":6894:7234   */\n    tag_161:\n        /* \"#utility.yul\":6950:6955   */\n      0x00\n        /* \"#utility.yul\":6999:7002   */\n      dup3\n        /* \"#utility.yul\":6992:6996   */\n      0x1f\n        /* \"#utility.yul\":6984:6990   */\n      dup4\n        /* \"#utility.yul\":6980:6997   */\n      add\n        /* \"#utility.yul\":6976:7003   */\n      slt\n        /* \"#utility.yul\":6966:7088   */\n      tag_257\n      jumpi\n        /* \"#utility.yul\":7007:7086   */\n      tag_258\n      tag_144\n      jump\t// in\n    tag_258:\n        /* \"#utility.yul\":6966:7088   */\n    tag_257:\n        /* \"#utility.yul\":7124:7130   */\n      dup2\n        /* \"#utility.yul\":7111:7131   */\n      calldataload\n        /* \"#utility.yul\":7149:7228   */\n      tag_259\n        /* \"#utility.yul\":7224:7227   */\n      dup5\n        /* \"#utility.yul\":7216:7222   */\n      dup3\n        /* \"#utility.yul\":7209:7213   */\n      0x20\n        /* \"#utility.yul\":7201:7207   */\n      dup7\n        /* \"#utility.yul\":7197:7214   */\n      add\n        /* \"#utility.yul\":7149:7228   */\n      tag_160\n      jump\t// in\n    tag_259:\n        /* \"#utility.yul\":7140:7228   */\n      swap2\n      pop\n        /* \"#utility.yul\":6956:7234   */\n      pop\n        /* \"#utility.yul\":6894:7234   */\n      swap3\n      swap2\n      pop\n      pop\n      jump\t// out\n        /* \"#utility.yul\":7240:7749   */\n    tag_39:\n        /* \"#utility.yul\":7309:7315   */\n      0x00\n        /* \"#utility.yul\":7358:7360   */\n      0x20\n        /* \"#utility.yul\":7346:7355   */\n      dup3\n        /* \"#utility.yul\":7337:7344   */\n      dup5\n        /* \"#utility.yul\":7333:7356   */\n      sub\n        /* \"#utility.yul\":7329:7361   */\n      slt\n        /* \"#utility.yul\":7326:7445   */\n      iszero\n      tag_261\n      jumpi\n        /* \"#utility.yul\":7364:7443   */\n      tag_262\n      tag_134\n      jump\t// in\n    tag_262:\n        /* \"#utility.yul\":7326:7445   */\n    tag_261:\n        /* \"#utility.yul\":7512:7513   */\n      0x00\n        /* \"#utility.yul\":7501:7510   */\n      dup3\n        /* \"#utility.yul\":7497:7514   */\n      add\n        /* \"#utility.yul\":7484:7515   */\n      calldataload\n        /* \"#utility.yul\":7542:7560   */\n      0xffffffffffffffff\n        /* \"#utility.yul\":7534:7540   */\n      dup2\n        /* \"#utility.yul\":7531:7561   */\n      gt\n        /* \"#utility.yul\":7528:7645   */\n      iszero\n      tag_263\n      jumpi\n        /* \"#utility.yul\":7564:7643   */\n      tag_264\n      tag_135\n      jump\t// in\n    tag_264:\n        /* \"#utility.yul\":7528:7645   */\n    tag_263:\n        /* \"#utility.yul\":7669:7732   */\n      tag_265\n        /* \"#utility.yul\":7724:7731   */\n      dup5\n        /* \"#utility.yul\":7715:7721   */\n      dup3\n        /* \"#utility.yul\":7704:7713   */\n      dup6\n        /* \"#utility.yul\":7700:7722   */\n      add\n        /* \"#utility.yul\":7669:7732   */\n      tag_161\n      jump\t// in\n    tag_265:\n        /* \"#utility.yul\":7659:7732   */\n      swap2\n      pop\n        /* \"#utility.yul\":7455:7742   */\n      pop\n        /* \"#utility.yul\":7240:7749   */\n      swap3\n      swap2\n      pop\n      pop\n      jump\t// out\n        /* \"#utility.yul\":7755:7935   */\n    tag_162:\n        /* \"#utility.yul\":7803:7880   */\n      0x4e487b7100000000000000000000000000000000000000000000000000000000\n        /* \"#utility.yul\":7800:7801   */\n      0x00\n        /* \"#utility.yul\":7793:7881   */\n      mstore\n        /* \"#utility.yul\":7900:7904   */\n      0x22\n        /* \"#utility.yul\":7897:7898   */\n      0x04\n        /* \"#utility.yul\":7890:7905   */\n      mstore\n        /* \"#utility.yul\":7924:7928   */\n      0x24\n        /* \"#utility.yul\":7921:7922   */\n      0x00\n        /* \"#utility.yul\":7914:7929   */\n      revert\n        /* \"#utility.yul\":7941:8261   */\n    tag_45:\n        /* \"#utility.yul\":7985:7991   */\n      0x00\n        /* \"#utility.yul\":8022:8023   */\n      0x02\n        /* \"#utility.yul\":8016:8020   */\n      dup3\n        /* \"#utility.yul\":8012:8024   */\n      div\n        /* \"#utility.yul\":8002:8024   */\n      swap1\n      pop\n        /* \"#utility.yul\":8069:8070   */\n      0x01\n        /* \"#utility.yul\":8063:8067   */\n      dup3\n        /* \"#utility.yul\":8059:8071   */\n      and\n        /* \"#utility.yul\":8090:8108   */\n      dup1\n        /* \"#utility.yul\":8080:8161   */\n      tag_268\n      jumpi\n        /* \"#utility.yul\":8146:8150   */\n      0x7f\n        /* \"#utility.yul\":8138:8144   */\n      dup3\n        /* \"#utility.yul\":8134:8151   */\n      and\n        /* \"#utility.yul\":8124:8151   */\n      swap2\n      pop\n        /* \"#utility.yul\":8080:8161   */\n    tag_268:\n        /* \"#utility.yul\":8208:8210   */\n      0x20\n        /* \"#utility.yul\":8200:8206   */\n      dup3\n        /* \"#utility.yul\":8197:8211   */\n      lt\n        /* \"#utility.yul\":8177:8195   */\n      dup2\n        /* \"#utility.yul\":8174:8212   */\n      sub\n        /* \"#utility.yul\":8171:8255   */\n      tag_269\n      jumpi\n        /* \"#utility.yul\":8227:8245   */\n      tag_270\n      tag_162\n      jump\t// in\n    tag_270:\n        /* \"#utility.yul\":8171:8255   */\n    tag_269:\n        /* \"#utility.yul\":7992:8261   */\n      pop\n        /* \"#utility.yul\":7941:8261   */\n      swap2\n      swap1\n      pop\n      jump\t// out\n        /* \"#utility.yul\":8267:8415   */\n    tag_163:\n        /* \"#utility.yul\":8369:8380   */\n      0x00\n        /* \"#utility.yul\":8406:8409   */\n      dup2\n        /* \"#utility.yul\":8391:8409   */\n      swap1\n      pop\n        /* \"#utility.yul\":8267:8415   */\n      swap3\n      swap2\n      pop\n      pop\n      jump\t// out\n        /* \"#utility.yul\":8445:8762   */\n    tag_164:\n        /* \"#utility.yul\":8561:8564   */\n      0x00\n        /* \"#utility.yul\":8582:8671   */\n      tag_273\n        /* \"#utility.yul\":8664:8670   */\n      dup4\n        /* \"#utility.yul\":8659:8662   */\n      dup6\n        /* \"#utility.yul\":8582:8671   */\n      tag_163\n      jump\t// in\n    tag_273:\n        /* \"#utility.yul\":8575:8671   */\n      swap4\n      pop\n        /* \"#utility.yul\":8681:8724   */\n      tag_274\n        /* \"#utility.yul\":8717:8723   */\n      dup4\n        /* \"#utility.yul\":8712:8715   */\n      dup6\n        /* \"#utility.yul\":8705:8710   */\n      dup5\n        /* \"#utility.yul\":8681:8724   */\n      tag_159\n      jump\t// in\n    tag_274:\n        /* \"#utility.yul\":8749:8755   */\n      dup3\n        /* \"#utility.yul\":8744:8747   */\n      dup5\n        /* \"#utility.yul\":8740:8756   */\n      add\n        /* \"#utility.yul\":8733:8756   */\n      swap1\n      pop\n        /* \"#utility.yul\":8445:8762   */\n      swap4\n      swap3\n      pop\n      pop\n      pop\n      jump\t// out\n        /* \"#utility.yul\":8768:9063   */\n    tag_53:\n        /* \"#utility.yul\":8910:8913   */\n      0x00\n        /* \"#utility.yul\":8932:9037   */\n      tag_276\n        /* \"#utility.yul\":9033:9036   */\n      dup3\n        /* \"#utility.yul\":9024:9030   */\n      dup5\n        /* \"#utility.yul\":9016:9022   */\n      dup7\n        /* \"#utility.yul\":8932:9037   */\n      tag_164\n      jump\t// in\n    tag_276:\n        /* \"#utility.yul\":8925:9037   */\n      swap2\n      pop\n        /* \"#utility.yul\":9054:9057   */\n      dup2\n        /* \"#utility.yul\":9047:9057   */\n      swap1\n      pop\n        /* \"#utility.yul\":8768:9063   */\n      swap4\n      swap3\n      pop\n      pop\n      pop\n      jump\t// out\n        /* \"#utility.yul\":9069:9226   */\n    tag_165:\n        /* \"#utility.yul\":9209:9218   */\n      0x6e6f206c69737400000000000000000000000000000000000000000000000000\n        /* \"#utility.yul\":9205:9206   */\n      0x00\n        /* \"#utility.yul\":9197:9203   */\n      dup3\n        /* \"#utility.yul\":9193:9207   */\n      add\n        /* \"#utility.yul\":9186:9219   */\n      mstore\n        /* \"#utility.yul\":9069:9226   */\n      pop\n      jump\t// out\n        /* \"#utility.yul\":9232:9597   */\n    tag_166:\n        /* \"#utility.yul\":9374:9377   */\n      0x00\n        /* \"#utility.yul\":9395:9461   */\n      tag_279\n        /* \"#utility.yul\":9459:9460   */\n      0x07\n        /* \"#utility.yul\":9454:9457   */\n      dup4\n        /* \"#utility.yul\":9395:9461   */\n      tag_140\n      jump\t// in\n    tag_279:\n        /* \"#utility.yul\":9388:9461   */\n      swap2\n      pop\n        /* \"#utility.yul\":9470:9563   */\n      tag_280\n        /* \"#utility.yul\":9559:9562   */\n      dup3\n        /* \"#utility.yul\":9470:9563   */\n      tag_165\n      jump\t// in\n    tag_280:\n        /* \"#utility.yul\":9588:9590   */\n      0x20\n        /* \"#utility.yul\":9583:9586   */\n      dup3\n        /* \"#utility.yul\":9579:9591   */\n      add\n        /* \"#utility.yul\":9572:9591   */\n      swap1\n      pop\n        /* \"#utility.yul\":9232:9597   */\n      swap2\n      swap1\n      pop\n      jump\t// out\n        /* \"#utility.yul\":9603:10022   */\n    tag_63:\n        /* \"#utility.yul\":9769:9773   */\n      0x00\n        /* \"#utility.yul\":9807:9809   */\n      0x20\n        /* \"#utility.yul\":9796:9805   */\n      dup3\n        /* \"#utility.yul\":9792:9810   */\n      add\n        /* \"#utility.yul\":9784:9810   */\n      swap1\n      pop\n        /* \"#utility.yul\":9856:9865   */\n      dup2\n        /* \"#utility.yul\":9850:9854   */\n      dup2\n        /* \"#utility.yul\":9846:9866   */\n      sub\n        /* \"#utility.yul\":9842:9843   */\n      0x00\n        /* \"#utility.yul\":9831:9840   */\n      dup4\n        /* \"#utility.yul\":9827:9844   */\n      add\n        /* \"#utility.yul\":9820:9867   */\n      mstore\n        /* \"#utility.yul\":9884:10015   */\n      tag_282\n        /* \"#utility.yul\":10010:10014   */\n      dup2\n        /* \"#utility.yul\":9884:10015   */\n      tag_166\n      jump\t// in\n    tag_282:\n        /* \"#utility.yul\":9876:10015   */\n      swap1\n      pop\n        /* \"#utility.yul\":9603:10022   */\n      swap2\n      swap1\n      pop\n      jump\t// out\n        /* \"#utility.yul\":10028:10187   */\n    tag_167:\n        /* \"#utility.yul\":10168:10179   */\n      0x6e6f7420666f756e640000000000000000000000000000000000000000000000\n        /* \"#utility.yul\":10164:10165   */\n      0x00\n        /* \"#utility.yul\":10156:10162   */\n      dup3\n        /* \"#utility.yul\":10152:10166   */\n      add\n        /* \"#utility.yul\":10145:10180   */\n      mstore\n        /* \"#utility.yul\":10028:10187   */\n      pop\n      jump\t// out\n        /* \"#utility.yul\":10193:10558   */\n    tag_168:\n        /* \"#utility.yul\":10335:10338   */\n      0x00\n        /* \"#utility.yul\":10356:10422   */\n      tag_285\n        /* \"#utility.yul\":10420:10421   */\n      0x09\n        /* \"#utility.yul\":10415:10418   */\n      dup4\n        /* \"#utility.yul\":10356:10422   */\n      tag_140\n      jump\t// in\n    tag_285:\n        /* \"#utility.yul\":10349:10422   */\n      swap2\n      pop\n        /* \"#utility.yul\":10431:10524   */\n      tag_286\n        /* \"#utility.yul\":10520:10523   */\n      dup3\n        /* \"#utility.yul\":10431:10524   */\n      tag_167\n      jump\t// in\n    tag_286:\n        /* \"#utility.yul\":10549:10551   */\n      0x20\n        /* \"#utility.yul\":10544:10547   */\n      dup3\n        /* \"#utility.yul\":10540:10552   */\n      add\n        /* \"#utility.yul\":10533:10552   */\n      swap1\n      pop\n        /* \"#utility.yul\":10193:10558   */\n      swap2\n      swap1\n      pop\n      jump\t// out\n        /* \"#utility.yul\":10564:10983   */\n    tag_67:\n        /* \"#utility.yul\":10730:10734   */\n      0x00\n        /* \"#utility.yul\":10768:10770   */\n      0x20\n        /* \"#utility.yul\":10757:10766   */\n      dup3\n        /* \"#utility.yul\":10753:10771   */\n      add\n        /* \"#utility.yul\":10745:10771   */\n      swap1\n      pop\n        /* \"#utility.yul\":10817:10826   */\n      dup2\n        /* \"#utility.yul\":10811:10815   */\n      dup2\n        /* \"#utility.yul\":10807:10827   */\n      sub\n        /* \"#utility.yul\":10803:10804   */\n      0x00\n        /* \"#utility.yul\":10792:10801   */\n      dup4\n        /* \"#utility.yul\":10788:10805   */\n      add\n        /* \"#utility.yul\":10781:10828   */\n      mstore\n        /* \"#utility.yul\":10845:10976   */\n      tag_288\n        /* \"#utility.yul\":10971:10975   */\n      dup2\n        /* \"#utility.yul\":10845:10976   */\n      tag_168\n      jump\t// in\n    tag_288:\n        /* \"#utility.yul\":10837:10976   */\n      swap1\n      pop\n        /* \"#utility.yul\":10564:10983   */\n      swap2\n      swap1\n      pop\n      jump\t// out\n        /* \"#utility.yul\":10989:11169   */\n    tag_169:\n        /* \"#utility.yul\":11037:11114   */\n      0x4e487b7100000000000000000000000000000000000000000000000000000000\n        /* \"#utility.yul\":11034:11035   */\n      0x00\n        /* \"#utility.yul\":11027:11115   */\n      mstore\n        /* \"#utility.yul\":11134:11138   */\n      0x11\n        /* \"#utility.yul\":11131:11132   */\n      0x04\n        /* \"#utility.yul\":11124:11139   */\n      mstore\n        /* \"#utility.yul\":11158:11162   */\n      0x24\n        /* \"#utility.yul\":11155:11156   */\n      0x00\n        /* \"#utility.yul\":11148:11163   */\n      revert\n        /* \"#utility.yul\":11175:11366   */\n    tag_71:\n        /* \"#utility.yul\":11215:11219   */\n      0x00\n        /* \"#utility.yul\":11235:11255   */\n      tag_291\n        /* \"#utility.yul\":11253:11254   */\n      dup3\n        /* \"#utility.yul\":11235:11255   */\n      tag_136\n      jump\t// in\n    tag_291:\n        /* \"#utility.yul\":11230:11255   */\n      swap2\n      pop\n        /* \"#utility.yul\":11269:11289   */\n      tag_292\n        /* \"#utility.yul\":11287:11288   */\n      dup4\n        /* \"#utility.yul\":11269:11289   */\n      tag_136\n      jump\t// in\n    tag_292:\n        /* \"#utility.yul\":11264:11289   */\n      swap3\n      pop\n        /* \"#utility.yul\":11308:11309   */\n      dup3\n        /* \"#utility.yul\":11305:11306   */\n      dup3\n        /* \"#utility.yul\":11302:11310   */\n      lt\n        /* \"#utility.yul\":11299:11333   */\n      iszero\n      tag_293\n      jumpi\n        /* \"#utility.yul\":11313:11331   */\n      tag_294\n      tag_169\n      jump\t// in\n    tag_294:\n        /* \"#utility.yul\":11299:11333   */\n    tag_293:\n        /* \"#utility.yul\":11358:11359   */\n      dup3\n        /* \"#utility.yul\":11355:11356   */\n      dup3\n        /* \"#utility.yul\":11351:11360   */\n      sub\n        /* \"#utility.yul\":11343:11360   */\n      swap1\n      pop\n        /* \"#utility.yul\":11175:11366   */\n      swap3\n      swap2\n      pop\n      pop\n      jump\t// out\n        /* \"#utility.yul\":11372:11552   */\n    tag_74:\n        /* \"#utility.yul\":11420:11497   */\n      0x4e487b7100000000000000000000000000000000000000000000000000000000\n        /* \"#utility.yul\":11417:11418   */\n      0x00\n        /* \"#utility.yul\":11410:11498   */\n      mstore\n        /* \"#utility.yul\":11517:11521   */\n      0x32\n        /* \"#utility.yul\":11514:11515   */\n      0x04\n        /* \"#utility.yul\":11507:11522   */\n      mstore\n        /* \"#utility.yul\":11541:11545   */\n      0x24\n        /* \"#utility.yul\":11538:11539   */\n      0x00\n        /* \"#utility.yul\":11531:11546   */\n      revert\n        /* \"#utility.yul\":11558:11935   */\n    tag_170:\n        /* \"#utility.yul\":11664:11667   */\n      0x00\n        /* \"#utility.yul\":11692:11731   */\n      tag_297\n        /* \"#utility.yul\":11725:11730   */\n      dup3\n        /* \"#utility.yul\":11692:11731   */\n      tag_139\n      jump\t// in\n    tag_297:\n        /* \"#utility.yul\":11747:11836   */\n      tag_298\n        /* \"#utility.yul\":11829:11835   */\n      dup2\n        /* \"#utility.yul\":11824:11827   */\n      dup6\n        /* \"#utility.yul\":11747:11836   */\n      tag_163\n      jump\t// in\n    tag_298:\n        /* \"#utility.yul\":11740:11836   */\n      swap4\n      pop\n        /* \"#utility.yul\":11845:11897   */\n      tag_299\n        /* \"#utility.yul\":11890:11896   */\n      dup2\n        /* \"#utility.yul\":11885:11888   */\n      dup6\n        /* \"#utility.yul\":11878:11882   */\n      0x20\n        /* \"#utility.yul\":11871:11876   */\n      dup7\n        /* \"#utility.yul\":11867:11883   */\n      add\n        /* \"#utility.yul\":11845:11897   */\n      tag_141\n      jump\t// in\n    tag_299:\n        /* \"#utility.yul\":11922:11928   */\n      dup1\n        /* \"#utility.yul\":11917:11920   */\n      dup5\n        /* \"#utility.yul\":11913:11929   */\n      add\n        /* \"#utility.yul\":11906:11929   */\n      swap2\n      pop\n        /* \"#utility.yul\":11668:11935   */\n      pop\n        /* \"#utility.yul\":11558:11935   */\n      swap3\n      swap2\n      pop\n      pop\n      jump\t// out\n        /* \"#utility.yul\":11941:12216   */\n    tag_87:\n        /* \"#utility.yul\":12073:12076   */\n      0x00\n        /* \"#utility.yul\":12095:12190   */\n      tag_301\n        /* \"#utility.yul\":12186:12189   */\n      dup3\n        /* \"#utility.yul\":12177:12183   */\n      dup5\n        /* \"#utility.yul\":12095:12190   */\n      tag_170\n      jump\t// in\n    tag_301:\n        /* \"#utility.yul\":12088:12190   */\n      swap2\n      pop\n        /* \"#utility.yul\":12207:12210   */\n      dup2\n        /* \"#utility.yul\":12200:12210   */\n      swap1\n      pop\n        /* \"#utility.yul\":11941:12216   */\n      swap3\n      swap2\n      pop\n      pop\n      jump\t// out\n        /* \"#utility.yul\":12222:12402   */\n    tag_91:\n        /* \"#utility.yul\":12270:12347   */\n      0x4e487b7100000000000000000000000000000000000000000000000000000000\n        /* \"#utility.yul\":12267:12268   */\n      0x00\n        /* \"#utility.yul\":12260:12348   */\n      mstore\n        /* \"#utility.yul\":12367:12371   */\n      0x31\n        /* \"#utility.yul\":12364:12365   */\n      0x04\n        /* \"#utility.yul\":12357:12372   */\n      mstore\n        /* \"#utility.yul\":12391:12395   */\n      0x24\n        /* \"#utility.yul\":12388:12389   */\n      0x00\n        /* \"#utility.yul\":12381:12396   */\n      revert\n        /* \"#utility.yul\":12408:12555   */\n    tag_171:\n        /* \"#utility.yul\":12509:12520   */\n      0x00\n        /* \"#utility.yul\":12546:12549   */\n      dup2\n        /* \"#utility.yul\":12531:12549   */\n      swap1\n      pop\n        /* \"#utility.yul\":12408:12555   */\n      swap3\n      swap2\n      pop\n      pop\n      jump\t// out\n        /* \"#utility.yul\":12583:12897   */\n    tag_172:\n        /* \"#utility.yul\":12697:12700   */\n      0x00\n        /* \"#utility.yul\":12718:12806   */\n      tag_305\n        /* \"#utility.yul\":12799:12805   */\n      dup4\n        /* \"#utility.yul\":12794:12797   */\n      dup6\n        /* \"#utility.yul\":12718:12806   */\n      tag_171\n      jump\t// in\n    tag_305:\n        /* \"#utility.yul\":12711:12806   */\n      swap4\n      pop\n        /* \"#utility.yul\":12816:12859   */\n      tag_306\n        /* \"#utility.yul\":12852:12858   */\n      dup4\n        /* \"#utility.yul\":12847:12850   */\n      dup6\n        /* \"#utility.yul\":12840:12845   */\n      dup5\n        /* \"#utility.yul\":12816:12859   */\n      tag_159\n      jump\t// in\n    tag_306:\n        /* \"#utility.yul\":12884:12890   */\n      dup3\n        /* \"#utility.yul\":12879:12882   */\n      dup5\n        /* \"#utility.yul\":12875:12891   */\n      add\n        /* \"#utility.yul\":12868:12891   */\n      swap1\n      pop\n        /* \"#utility.yul\":12583:12897   */\n      swap4\n      swap3\n      pop\n      pop\n      pop\n      jump\t// out\n        /* \"#utility.yul\":12903:13194   */\n    tag_107:\n        /* \"#utility.yul\":13043:13046   */\n      0x00\n        /* \"#utility.yul\":13065:13168   */\n      tag_308\n        /* \"#utility.yul\":13164:13167   */\n      dup3\n        /* \"#utility.yul\":13155:13161   */\n      dup5\n        /* \"#utility.yul\":13147:13153   */\n      dup7\n        /* \"#utility.yul\":13065:13168   */\n      tag_172\n      jump\t// in\n    tag_308:\n        /* \"#utility.yul\":13058:13168   */\n      swap2\n      pop\n        /* \"#utility.yul\":13185:13188   */\n      dup2\n        /* \"#utility.yul\":13178:13188   */\n      swap1\n      pop\n        /* \"#utility.yul\":12903:13194   */\n      swap4\n      swap3\n      pop\n      pop\n      pop\n      jump\t// out\n        /* \"#utility.yul\":13200:13362   */\n    tag_173:\n        /* \"#utility.yul\":13340:13354   */\n      0x756e617574686f72697a65640000000000000000000000000000000000000000\n        /* \"#utility.yul\":13336:13337   */\n      0x00\n        /* \"#utility.yul\":13328:13334   */\n      dup3\n        /* \"#utility.yul\":13324:13338   */\n      add\n        /* \"#utility.yul\":13317:13355   */\n      mstore\n        /* \"#utility.yul\":13200:13362   */\n      pop\n      jump\t// out\n        /* \"#utility.yul\":13368:13734   */\n    tag_174:\n        /* \"#utility.yul\":13510:13513   */\n      0x00\n        /* \"#utility.yul\":13531:13598   */\n      tag_311\n        /* \"#utility.yul\":13595:13597   */\n      0x0c\n        /* \"#utility.yul\":13590:13593   */\n      dup4\n        /* \"#utility.yul\":13531:13598   */\n      tag_140\n      jump\t// in\n    tag_311:\n        /* \"#utility.yul\":13524:13598   */\n      swap2\n      pop\n        /* \"#utility.yul\":13607:13700   */\n      tag_312\n        /* \"#utility.yul\":13696:13699   */\n      dup3\n        /* \"#utility.yul\":13607:13700   */\n      tag_173\n      jump\t// in\n    tag_312:\n        /* \"#utility.yul\":13725:13727   */\n      0x20\n        /* \"#utility.yul\":13720:13723   */\n      dup3\n        /* \"#utility.yul\":13716:13728   */\n      add\n        /* \"#utility.yul\":13709:13728   */\n      swap1\n      pop\n        /* \"#utility.yul\":13368:13734   */\n      swap2\n      swap1\n      pop\n      jump\t// out\n        /* \"#utility.yul\":13740:14159   */\n    tag_111:\n        /* \"#utility.yul\":13906:13910   */\n      0x00\n        /* \"#utility.yul\":13944:13946   */\n      0x20\n        /* \"#utility.yul\":13933:13942   */\n      dup3\n        /* \"#utility.yul\":13929:13947   */\n      add\n        /* \"#utility.yul\":13921:13947   */\n      swap1\n      pop\n        /* \"#utility.yul\":13993:14002   */\n      dup2\n        /* \"#utility.yul\":13987:13991   */\n      dup2\n        /* \"#utility.yul\":13983:14003   */\n      sub\n        /* \"#utility.yul\":13979:13980   */\n      0x00\n        /* \"#utility.yul\":13968:13977   */\n      dup4\n        /* \"#utility.yul\":13964:13981   */\n      add\n        /* \"#utility.yul\":13957:14004   */\n      mstore\n        /* \"#utility.yul\":14021:14152   */\n      tag_314\n        /* \"#utility.yul\":14147:14151   */\n      dup2\n        /* \"#utility.yul\":14021:14152   */\n      tag_174\n      jump\t// in\n    tag_314:\n        /* \"#utility.yul\":14013:14152   */\n      swap1\n      pop\n        /* \"#utility.yul\":13740:14159   */\n      swap2\n      swap1\n      pop\n      jump\t// out\n\n    auxdata: 0xa26469706673582212203b65397a80dc1a91e6b54f2e24ffd60fa5ff10fce86c20bae744106989a1f5a064736f6c634300080d0033\n}\n",
				"bytecode": {
					"linkReferences": {},
					"object": "6080604052735b38da6a701c568545dcfcb03fcb875f56beddc46000806101000a81548173ffffffffffffffffffffffffffffffffffffffff021916908373ffffffffffffffffffffffffffffffffffffffff16021790555034801561006457600080fd5b50610fc3806100746000396000f3fe608060405234801561001057600080fd5b506004361061007c5760003560e01c80636a43aae71161005b5780636a43aae7146100eb5780638da5cb5b14610107578063c3fcf9d314610125578063e5a27979146101555761007c565b8062ad800c1461008157806311456b47146100b15780632f5d3a04146100cd575b600080fd5b61009b6004803603810190610096919061087f565b610185565b6040516100a89190610945565b60405180910390f35b6100cb60048036038101906100c691906109cc565b610231565b005b6100d561029f565b6040516100e29190610a28565b60405180910390f35b610105600480360381019061010091906109cc565b6102ac565b005b61010f6104d7565b60405161011c9190610a84565b60405180910390f35b61013f600480360381019061013a91906109cc565b6104fb565b60405161014c9190610aba565b60405180910390f35b61016f600480360381019061016a9190610c05565b61060e565b60405161017c9190610a28565b60405180910390f35b6001818154811061019557600080fd5b9060005260206000200160009150905080546101b090610c7d565b80601f01602080910402602001604051908101604052809291908181526020018280546101dc90610c7d565b80156102295780601f106101fe57610100808354040283529160200191610229565b820191906000526020600020905b81548152906001019060200180831161020c57829003601f168201915b505050505081565b61023961029f565b6002838360405161024b929190610cde565b908152602001604051809103902081905550600182829091806001815401808255809150506001900390600052602060002001600090919290919290919290919250919061029a9291906106cc565b505050565b6000600180549050905090565b6102b461063c565b6000600180549050116102fc576040517f08c379a00000000000000000000000000000000000000000000000000000000081526004016102f390610d43565b60405180910390fd5b61030682826104fb565b610345576040517f08c379a000000000000000000000000000000000000000000000000000000000815260040161033c90610daf565b60405180910390fd5b600060028383604051610359929190610cde565b9081526020016040518091039020549050600060018061037761029f565b6103819190610dfe565b8154811061039257610391610e32565b5b9060005260206000200180546103a790610c7d565b80601f01602080910402602001604051908101604052809291908181526020018280546103d390610c7d565b80156104205780601f106103f557610100808354040283529160200191610420565b820191906000526020600020905b81548152906001019060200180831161040357829003601f168201915b50505050509050806001838154811061043c5761043b610e32565b5b906000526020600020019080519060200190610459929190610752565b508160028260405161046b9190610e92565b9081526020016040518091039020819055506002848460405161048f929190610cde565b90815260200160405180910390206000905560018054806104b3576104b2610ea9565b5b6001900381819060005260206000200160006104cf91906107d8565b905550505050565b60008054906101000a900473ffffffffffffffffffffffffffffffffffffffff1681565b600080600180549050036105125760009050610608565b600060028484604051610526929190610cde565b908152602001604051809103902054905060006001828154811061054d5761054c610e32565b5b90600052602060002001805461056290610c7d565b80601f016020809104026020016040519081016040528092919081815260200182805461058e90610c7d565b80156105db5780601f106105b0576101008083540402835291602001916105db565b820191906000526020600020905b8154815290600101906020018083116105be57829003601f168201915b5050505050905084846040516105f2929190610f08565b6040518091039020818051906020012014925050505b92915050565b6002818051602081018201805184825260208301602085012081835280955050505050506000915090505481565b60008054906101000a900473ffffffffffffffffffffffffffffffffffffffff1673ffffffffffffffffffffffffffffffffffffffff163373ffffffffffffffffffffffffffffffffffffffff16146106ca576040517f08c379a00000000000000000000000000000000000000000000000000000000081526004016106c190610f6d565b60405180910390fd5b565b8280546106d890610c7d565b90600052602060002090601f0160209004810192826106fa5760008555610741565b82601f1061071357803560ff1916838001178555610741565b82800160010185558215610741579182015b82811115610740578235825591602001919060010190610725565b5b50905061074e9190610818565b5090565b82805461075e90610c7d565b90600052602060002090601f01602090048101928261078057600085556107c7565b82601f1061079957805160ff19168380011785556107c7565b828001600101855582156107c7579182015b828111156107c65782518255916020019190600101906107ab565b5b5090506107d49190610818565b5090565b5080546107e490610c7d565b6000825580601f106107f65750610815565b601f0160209004906000526020600020908101906108149190610818565b5b50565b5b80821115610831576000816000905550600101610819565b5090565b6000604051905090565b600080fd5b600080fd5b6000819050919050565b61085c81610849565b811461086757600080fd5b50565b60008135905061087981610853565b92915050565b6000602082840312156108955761089461083f565b5b60006108a38482850161086a565b91505092915050565b600081519050919050565b600082825260208201905092915050565b60005b838110156108e65780820151818401526020810190506108cb565b838111156108f5576000848401525b50505050565b6000601f19601f8301169050919050565b6000610917826108ac565b61092181856108b7565b93506109318185602086016108c8565b61093a816108fb565b840191505092915050565b6000602082019050818103600083015261095f818461090c565b905092915050565b600080fd5b600080fd5b600080fd5b60008083601f84011261098c5761098b610967565b5b8235905067ffffffffffffffff8111156109a9576109a861096c565b5b6020830191508360018202830111156109c5576109c4610971565b5b9250929050565b600080602083850312156109e3576109e261083f565b5b600083013567ffffffffffffffff811115610a0157610a00610844565b5b610a0d85828601610976565b92509250509250929050565b610a2281610849565b82525050565b6000602082019050610a3d6000830184610a19565b92915050565b600073ffffffffffffffffffffffffffffffffffffffff82169050919050565b6000610a6e82610a43565b9050919050565b610a7e81610a63565b82525050565b6000602082019050610a996000830184610a75565b92915050565b60008115159050919050565b610ab481610a9f565b82525050565b6000602082019050610acf6000830184610aab565b92915050565b600080fd5b7f4e487b7100000000000000000000000000000000000000000000000000000000600052604160045260246000fd5b610b12826108fb565b810181811067ffffffffffffffff82111715610b3157610b30610ada565b5b80604052505050565b6000610b44610835565b9050610b508282610b09565b919050565b600067ffffffffffffffff821115610b7057610b6f610ada565b5b610b79826108fb565b9050602081019050919050565b82818337600083830152505050565b6000610ba8610ba384610b55565b610b3a565b905082815260208101848484011115610bc457610bc3610ad5565b5b610bcf848285610b86565b509392505050565b600082601f830112610bec57610beb610967565b5b8135610bfc848260208601610b95565b91505092915050565b600060208284031215610c1b57610c1a61083f565b5b600082013567ffffffffffffffff811115610c3957610c38610844565b5b610c4584828501610bd7565b91505092915050565b7f4e487b7100000000000000000000000000000000000000000000000000000000600052602260045260246000fd5b60006002820490506001821680610c9557607f821691505b602082108103610ca857610ca7610c4e565b5b50919050565b600081905092915050565b6000610cc58385610cae565b9350610cd2838584610b86565b82840190509392505050565b6000610ceb828486610cb9565b91508190509392505050565b7f6e6f206c69737400000000000000000000000000000000000000000000000000600082015250565b6000610d2d6007836108b7565b9150610d3882610cf7565b602082019050919050565b60006020820190508181036000830152610d5c81610d20565b9050919050565b7f6e6f7420666f756e640000000000000000000000000000000000000000000000600082015250565b6000610d996009836108b7565b9150610da482610d63565b602082019050919050565b60006020820190508181036000830152610dc881610d8c565b9050919050565b7f4e487b7100000000000000000000000000000000000000000000000000000000600052601160045260246000fd5b6000610e0982610849565b9150610e1483610849565b925082821015610e2757610e26610dcf565b5b828203905092915050565b7f4e487b7100000000000000000000000000000000000000000000000000000000600052603260045260246000fd5b6000610e6c826108ac565b610e768185610cae565b9350610e868185602086016108c8565b80840191505092915050565b6000610e9e8284610e61565b915081905092915050565b7f4e487b7100000000000000000000000000000000000000000000000000000000600052603160045260246000fd5b600081905092915050565b6000610eef8385610ed8565b9350610efc838584610b86565b82840190509392505050565b6000610f15828486610ee3565b91508190509392505050565b7f756e617574686f72697a65640000000000000000000000000000000000000000600082015250565b6000610f57600c836108b7565b9150610f6282610f21565b602082019050919050565b60006020820190508181036000830152610f8681610f4a565b905091905056fea26469706673582212203b65397a80dc1a91e6b54f2e24ffd60fa5ff10fce86c20bae744106989a1f5a064736f6c634300080d0033",
					"opcodes": "PUSH1 0x80 PUSH1 0x40 MSTORE PUSH20 0x5B38DA6A701C568545DCFCB03FCB875F56BEDDC4 PUSH1 0x0 DUP1 PUSH2 0x100 EXP DUP2 SLOAD DUP2 PUSH20 0xFFFFFFFFFFFFFFFFFFFFFFFFFFFFFFFFFFFFFFFF MUL NOT AND SWAP1 DUP4 PUSH20 0xFFFFFFFFFFFFFFFFFFFFFFFFFFFFFFFFFFFFFFFF AND MUL OR SWAP1 SSTORE POP CALLVALUE DUP1 ISZERO PUSH2 0x64 JUMPI PUSH1 0x0 DUP1 REVERT JUMPDEST POP PUSH2 0xFC3 DUP1 PUSH2 0x74 PUSH1 0x0 CODECOPY PUSH1 0x0 RETURN INVALID PUSH1 0x80 PUSH1 0x40 MSTORE CALLVALUE DUP1 ISZERO PUSH2 0x10 JUMPI PUSH1 0x0 DUP1 REVERT JUMPDEST POP PUSH1 0x4 CALLDATASIZE LT PUSH2 0x7C JUMPI PUSH1 0x0 CALLDATALOAD PUSH1 0xE0 SHR DUP1 PUSH4 0x6A43AAE7 GT PUSH2 0x5B JUMPI DUP1 PUSH4 0x6A43AAE7 EQ PUSH2 0xEB JUMPI DUP1 PUSH4 0x8DA5CB5B EQ PUSH2 0x107 JUMPI DUP1 PUSH4 0xC3FCF9D3 EQ PUSH2 0x125 JUMPI DUP1 PUSH4 0xE5A27979 EQ PUSH2 0x155 JUMPI PUSH2 0x7C JUMP JUMPDEST DUP1 PUSH3 0xAD800C EQ PUSH2 0x81 JUMPI DUP1 PUSH4 0x11456B47 EQ PUSH2 0xB1 JUMPI DUP1 PUSH4 0x2F5D3A04 EQ PUSH2 0xCD JUMPI JUMPDEST PUSH1 0x0 DUP1 REVERT JUMPDEST PUSH2 0x9B PUSH1 0x4 DUP1 CALLDATASIZE SUB DUP2 ADD SWAP1 PUSH2 0x96 SWAP2 SWAP1 PUSH2 0x87F JUMP JUMPDEST PUSH2 0x185 JUMP JUMPDEST PUSH1 0x40 MLOAD PUSH2 0xA8 SWAP2 SWAP1 PUSH2 0x945 JUMP JUMPDEST PUSH1 0x40 MLOAD DUP1 SWAP2 SUB SWAP1 RETURN JUMPDEST PUSH2 0xCB PUSH1 0x4 DUP1 CALLDATASIZE SUB DUP2 ADD SWAP1 PUSH2 0xC6 SWAP2 SWAP1 PUSH2 0x9CC JUMP JUMPDEST PUSH2 0x231 JUMP JUMPDEST STOP JUMPDEST PUSH2 0xD5 PUSH2 0x29F JUMP JUMPDEST PUSH1 0x40 MLOAD PUSH2 0xE2 SWAP2 SWAP1 PUSH2 0xA28 JUMP JUMPDEST PUSH1 0x40 MLOAD DUP1 SWAP2 SUB SWAP1 RETURN JUMPDEST PUSH2 0x105 PUSH1 0x4 DUP1 CALLDATASIZE SUB DUP2 ADD SWAP1 PUSH2 0x100 SWAP2 SWAP1 PUSH2 0x9CC JUMP JUMPDEST PUSH2 0x2AC JUMP JUMPDEST STOP JUMPDEST PUSH2 0x10F PUSH2 0x4D7 JUMP JUMPDEST PUSH1 0x40 MLOAD PUSH2 0x11C SWAP2 SWAP1 PUSH2 0xA84 JUMP JUMPDEST PUSH1 0x40 MLOAD DUP1 SWAP2 SUB SWAP1 RETURN JUMPDEST PUSH2 0x13F PUSH1 0x4 DUP1 CALLDATASIZE SUB DUP2 ADD SWAP1 PUSH2 0x13A SWAP2 SWAP1 PUSH2 0x9CC JUMP JUMPDEST PUSH2 0x4FB JUMP JUMPDEST PUSH1 0x40 MLOAD PUSH2 0x14C SWAP2 SWAP1 PUSH2 0xABA JUMP JUMPDEST PUSH1 0x40 MLOAD DUP1 SWAP2 SUB SWAP1 RETURN JUMPDEST PUSH2 0x16F PUSH1 0x4 DUP1 CALLDATASIZE SUB DUP2 ADD SWAP1 PUSH2 0x16A SWAP2 SWAP1 PUSH2 0xC05 JUMP JUMPDEST PUSH2 0x60E JUMP JUMPDEST PUSH1 0x40 MLOAD PUSH2 0x17C SWAP2 SWAP1 PUSH2 0xA28 JUMP JUMPDEST PUSH1 0x40 MLOAD DUP1 SWAP2 SUB SWAP1 RETURN JUMPDEST PUSH1 0x1 DUP2 DUP2 SLOAD DUP2 LT PUSH2 0x195 JUMPI PUSH1 0x0 DUP1 REVERT JUMPDEST SWAP1 PUSH1 0x0 MSTORE PUSH1 0x20 PUSH1 0x0 KECCAK256 ADD PUSH1 0x0 SWAP2 POP SWAP1 POP DUP1 SLOAD PUSH2 0x1B0 SWAP1 PUSH2 0xC7D JUMP JUMPDEST DUP1 PUSH1 0x1F ADD PUSH1 0x20 DUP1 SWAP2 DIV MUL PUSH1 0x20 ADD PUSH1 0x40 MLOAD SWAP1 DUP2 ADD PUSH1 0x40 MSTORE DUP1 SWAP3 SWAP2 SWAP1 DUP2 DUP2 MSTORE PUSH1 0x20 ADD DUP3 DUP1 SLOAD PUSH2 0x1DC SWAP1 PUSH2 0xC7D JUMP JUMPDEST DUP1 ISZERO PUSH2 0x229 JUMPI DUP1 PUSH1 0x1F LT PUSH2 0x1FE JUMPI PUSH2 0x100 DUP1 DUP4 SLOAD DIV MUL DUP4 MSTORE SWAP2 PUSH1 0x20 ADD SWAP2 PUSH2 0x229 JUMP JUMPDEST DUP3 ADD SWAP2 SWAP1 PUSH1 0x0 MSTORE PUSH1 0x20 PUSH1 0x0 KECCAK256 SWAP1 JUMPDEST DUP2 SLOAD DUP2 MSTORE SWAP1 PUSH1 0x1 ADD SWAP1 PUSH1 0x20 ADD DUP1 DUP4 GT PUSH2 0x20C JUMPI DUP3 SWAP1 SUB PUSH1 0x1F AND DUP3 ADD SWAP2 JUMPDEST POP POP POP POP POP DUP2 JUMP JUMPDEST PUSH2 0x239 PUSH2 0x29F JUMP JUMPDEST PUSH1 0x2 DUP4 DUP4 PUSH1 0x40 MLOAD PUSH2 0x24B SWAP3 SWAP2 SWAP1 PUSH2 0xCDE JUMP JUMPDEST SWAP1 DUP2 MSTORE PUSH1 0x20 ADD PUSH1 0x40 MLOAD DUP1 SWAP2 SUB SWAP1 KECCAK256 DUP2 SWAP1 SSTORE POP PUSH1 0x1 DUP3 DUP3 SWAP1 SWAP2 DUP1 PUSH1 0x1 DUP2 SLOAD ADD DUP1 DUP3 SSTORE DUP1 SWAP2 POP POP PUSH1 0x1 SWAP1 SUB SWAP1 PUSH1 0x0 MSTORE PUSH1 0x20 PUSH1 0x0 KECCAK256 ADD PUSH1 0x0 SWAP1 SWAP2 SWAP3 SWAP1 SWAP2 SWAP3 SWAP1 SWAP2 SWAP3 SWAP1 SWAP2 SWAP3 POP SWAP2 SWAP1 PUSH2 0x29A SWAP3 SWAP2 SWAP1 PUSH2 0x6CC JUMP JUMPDEST POP POP POP JUMP JUMPDEST PUSH1 0x0 PUSH1 0x1 DUP1 SLOAD SWAP1 POP SWAP1 POP SWAP1 JUMP JUMPDEST PUSH2 0x2B4 PUSH2 0x63C JUMP JUMPDEST PUSH1 0x0 PUSH1 0x1 DUP1 SLOAD SWAP1 POP GT PUSH2 0x2FC JUMPI PUSH1 0x40 MLOAD PUSH32 0x8C379A000000000000000000000000000000000000000000000000000000000 DUP2 MSTORE PUSH1 0x4 ADD PUSH2 0x2F3 SWAP1 PUSH2 0xD43 JUMP JUMPDEST PUSH1 0x40 MLOAD DUP1 SWAP2 SUB SWAP1 REVERT JUMPDEST PUSH2 0x306 DUP3 DUP3 PUSH2 0x4FB JUMP JUMPDEST PUSH2 0x345 JUMPI PUSH1 0x40 MLOAD PUSH32 0x8C379A000000000000000000000000000000000000000000000000000000000 DUP2 MSTORE PUSH1 0x4 ADD PUSH2 0x33C SWAP1 PUSH2 0xDAF JUMP JUMPDEST PUSH1 0x40 MLOAD DUP1 SWAP2 SUB SWAP1 REVERT JUMPDEST PUSH1 0x0 PUSH1 0x2 DUP4 DUP4 PUSH1 0x40 MLOAD PUSH2 0x359 SWAP3 SWAP2 SWAP1 PUSH2 0xCDE JUMP JUMPDEST SWAP1 DUP2 MSTORE PUSH1 0x20 ADD PUSH1 0x40 MLOAD DUP1 SWAP2 SUB SWAP1 KECCAK256 SLOAD SWAP1 POP PUSH1 0x0 PUSH1 0x1 DUP1 PUSH2 0x377 PUSH2 0x29F JUMP JUMPDEST PUSH2 0x381 SWAP2 SWAP1 PUSH2 0xDFE JUMP JUMPDEST DUP2 SLOAD DUP2 LT PUSH2 0x392 JUMPI PUSH2 0x391 PUSH2 0xE32 JUMP JUMPDEST JUMPDEST SWAP1 PUSH1 0x0 MSTORE PUSH1 0x20 PUSH1 0x0 KECCAK256 ADD DUP1 SLOAD PUSH2 0x3A7 SWAP1 PUSH2 0xC7D JUMP JUMPDEST DUP1 PUSH1 0x1F ADD PUSH1 0x20 DUP1 SWAP2 DIV MUL PUSH1 0x20 ADD PUSH1 0x40 MLOAD SWAP1 DUP2 ADD PUSH1 0x40 MSTORE DUP1 SWAP3 SWAP2 SWAP1 DUP2 DUP2 MSTORE PUSH1 0x20 ADD DUP3 DUP1 SLOAD PUSH2 0x3D3 SWAP1 PUSH2 0xC7D JUMP JUMPDEST DUP1 ISZERO PUSH2 0x420 JUMPI DUP1 PUSH1 0x1F LT PUSH2 0x3F5 JUMPI PUSH2 0x100 DUP1 DUP4 SLOAD DIV MUL DUP4 MSTORE SWAP2 PUSH1 0x20 ADD SWAP2 PUSH2 0x420 JUMP JUMPDEST DUP3 ADD SWAP2 SWAP1 PUSH1 0x0 MSTORE PUSH1 0x20 PUSH1 0x0 KECCAK256 SWAP1 JUMPDEST DUP2 SLOAD DUP2 MSTORE SWAP1 PUSH1 0x1 ADD SWAP1 PUSH1 0x20 ADD DUP1 DUP4 GT PUSH2 0x403 JUMPI DUP3 SWAP1 SUB PUSH1 0x1F AND DUP3 ADD SWAP2 JUMPDEST POP POP POP POP POP SWAP1 POP DUP1 PUSH1 0x1 DUP4 DUP2 SLOAD DUP2 LT PUSH2 0x43C JUMPI PUSH2 0x43B PUSH2 0xE32 JUMP JUMPDEST JUMPDEST SWAP1 PUSH1 0x0 MSTORE PUSH1 0x20 PUSH1 0x0 KECCAK256 ADD SWAP1 DUP1 MLOAD SWAP1 PUSH1 0x20 ADD SWAP1 PUSH2 0x459 SWAP3 SWAP2 SWAP1 PUSH2 0x752 JUMP JUMPDEST POP DUP2 PUSH1 0x2 DUP3 PUSH1 0x40 MLOAD PUSH2 0x46B SWAP2 SWAP1 PUSH2 0xE92 JUMP JUMPDEST SWAP1 DUP2 MSTORE PUSH1 0x20 ADD PUSH1 0x40 MLOAD DUP1 SWAP2 SUB SWAP1 KECCAK256 DUP2 SWAP1 SSTORE POP PUSH1 0x2 DUP5 DUP5 PUSH1 0x40 MLOAD PUSH2 0x48F SWAP3 SWAP2 SWAP1 PUSH2 0xCDE JUMP JUMPDEST SWAP1 DUP2 MSTORE PUSH1 0x20 ADD PUSH1 0x40 MLOAD DUP1 SWAP2 SUB SWAP1 KECCAK256 PUSH1 0x0 SWAP1 SSTORE PUSH1 0x1 DUP1 SLOAD DUP1 PUSH2 0x4B3 JUMPI PUSH2 0x4B2 PUSH2 0xEA9 JUMP JUMPDEST JUMPDEST PUSH1 0x1 SWAP1 SUB DUP2 DUP2 SWAP1 PUSH1 0x0 MSTORE PUSH1 0x20 PUSH1 0x0 KECCAK256 ADD PUSH1 0x0 PUSH2 0x4CF SWAP2 SWAP1 PUSH2 0x7D8 JUMP JUMPDEST SWAP1 SSTORE POP POP POP POP JUMP JUMPDEST PUSH1 0x0 DUP1 SLOAD SWAP1 PUSH2 0x100 EXP SWAP1 DIV PUSH20 0xFFFFFFFFFFFFFFFFFFFFFFFFFFFFFFFFFFFFFFFF AND DUP2 JUMP JUMPDEST PUSH1 0x0 DUP1 PUSH1 0x1 DUP1 SLOAD SWAP1 POP SUB PUSH2 0x512 JUMPI PUSH1 0x0 SWAP1 POP PUSH2 0x608 JUMP JUMPDEST PUSH1 0x0 PUSH1 0x2 DUP5 DUP5 PUSH1 0x40 MLOAD PUSH2 0x526 SWAP3 SWAP2 SWAP1 PUSH2 0xCDE JUMP JUMPDEST SWAP1 DUP2 MSTORE PUSH1 0x20 ADD PUSH1 0x40 MLOAD DUP1 SWAP2 SUB SWAP1 KECCAK256 SLOAD SWAP1 POP PUSH1 0x0 PUSH1 0x1 DUP3 DUP2 SLOAD DUP2 LT PUSH2 0x54D JUMPI PUSH2 0x54C PUSH2 0xE32 JUMP JUMPDEST JUMPDEST SWAP1 PUSH1 0x0 MSTORE PUSH1 0x20 PUSH1 0x0 KECCAK256 ADD DUP1 SLOAD PUSH2 0x562 SWAP1 PUSH2 0xC7D JUMP JUMPDEST DUP1 PUSH1 0x1F ADD PUSH1 0x20 DUP1 SWAP2 DIV MUL PUSH1 0x20 ADD PUSH1 0x40 MLOAD SWAP1 DUP2 ADD PUSH1 0x40 MSTORE DUP1 SWAP3 SWAP2 SWAP1 DUP2 DUP2 MSTORE PUSH1 0x20 ADD DUP3 DUP1 SLOAD PUSH2 0x58E SWAP1 PUSH2 0xC7D JUMP JUMPDEST DUP1 ISZERO PUSH2 0x5DB JUMPI DUP1 PUSH1 0x1F LT PUSH2 0x5B0 JUMPI PUSH2 0x100 DUP1 DUP4 SLOAD DIV MUL DUP4 MSTORE SWAP2 PUSH1 0x20 ADD SWAP2 PUSH2 0x5DB JUMP JUMPDEST DUP3 ADD SWAP2 SWAP1 PUSH1 0x0 MSTORE PUSH1 0x20 PUSH1 0x0 KECCAK256 SWAP1 JUMPDEST DUP2 SLOAD DUP2 MSTORE SWAP1 PUSH1 0x1 ADD SWAP1 PUSH1 0x20 ADD DUP1 DUP4 GT PUSH2 0x5BE JUMPI DUP3 SWAP1 SUB PUSH1 0x1F AND DUP3 ADD SWAP2 JUMPDEST POP POP POP POP POP SWAP1 POP DUP5 DUP5 PUSH1 0x40 MLOAD PUSH2 0x5F2 SWAP3 SWAP2 SWAP1 PUSH2 0xF08 JUMP JUMPDEST PUSH1 0x40 MLOAD DUP1 SWAP2 SUB SWAP1 KECCAK256 DUP2 DUP1 MLOAD SWAP1 PUSH1 0x20 ADD KECCAK256 EQ SWAP3 POP POP POP JUMPDEST SWAP3 SWAP2 POP POP JUMP JUMPDEST PUSH1 0x2 DUP2 DUP1 MLOAD PUSH1 0x20 DUP2 ADD DUP3 ADD DUP1 MLOAD DUP5 DUP3 MSTORE PUSH1 0x20 DUP4 ADD PUSH1 0x20 DUP6 ADD KECCAK256 DUP2 DUP4 MSTORE DUP1 SWAP6 POP POP POP POP POP POP PUSH1 0x0 SWAP2 POP SWAP1 POP SLOAD DUP2 JUMP JUMPDEST PUSH1 0x0 DUP1 SLOAD SWAP1 PUSH2 0x100 EXP SWAP1 DIV PUSH20 0xFFFFFFFFFFFFFFFFFFFFFFFFFFFFFFFFFFFFFFFF AND PUSH20 0xFFFFFFFFFFFFFFFFFFFFFFFFFFFFFFFFFFFFFFFF AND CALLER PUSH20 0xFFFFFFFFFFFFFFFFFFFFFFFFFFFFFFFFFFFFFFFF AND EQ PUSH2 0x6CA JUMPI PUSH1 0x40 MLOAD PUSH32 0x8C379A000000000000000000000000000000000000000000000000000000000 DUP2 MSTORE PUSH1 0x4 ADD PUSH2 0x6C1 SWAP1 PUSH2 0xF6D JUMP JUMPDEST PUSH1 0x40 MLOAD DUP1 SWAP2 SUB SWAP1 REVERT JUMPDEST JUMP JUMPDEST DUP3 DUP1 SLOAD PUSH2 0x6D8 SWAP1 PUSH2 0xC7D JUMP JUMPDEST SWAP1 PUSH1 0x0 MSTORE PUSH1 0x20 PUSH1 0x0 KECCAK256 SWAP1 PUSH1 0x1F ADD PUSH1 0x20 SWAP1 DIV DUP2 ADD SWAP3 DUP3 PUSH2 0x6FA JUMPI PUSH1 0x0 DUP6 SSTORE PUSH2 0x741 JUMP JUMPDEST DUP3 PUSH1 0x1F LT PUSH2 0x713 JUMPI DUP1 CALLDATALOAD PUSH1 0xFF NOT AND DUP4 DUP1 ADD OR DUP6 SSTORE PUSH2 0x741 JUMP JUMPDEST DUP3 DUP1 ADD PUSH1 0x1 ADD DUP6 SSTORE DUP3 ISZERO PUSH2 0x741 JUMPI SWAP2 DUP3 ADD JUMPDEST DUP3 DUP2 GT ISZERO PUSH2 0x740 JUMPI DUP3 CALLDATALOAD DUP3 SSTORE SWAP2 PUSH1 0x20 ADD SWAP2 SWAP1 PUSH1 0x1 ADD SWAP1 PUSH2 0x725 JUMP JUMPDEST JUMPDEST POP SWAP1 POP PUSH2 0x74E SWAP2 SWAP1 PUSH2 0x818 JUMP JUMPDEST POP SWAP1 JUMP JUMPDEST DUP3 DUP1 SLOAD PUSH2 0x75E SWAP1 PUSH2 0xC7D JUMP JUMPDEST SWAP1 PUSH1 0x0 MSTORE PUSH1 0x20 PUSH1 0x0 KECCAK256 SWAP1 PUSH1 0x1F ADD PUSH1 0x20 SWAP1 DIV DUP2 ADD SWAP3 DUP3 PUSH2 0x780 JUMPI PUSH1 0x0 DUP6 SSTORE PUSH2 0x7C7 JUMP JUMPDEST DUP3 PUSH1 0x1F LT PUSH2 0x799 JUMPI DUP1 MLOAD PUSH1 0xFF NOT AND DUP4 DUP1 ADD OR DUP6 SSTORE PUSH2 0x7C7 JUMP JUMPDEST DUP3 DUP1 ADD PUSH1 0x1 ADD DUP6 SSTORE DUP3 ISZERO PUSH2 0x7C7 JUMPI SWAP2 DUP3 ADD JUMPDEST DUP3 DUP2 GT ISZERO PUSH2 0x7C6 JUMPI DUP3 MLOAD DUP3 SSTORE SWAP2 PUSH1 0x20 ADD SWAP2 SWAP1 PUSH1 0x1 ADD SWAP1 PUSH2 0x7AB JUMP JUMPDEST JUMPDEST POP SWAP1 POP PUSH2 0x7D4 SWAP2 SWAP1 PUSH2 0x818 JUMP JUMPDEST POP SWAP1 JUMP JUMPDEST POP DUP1 SLOAD PUSH2 0x7E4 SWAP1 PUSH2 0xC7D JUMP JUMPDEST PUSH1 0x0 DUP3 SSTORE DUP1 PUSH1 0x1F LT PUSH2 0x7F6 JUMPI POP PUSH2 0x815 JUMP JUMPDEST PUSH1 0x1F ADD PUSH1 0x20 SWAP1 DIV SWAP1 PUSH1 0x0 MSTORE PUSH1 0x20 PUSH1 0x0 KECCAK256 SWAP1 DUP2 ADD SWAP1 PUSH2 0x814 SWAP2 SWAP1 PUSH2 0x818 JUMP JUMPDEST JUMPDEST POP JUMP JUMPDEST JUMPDEST DUP1 DUP3 GT ISZERO PUSH2 0x831 JUMPI PUSH1 0x0 DUP2 PUSH1 0x0 SWAP1 SSTORE POP PUSH1 0x1 ADD PUSH2 0x819 JUMP JUMPDEST POP SWAP1 JUMP JUMPDEST PUSH1 0x0 PUSH1 0x40 MLOAD SWAP1 POP SWAP1 JUMP JUMPDEST PUSH1 0x0 DUP1 REVERT JUMPDEST PUSH1 0x0 DUP1 REVERT JUMPDEST PUSH1 0x0 DUP2 SWAP1 POP SWAP2 SWAP1 POP JUMP JUMPDEST PUSH2 0x85C DUP2 PUSH2 0x849 JUMP JUMPDEST DUP2 EQ PUSH2 0x867 JUMPI PUSH1 0x0 DUP1 REVERT JUMPDEST POP JUMP JUMPDEST PUSH1 0x0 DUP2 CALLDATALOAD SWAP1 POP PUSH2 0x879 DUP2 PUSH2 0x853 JUMP JUMPDEST SWAP3 SWAP2 POP POP JUMP JUMPDEST PUSH1 0x0 PUSH1 0x20 DUP3 DUP5 SUB SLT ISZERO PUSH2 0x895 JUMPI PUSH2 0x894 PUSH2 0x83F JUMP JUMPDEST JUMPDEST PUSH1 0x0 PUSH2 0x8A3 DUP5 DUP3 DUP6 ADD PUSH2 0x86A JUMP JUMPDEST SWAP2 POP POP SWAP3 SWAP2 POP POP JUMP JUMPDEST PUSH1 0x0 DUP2 MLOAD SWAP1 POP SWAP2 SWAP1 POP JUMP JUMPDEST PUSH1 0x0 DUP3 DUP3 MSTORE PUSH1 0x20 DUP3 ADD SWAP1 POP SWAP3 SWAP2 POP POP JUMP JUMPDEST PUSH1 0x0 JUMPDEST DUP4 DUP2 LT ISZERO PUSH2 0x8E6 JUMPI DUP1 DUP3 ADD MLOAD DUP2 DUP5 ADD MSTORE PUSH1 0x20 DUP2 ADD SWAP1 POP PUSH2 0x8CB JUMP JUMPDEST DUP4 DUP2 GT ISZERO PUSH2 0x8F5 JUMPI PUSH1 0x0 DUP5 DUP5 ADD MSTORE JUMPDEST POP POP POP POP JUMP JUMPDEST PUSH1 0x0 PUSH1 0x1F NOT PUSH1 0x1F DUP4 ADD AND SWAP1 POP SWAP2 SWAP1 POP JUMP JUMPDEST PUSH1 0x0 PUSH2 0x917 DUP3 PUSH2 0x8AC JUMP JUMPDEST PUSH2 0x921 DUP2 DUP6 PUSH2 0x8B7 JUMP JUMPDEST SWAP4 POP PUSH2 0x931 DUP2 DUP6 PUSH1 0x20 DUP7 ADD PUSH2 0x8C8 JUMP JUMPDEST PUSH2 0x93A DUP2 PUSH2 0x8FB JUMP JUMPDEST DUP5 ADD SWAP2 POP POP SWAP3 SWAP2 POP POP JUMP JUMPDEST PUSH1 0x0 PUSH1 0x20 DUP3 ADD SWAP1 POP DUP2 DUP2 SUB PUSH1 0x0 DUP4 ADD MSTORE PUSH2 0x95F DUP2 DUP5 PUSH2 0x90C JUMP JUMPDEST SWAP1 POP SWAP3 SWAP2 POP POP JUMP JUMPDEST PUSH1 0x0 DUP1 REVERT JUMPDEST PUSH1 0x0 DUP1 REVERT JUMPDEST PUSH1 0x0 DUP1 REVERT JUMPDEST PUSH1 0x0 DUP1 DUP4 PUSH1 0x1F DUP5 ADD SLT PUSH2 0x98C JUMPI PUSH2 0x98B PUSH2 0x967 JUMP JUMPDEST JUMPDEST DUP3 CALLDATALOAD SWAP1 POP PUSH8 0xFFFFFFFFFFFFFFFF DUP2 GT ISZERO PUSH2 0x9A9 JUMPI PUSH2 0x9A8 PUSH2 0x96C JUMP JUMPDEST JUMPDEST PUSH1 0x20 DUP4 ADD SWAP2 POP DUP4 PUSH1 0x1 DUP3 MUL DUP4 ADD GT ISZERO PUSH2 0x9C5 JUMPI PUSH2 0x9C4 PUSH2 0x971 JUMP JUMPDEST JUMPDEST SWAP3 POP SWAP3 SWAP1 POP JUMP JUMPDEST PUSH1 0x0 DUP1 PUSH1 0x20 DUP4 DUP6 SUB SLT ISZERO PUSH2 0x9E3 JUMPI PUSH2 0x9E2 PUSH2 0x83F JUMP JUMPDEST JUMPDEST PUSH1 0x0 DUP4 ADD CALLDATALOAD PUSH8 0xFFFFFFFFFFFFFFFF DUP2 GT ISZERO PUSH2 0xA01 JUMPI PUSH2 0xA00 PUSH2 0x844 JUMP JUMPDEST JUMPDEST PUSH2 0xA0D DUP6 DUP3 DUP7 ADD PUSH2 0x976 JUMP JUMPDEST SWAP3 POP SWAP3 POP POP SWAP3 POP SWAP3 SWAP1 POP JUMP JUMPDEST PUSH2 0xA22 DUP2 PUSH2 0x849 JUMP JUMPDEST DUP3 MSTORE POP POP JUMP JUMPDEST PUSH1 0x0 PUSH1 0x20 DUP3 ADD SWAP1 POP PUSH2 0xA3D PUSH1 0x0 DUP4 ADD DUP5 PUSH2 0xA19 JUMP JUMPDEST SWAP3 SWAP2 POP POP JUMP JUMPDEST PUSH1 0x0 PUSH20 0xFFFFFFFFFFFFFFFFFFFFFFFFFFFFFFFFFFFFFFFF DUP3 AND SWAP1 POP SWAP2 SWAP1 POP JUMP JUMPDEST PUSH1 0x0 PUSH2 0xA6E DUP3 PUSH2 0xA43 JUMP JUMPDEST SWAP1 POP SWAP2 SWAP1 POP JUMP JUMPDEST PUSH2 0xA7E DUP2 PUSH2 0xA63 JUMP JUMPDEST DUP3 MSTORE POP POP JUMP JUMPDEST PUSH1 0x0 PUSH1 0x20 DUP3 ADD SWAP1 POP PUSH2 0xA99 PUSH1 0x0 DUP4 ADD DUP5 PUSH2 0xA75 JUMP JUMPDEST SWAP3 SWAP2 POP POP JUMP JUMPDEST PUSH1 0x0 DUP2 ISZERO ISZERO SWAP1 POP SWAP2 SWAP1 POP JUMP JUMPDEST PUSH2 0xAB4 DUP2 PUSH2 0xA9F JUMP JUMPDEST DUP3 MSTORE POP POP JUMP JUMPDEST PUSH1 0x0 PUSH1 0x20 DUP3 ADD SWAP1 POP PUSH2 0xACF PUSH1 0x0 DUP4 ADD DUP5 PUSH2 0xAAB JUMP JUMPDEST SWAP3 SWAP2 POP POP JUMP JUMPDEST PUSH1 0x0 DUP1 REVERT JUMPDEST PUSH32 0x4E487B7100000000000000000000000000000000000000000000000000000000 PUSH1 0x0 MSTORE PUSH1 0x41 PUSH1 0x4 MSTORE PUSH1 0x24 PUSH1 0x0 REVERT JUMPDEST PUSH2 0xB12 DUP3 PUSH2 0x8FB JUMP JUMPDEST DUP2 ADD DUP2 DUP2 LT PUSH8 0xFFFFFFFFFFFFFFFF DUP3 GT OR ISZERO PUSH2 0xB31 JUMPI PUSH2 0xB30 PUSH2 0xADA JUMP JUMPDEST JUMPDEST DUP1 PUSH1 0x40 MSTORE POP POP POP JUMP JUMPDEST PUSH1 0x0 PUSH2 0xB44 PUSH2 0x835 JUMP JUMPDEST SWAP1 POP PUSH2 0xB50 DUP3 DUP3 PUSH2 0xB09 JUMP JUMPDEST SWAP2 SWAP1 POP JUMP JUMPDEST PUSH1 0x0 PUSH8 0xFFFFFFFFFFFFFFFF DUP3 GT ISZERO PUSH2 0xB70 JUMPI PUSH2 0xB6F PUSH2 0xADA JUMP JUMPDEST JUMPDEST PUSH2 0xB79 DUP3 PUSH2 0x8FB JUMP JUMPDEST SWAP1 POP PUSH1 0x20 DUP2 ADD SWAP1 POP SWAP2 SWAP1 POP JUMP JUMPDEST DUP3 DUP2 DUP4 CALLDATACOPY PUSH1 0x0 DUP4 DUP4 ADD MSTORE POP POP POP JUMP JUMPDEST PUSH1 0x0 PUSH2 0xBA8 PUSH2 0xBA3 DUP5 PUSH2 0xB55 JUMP JUMPDEST PUSH2 0xB3A JUMP JUMPDEST SWAP1 POP DUP3 DUP2 MSTORE PUSH1 0x20 DUP2 ADD DUP5 DUP5 DUP5 ADD GT ISZERO PUSH2 0xBC4 JUMPI PUSH2 0xBC3 PUSH2 0xAD5 JUMP JUMPDEST JUMPDEST PUSH2 0xBCF DUP5 DUP3 DUP6 PUSH2 0xB86 JUMP JUMPDEST POP SWAP4 SWAP3 POP POP POP JUMP JUMPDEST PUSH1 0x0 DUP3 PUSH1 0x1F DUP4 ADD SLT PUSH2 0xBEC JUMPI PUSH2 0xBEB PUSH2 0x967 JUMP JUMPDEST JUMPDEST DUP2 CALLDATALOAD PUSH2 0xBFC DUP5 DUP3 PUSH1 0x20 DUP7 ADD PUSH2 0xB95 JUMP JUMPDEST SWAP2 POP POP SWAP3 SWAP2 POP POP JUMP JUMPDEST PUSH1 0x0 PUSH1 0x20 DUP3 DUP5 SUB SLT ISZERO PUSH2 0xC1B JUMPI PUSH2 0xC1A PUSH2 0x83F JUMP JUMPDEST JUMPDEST PUSH1 0x0 DUP3 ADD CALLDATALOAD PUSH8 0xFFFFFFFFFFFFFFFF DUP2 GT ISZERO PUSH2 0xC39 JUMPI PUSH2 0xC38 PUSH2 0x844 JUMP JUMPDEST JUMPDEST PUSH2 0xC45 DUP5 DUP3 DUP6 ADD PUSH2 0xBD7 JUMP JUMPDEST SWAP2 POP POP SWAP3 SWAP2 POP POP JUMP JUMPDEST PUSH32 0x4E487B7100000000000000000000000000000000000000000000000000000000 PUSH1 0x0 MSTORE PUSH1 0x22 PUSH1 0x4 MSTORE PUSH1 0x24 PUSH1 0x0 REVERT JUMPDEST PUSH1 0x0 PUSH1 0x2 DUP3 DIV SWAP1 POP PUSH1 0x1 DUP3 AND DUP1 PUSH2 0xC95 JUMPI PUSH1 0x7F DUP3 AND SWAP2 POP JUMPDEST PUSH1 0x20 DUP3 LT DUP2 SUB PUSH2 0xCA8 JUMPI PUSH2 0xCA7 PUSH2 0xC4E JUMP JUMPDEST JUMPDEST POP SWAP2 SWAP1 POP JUMP JUMPDEST PUSH1 0x0 DUP2 SWAP1 POP SWAP3 SWAP2 POP POP JUMP JUMPDEST PUSH1 0x0 PUSH2 0xCC5 DUP4 DUP6 PUSH2 0xCAE JUMP JUMPDEST SWAP4 POP PUSH2 0xCD2 DUP4 DUP6 DUP5 PUSH2 0xB86 JUMP JUMPDEST DUP3 DUP5 ADD SWAP1 POP SWAP4 SWAP3 POP POP POP JUMP JUMPDEST PUSH1 0x0 PUSH2 0xCEB DUP3 DUP5 DUP7 PUSH2 0xCB9 JUMP JUMPDEST SWAP2 POP DUP2 SWAP1 POP SWAP4 SWAP3 POP POP POP JUMP JUMPDEST PUSH32 0x6E6F206C69737400000000000000000000000000000000000000000000000000 PUSH1 0x0 DUP3 ADD MSTORE POP JUMP JUMPDEST PUSH1 0x0 PUSH2 0xD2D PUSH1 0x7 DUP4 PUSH2 0x8B7 JUMP JUMPDEST SWAP2 POP PUSH2 0xD38 DUP3 PUSH2 0xCF7 JUMP JUMPDEST PUSH1 0x20 DUP3 ADD SWAP1 POP SWAP2 SWAP1 POP JUMP JUMPDEST PUSH1 0x0 PUSH1 0x20 DUP3 ADD SWAP1 POP DUP2 DUP2 SUB PUSH1 0x0 DUP4 ADD MSTORE PUSH2 0xD5C DUP2 PUSH2 0xD20 JUMP JUMPDEST SWAP1 POP SWAP2 SWAP1 POP JUMP JUMPDEST PUSH32 0x6E6F7420666F756E640000000000000000000000000000000000000000000000 PUSH1 0x0 DUP3 ADD MSTORE POP JUMP JUMPDEST PUSH1 0x0 PUSH2 0xD99 PUSH1 0x9 DUP4 PUSH2 0x8B7 JUMP JUMPDEST SWAP2 POP PUSH2 0xDA4 DUP3 PUSH2 0xD63 JUMP JUMPDEST PUSH1 0x20 DUP3 ADD SWAP1 POP SWAP2 SWAP1 POP JUMP JUMPDEST PUSH1 0x0 PUSH1 0x20 DUP3 ADD SWAP1 POP DUP2 DUP2 SUB PUSH1 0x0 DUP4 ADD MSTORE PUSH2 0xDC8 DUP2 PUSH2 0xD8C JUMP JUMPDEST SWAP1 POP SWAP2 SWAP1 POP JUMP JUMPDEST PUSH32 0x4E487B7100000000000000000000000000000000000000000000000000000000 PUSH1 0x0 MSTORE PUSH1 0x11 PUSH1 0x4 MSTORE PUSH1 0x24 PUSH1 0x0 REVERT JUMPDEST PUSH1 0x0 PUSH2 0xE09 DUP3 PUSH2 0x849 JUMP JUMPDEST SWAP2 POP PUSH2 0xE14 DUP4 PUSH2 0x849 JUMP JUMPDEST SWAP3 POP DUP3 DUP3 LT ISZERO PUSH2 0xE27 JUMPI PUSH2 0xE26 PUSH2 0xDCF JUMP JUMPDEST JUMPDEST DUP3 DUP3 SUB SWAP1 POP SWAP3 SWAP2 POP POP JUMP JUMPDEST PUSH32 0x4E487B7100000000000000000000000000000000000000000000000000000000 PUSH1 0x0 MSTORE PUSH1 0x32 PUSH1 0x4 MSTORE PUSH1 0x24 PUSH1 0x0 REVERT JUMPDEST PUSH1 0x0 PUSH2 0xE6C DUP3 PUSH2 0x8AC JUMP JUMPDEST PUSH2 0xE76 DUP2 DUP6 PUSH2 0xCAE JUMP JUMPDEST SWAP4 POP PUSH2 0xE86 DUP2 DUP6 PUSH1 0x20 DUP7 ADD PUSH2 0x8C8 JUMP JUMPDEST DUP1 DUP5 ADD SWAP2 POP POP SWAP3 SWAP2 POP POP JUMP JUMPDEST PUSH1 0x0 PUSH2 0xE9E DUP3 DUP5 PUSH2 0xE61 JUMP JUMPDEST SWAP2 POP DUP2 SWAP1 POP SWAP3 SWAP2 POP POP JUMP JUMPDEST PUSH32 0x4E487B7100000000000000000000000000000000000000000000000000000000 PUSH1 0x0 MSTORE PUSH1 0x31 PUSH1 0x4 MSTORE PUSH1 0x24 PUSH1 0x0 REVERT JUMPDEST PUSH1 0x0 DUP2 SWAP1 POP SWAP3 SWAP2 POP POP JUMP JUMPDEST PUSH1 0x0 PUSH2 0xEEF DUP4 DUP6 PUSH2 0xED8 JUMP JUMPDEST SWAP4 POP PUSH2 0xEFC DUP4 DUP6 DUP5 PUSH2 0xB86 JUMP JUMPDEST DUP3 DUP5 ADD SWAP1 POP SWAP4 SWAP3 POP POP POP JUMP JUMPDEST PUSH1 0x0 PUSH2 0xF15 DUP3 DUP5 DUP7 PUSH2 0xEE3 JUMP JUMPDEST SWAP2 POP DUP2 SWAP1 POP SWAP4 SWAP3 POP POP POP JUMP JUMPDEST PUSH32 0x756E617574686F72697A65640000000000000000000000000000000000000000 PUSH1 0x0 DUP3 ADD MSTORE POP JUMP JUMPDEST PUSH1 0x0 PUSH2 0xF57 PUSH1 0xC DUP4 PUSH2 0x8B7 JUMP JUMPDEST SWAP2 POP PUSH2 0xF62 DUP3 PUSH2 0xF21 JUMP JUMPDEST PUSH1 0x20 DUP3 ADD SWAP1 POP SWAP2 SWAP1 POP JUMP JUMPDEST PUSH1 0x0 PUSH1 0x20 DUP3 ADD SWAP1 POP DUP2 DUP2 SUB PUSH1 0x0 DUP4 ADD MSTORE PUSH2 0xF86 DUP2 PUSH2 0xF4A JUMP JUMPDEST SWAP1 POP SWAP2 SWAP1 POP JUMP INVALID LOG2 PUSH5 0x6970667358 0x22 SLT KECCAK256 EXTCODESIZE PUSH6 0x397A80DC1A91 0xE6 0xB5 0x4F 0x2E 0x24 SELFDESTRUCT 0xD6 0xF 0xA5 SELFDESTRUCT LT 0xFC 0xE8 PUSH13 0x20BAE744106989A1F5A064736F PUSH13 0x634300080D0033000000000000 "
				},
				"gasEstimates": {
					"creation": {
						"codeDepositCost": "807000",
						"executionCost": "25111",
						"totalCost": "832111"
					},
					"external": {
						"addName(string)": "infinite",
						"isNameExist(string)": "infinite",
						"name(uint256)": "infinite",
						"nameIndex(string)": "infinite",
						"nameLength()": "2490",
						"owner()": "2533",
						"removeName(string)": "infinite"
					},
					"internal": {
						"isOwner()": "infinite"
					}
				},
				"methodIdentifiers": {
					"addName(string)": "11456b47",
					"isNameExist(string)": "c3fcf9d3",
					"name(uint256)": "00ad800c",
					"nameIndex(string)": "e5a27979",
					"nameLength()": "2f5d3a04",
					"owner()": "8da5cb5b",
					"removeName(string)": "6a43aae7"
				}
			},
			"storageLayout": {
				"storage": [
					{
						"astId": 4,
						"contract": "contracts/Contract3October/Coba2.sol:Coba2",
						"label": "owner",
						"offset": 0,
						"slot": "0",
						"type": "t_address"
					},
					{
						"astId": 7,
						"contract": "contracts/Contract3October/Coba2.sol:Coba2",
						"label": "name",
						"offset": 0,
						"slot": "1",
						"type": "t_array(t_string_storage)dyn_storage"
					},
					{
						"astId": 11,
						"contract": "contracts/Contract3October/Coba2.sol:Coba2",
						"label": "nameIndex",
						"offset": 0,
						"slot": "2",
						"type": "t_mapping(t_string_memory_ptr,t_uint256)"
					}
				],
				"types": {
					"t_address": {
						"encoding": "inplace",
						"label": "address",
						"numberOfBytes": "20"
					},
					"t_array(t_string_storage)dyn_storage": {
						"base": "t_string_storage",
						"encoding": "dynamic_array",
						"label": "string[]",
						"numberOfBytes": "32"
					},
					"t_mapping(t_string_memory_ptr,t_uint256)": {
						"encoding": "mapping",
						"key": "t_string_memory_ptr",
						"label": "mapping(string => uint256)",
						"numberOfBytes": "32",
						"value": "t_uint256"
					},
					"t_string_memory_ptr": {
						"encoding": "bytes",
						"label": "string",
						"numberOfBytes": "32"
					},
					"t_string_storage": {
						"encoding": "bytes",
						"label": "string",
						"numberOfBytes": "32"
					},
					"t_uint256": {
						"encoding": "inplace",
						"label": "uint256",
						"numberOfBytes": "32"
					}
				}
			},
			"userdoc": {
				"kind": "user",
				"methods": {},
				"version": 1
			}
		}
	}
}